{
  "transactions": [
    {
      "hash": "0x556a35635e1c008e200c23326bddf82a3a699503b89db9af915f86f76819647e",
      "transactionType": "CALL",
      "contractName": null,
      "contractAddress": "0x5f5258986684b5bd551085445e011930c3ff2a13",
      "function": "upgradeAndCall(address,address,bytes)",
      "arguments": [
        "0x8B52c234C4064Ef31c90f3e42B0Aa8C75d42A5Ad",
        "0x8Ff5804bC9EB717aA4594eac9a69a79D148d8429",
        "0xc4d66de800000000000000000000000099b0e95fa8f5c3b86e4d78ed715b475cfccf6e97"
      ],
      "transaction": {
        "from": "0x99b0e95fa8f5c3b86e4d78ed715b475cfccf6e97",
        "to": "0x5f5258986684b5bd551085445e011930c3ff2a13",
        "gas": "0x22b0a",
        "value": "0x0",
        "input": "0x9623609d0000000000000000000000008b52c234c4064ef31c90f3e42b0aa8c75d42a5ad0000000000000000000000008ff5804bc9eb717aa4594eac9a69a79d148d842900000000000000000000000000000000000000000000000000000000000000600000000000000000000000000000000000000000000000000000000000000024c4d66de800000000000000000000000099b0e95fa8f5c3b86e4d78ed715b475cfccf6e9700000000000000000000000000000000000000000000000000000000",
        "nonce": "0x0",
        "chainId": "0x1f977"
      },
      "additionalContracts": [],
      "isFixedGasLimit": false
    },
    {
      "hash": "0xc07827cb9218d6e96f82e1f63021d9fc4c4fbb2cefa4d80c985f7b8abaab756e",
      "transactionType": "CALL",
      "contractName": null,
      "contractAddress": "0x8b52c234c4064ef31c90f3e42b0aa8c75d42a5ad",
      "function": "transferRole(bytes32,address)",
      "arguments": [
        "0x9f2df0fed2c77648de5860a4cc508cd0818c85b8b8a1ab4ceeef8d981c8956a6",
        "0x99B0E95Fa8F5C3b86e4d78ED715B475cFCcf6E97"
      ],
      "transaction": {
        "from": "0x99b0e95fa8f5c3b86e4d78ed715b475cfccf6e97",
        "to": "0x8b52c234c4064ef31c90f3e42b0aa8c75d42a5ad",
        "gas": "0x13212",
        "value": "0x0",
        "input": "0x9ee12c899f2df0fed2c77648de5860a4cc508cd0818c85b8b8a1ab4ceeef8d981c8956a600000000000000000000000099b0e95fa8f5c3b86e4d78ed715b475cfccf6e97",
        "nonce": "0x1",
        "chainId": "0x1f977"
      },
      "additionalContracts": [],
      "isFixedGasLimit": false
    },
    {
      "hash": null,
      "transactionType": "CALL",
      "contractName": null,
      "contractAddress": "0x8b52c234c4064ef31c90f3e42b0aa8c75d42a5ad",
      "function": "acceptTransferRole(bytes32)",
      "arguments": [
        "0x9f2df0fed2c77648de5860a4cc508cd0818c85b8b8a1ab4ceeef8d981c8956a6"
      ],
      "transaction": {
        "from": "0x99b0e95fa8f5c3b86e4d78ed715b475cfccf6e97",
        "to": "0x8b52c234c4064ef31c90f3e42b0aa8c75d42a5ad",
        "gas": "0x11882",
        "value": "0x0",
        "input": "0x72ac04bb9f2df0fed2c77648de5860a4cc508cd0818c85b8b8a1ab4ceeef8d981c8956a6",
        "nonce": "0x2",
        "chainId": "0x1f977"
      },
      "additionalContracts": [],
      "isFixedGasLimit": false
    },
    {
      "hash": null,
      "transactionType": "CALL",
      "contractName": null,
      "contractAddress": "0x8b52c234c4064ef31c90f3e42b0aa8c75d42a5ad",
      "function": "transferRole(bytes32,address)",
      "arguments": [
        "0x3c11d16cbaffd01df69ce1c404f6340ee057498f5f00246190ea54220576a848",
        "0x99B0E95Fa8F5C3b86e4d78ED715B475cFCcf6E97"
      ],
      "transaction": {
        "from": "0x99b0e95fa8f5c3b86e4d78ed715b475cfccf6e97",
        "to": "0x8b52c234c4064ef31c90f3e42b0aa8c75d42a5ad",
        "gas": "0x13202",
        "value": "0x0",
        "input": "0x9ee12c893c11d16cbaffd01df69ce1c404f6340ee057498f5f00246190ea54220576a84800000000000000000000000099b0e95fa8f5c3b86e4d78ed715b475cfccf6e97",
        "nonce": "0x3",
        "chainId": "0x1f977"
      },
      "additionalContracts": [],
      "isFixedGasLimit": false
    },
    {
      "hash": null,
      "transactionType": "CALL",
      "contractName": null,
      "contractAddress": "0x8b52c234c4064ef31c90f3e42b0aa8c75d42a5ad",
      "function": "acceptTransferRole(bytes32)",
      "arguments": [
        "0x3c11d16cbaffd01df69ce1c404f6340ee057498f5f00246190ea54220576a848"
      ],
      "transaction": {
        "from": "0x99b0e95fa8f5c3b86e4d78ed715b475cfccf6e97",
        "to": "0x8b52c234c4064ef31c90f3e42b0aa8c75d42a5ad",
        "gas": "0x128f1",
        "value": "0x0",
        "input": "0x72ac04bb3c11d16cbaffd01df69ce1c404f6340ee057498f5f00246190ea54220576a848",
        "nonce": "0x4",
        "chainId": "0x1f977"
      },
      "additionalContracts": [],
      "isFixedGasLimit": false
    },
    {
      "hash": null,
      "transactionType": "CALL",
      "contractName": null,
      "contractAddress": "0x8b52c234c4064ef31c90f3e42b0aa8c75d42a5ad",
      "function": "transferRole(bytes32,address)",
      "arguments": [
        "0x92de27771f92d6942691d73358b3a4673e4880de8356f8f2cf452be87e02d363",
        "0x99B0E95Fa8F5C3b86e4d78ED715B475cFCcf6E97"
      ],
      "transaction": {
        "from": "0x99b0e95fa8f5c3b86e4d78ed715b475cfccf6e97",
        "to": "0x8b52c234c4064ef31c90f3e42b0aa8c75d42a5ad",
        "gas": "0x13212",
        "value": "0x0",
        "input": "0x9ee12c8992de27771f92d6942691d73358b3a4673e4880de8356f8f2cf452be87e02d36300000000000000000000000099b0e95fa8f5c3b86e4d78ed715b475cfccf6e97",
        "nonce": "0x5",
        "chainId": "0x1f977"
      },
      "additionalContracts": [],
      "isFixedGasLimit": false
    },
    {
      "hash": null,
      "transactionType": "CALL",
      "contractName": null,
      "contractAddress": "0x8b52c234c4064ef31c90f3e42b0aa8c75d42a5ad",
      "function": "acceptTransferRole(bytes32)",
      "arguments": [
        "0x92de27771f92d6942691d73358b3a4673e4880de8356f8f2cf452be87e02d363"
      ],
      "transaction": {
        "from": "0x99b0e95fa8f5c3b86e4d78ed715b475cfccf6e97",
        "to": "0x8b52c234c4064ef31c90f3e42b0aa8c75d42a5ad",
        "gas": "0x11882",
        "value": "0x0",
        "input": "0x72ac04bb92de27771f92d6942691d73358b3a4673e4880de8356f8f2cf452be87e02d363",
        "nonce": "0x6",
        "chainId": "0x1f977"
      },
      "additionalContracts": [],
      "isFixedGasLimit": false
    },
    {
      "hash": null,
      "transactionType": "CALL",
      "contractName": null,
      "contractAddress": "0x8b52c234c4064ef31c90f3e42b0aa8c75d42a5ad",
      "function": "transferRole(bytes32,address)",
      "arguments": [
        "0x65d7a28e3265b37a6474929f336521b332c1681b933f6cb9f3376673440d862a",
        "0x99B0E95Fa8F5C3b86e4d78ED715B475cFCcf6E97"
      ],
      "transaction": {
        "from": "0x99b0e95fa8f5c3b86e4d78ed715b475cfccf6e97",
        "to": "0x8b52c234c4064ef31c90f3e42b0aa8c75d42a5ad",
        "gas": "0x13212",
        "value": "0x0",
        "input": "0x9ee12c8965d7a28e3265b37a6474929f336521b332c1681b933f6cb9f3376673440d862a00000000000000000000000099b0e95fa8f5c3b86e4d78ed715b475cfccf6e97",
        "nonce": "0x7",
        "chainId": "0x1f977"
      },
      "additionalContracts": [],
      "isFixedGasLimit": false
    },
    {
      "hash": null,
      "transactionType": "CALL",
      "contractName": null,
      "contractAddress": "0x8b52c234c4064ef31c90f3e42b0aa8c75d42a5ad",
      "function": "acceptTransferRole(bytes32)",
      "arguments": [
        "0x65d7a28e3265b37a6474929f336521b332c1681b933f6cb9f3376673440d862a"
      ],
      "transaction": {
        "from": "0x99b0e95fa8f5c3b86e4d78ed715b475cfccf6e97",
        "to": "0x8b52c234c4064ef31c90f3e42b0aa8c75d42a5ad",
        "gas": "0x11882",
        "value": "0x0",
        "input": "0x72ac04bb65d7a28e3265b37a6474929f336521b332c1681b933f6cb9f3376673440d862a",
        "nonce": "0x8",
        "chainId": "0x1f977"
      },
      "additionalContracts": [],
      "isFixedGasLimit": false
    }
  ],
  "receipts": [
    {
      "status": "0x1",
      "cumulativeGasUsed": "0x23d31",
      "logs": [
        {
          "address": "0x8b52c234c4064ef31c90f3e42b0aa8c75d42a5ad",
          "topics": [
            "0xbc7cd75a20ee27fd9adebab32041f755214dbc6bffa90cc0225b39da2e5c2d3b",
            "0x0000000000000000000000008ff5804bc9eb717aa4594eac9a69a79d148d8429"
          ],
          "data": "0x",
          "blockHash": "0xccd541c6c81ea760b6251d81440df2e60455c65f811b455e2171c92a7a9309a1",
          "blockNumber": "0xf748c",
          "transactionHash": "0x556a35635e1c008e200c23326bddf82a3a699503b89db9af915f86f76819647e",
          "transactionIndex": "0x1",
          "logIndex": "0x0",
          "removed": false
        },
        {
          "address": "0x8b52c234c4064ef31c90f3e42b0aa8c75d42a5ad",
          "topics": [
            "0xc7f505b2f371ae2175ee4913f4499e1f2633a7b5936321eed1cdaeb6115181d2"
          ],
          "data": "0x0000000000000000000000000000000000000000000000000000000000000002",
          "blockHash": "0xccd541c6c81ea760b6251d81440df2e60455c65f811b455e2171c92a7a9309a1",
          "blockNumber": "0xf748c",
          "transactionHash": "0x556a35635e1c008e200c23326bddf82a3a699503b89db9af915f86f76819647e",
          "transactionIndex": "0x1",
          "logIndex": "0x1",
          "removed": false
        }
      ],
      "logsBloom": "0x00400000000000000000000000000000400000000000000000000000000000000000000000000000000000000000000000000000000000000000000000000000000000000000000000000000000002000800000000000000000000000000000000000000000000000000000000000000000000000000000000000000000008000000000000000000000800000000000000000000000080100000000000004000000000000000001000000000000000000000000000000000000000000000000000000020000000000000000000000000000000000004000000000000000000000000000000000000000000000000000000000000000000000000000000000000",
      "type": "0x2",
      "transactionHash": "0x556a35635e1c008e200c23326bddf82a3a699503b89db9af915f86f76819647e",
      "transactionIndex": "0x1",
      "blockHash": "0xccd541c6c81ea760b6251d81440df2e60455c65f811b455e2171c92a7a9309a1",
      "blockNumber": "0xf748c",
      "gasUsed": "0x191d7",
      "effectiveGasPrice": "0xfc",
      "from": "0x99b0e95fa8f5c3b86e4d78ed715b475cfccf6e97",
      "to": "0x5f5258986684b5bd551085445e011930c3ff2a13",
      "contractAddress": null,
      "l1BaseFeeScalar": "0x558",
      "l1BlobBaseFee": "0x1",
      "l1BlobBaseFeeScalar": "0xc5fc5",
      "l1Fee": "0x1ddc2b9",
      "l1GasPrice": "0x9c2a4e",
      "l1GasUsed": "0x8bc"
    },
    {
      "status": "0x1",
      "cumulativeGasUsed": "0x188f2",
      "logs": [
        {
          "address": "0x8b52c234c4064ef31c90f3e42b0aa8c75d42a5ad",
          "topics": [
            "0xc9ba1b1f5a418274427c969ace813494ac92d03206cbee8cffb4ba8696f50736",
            "0x0000000000000000000000000000000000000000000000000000000000000000",
            "0x00000000000000000000000099b0e95fa8f5c3b86e4d78ed715b475cfccf6e97"
          ],
          "data": "0x9f2df0fed2c77648de5860a4cc508cd0818c85b8b8a1ab4ceeef8d981c8956a6",
          "blockHash": "0xcf7047b3e21e31aba79034186b5063799dc282b226dc76cb200c29a4949f292d",
          "blockNumber": "0xf749c",
          "transactionHash": "0xc07827cb9218d6e96f82e1f63021d9fc4c4fbb2cefa4d80c985f7b8abaab756e",
          "transactionIndex": "0x1",
          "logIndex": "0x0",
          "removed": false
        }
      ],
      "logsBloom": "0x00400000000000000000000000000000000000000000000000000000000000000000000000000000000080000000000000000000040000000000000000000000000000000000000000000000000000000000000000000000000000000000000000080000020000000000000200000800000000000000000000000000000000000000000000000000000000000000000000000000000000100000000000004000000000000000000000000000000000000000000000000000000000000000000000000000000000000000000000000000000200000000000000000000000020000000000000000000000000000000000000000020000000000000000000000000",
      "type": "0x2",
      "transactionHash": "0xc07827cb9218d6e96f82e1f63021d9fc4c4fbb2cefa4d80c985f7b8abaab756e",
      "transactionIndex": "0x1",
      "blockHash": "0xcf7047b3e21e31aba79034186b5063799dc282b226dc76cb200c29a4949f292d",
      "blockNumber": "0xf749c",
      "gasUsed": "0xdd98",
      "effectiveGasPrice": "0xfc",
      "from": "0x99b0e95fa8f5c3b86e4d78ed715b475cfccf6e97",
      "to": "0x8b52c234c4064ef31c90f3e42b0aa8c75d42a5ad",
      "contractAddress": null,
      "l1BaseFeeScalar": "0x558",
      "l1BlobBaseFee": "0x1",
      "l1BlobBaseFeeScalar": "0xc5fc5",
      "l1Fee": "0x15ff3b2",
      "l1GasPrice": "0x9c2a4e",
      "l1GasUsed": "0x66f"
    }
  ],
  "libraries": [],
  "pending": [],
  "returns": {},
  "timestamp": 1741284312,
  "chain": 129399,
  "commit": "19dd162"
}