{
  "transactions": [
    {
      "hash": "0x16b68d33a5931af67ee23c24cfe2e07e3112a7dbadccae5d606e26db777d2b34",
      "transactionType": "CALL",
      "contractName": null,
      "contractAddress": "0x2ffb5584c3c8ad18b3fc8872b91aa49a2ac8d169",
      "function": "upgradeAndCall(address,address,bytes)",
      "arguments": [
        "0xa9012a055bd4e0eDfF8Ce09f960291C09D5322dC",
        "0x487478A4E9653e82e0e44DCA5F5202F928eBFD77",
        "0xc4d66de800000000000000000000000099b0e95fa8f5c3b86e4d78ed715b475cfccf6e97"
      ],
      "transaction": {
        "from": "0x99b0e95fa8f5c3b86e4d78ed715b475cfccf6e97",
        "to": "0x2ffb5584c3c8ad18b3fc8872b91aa49a2ac8d169",
        "gas": "0x22b0a",
        "value": "0x0",
        "input": "0x9623609d000000000000000000000000a9012a055bd4e0edff8ce09f960291c09d5322dc000000000000000000000000487478a4e9653e82e0e44dca5f5202f928ebfd7700000000000000000000000000000000000000000000000000000000000000600000000000000000000000000000000000000000000000000000000000000024c4d66de800000000000000000000000099b0e95fa8f5c3b86e4d78ed715b475cfccf6e9700000000000000000000000000000000000000000000000000000000",
        "nonce": "0xa",
        "chainId": "0x1f977"
      },
      "additionalContracts": [],
      "isFixedGasLimit": false
    },
    {
      "hash": "0x8e4257b38c10b484a8ef60001739cf34c02a1c92b8a25c2675c21b78f50f25a7",
      "transactionType": "CALL",
      "contractName": null,
      "contractAddress": "0xa9012a055bd4e0edff8ce09f960291c09d5322dc",
      "function": "transferRole(bytes32,address)",
      "arguments": [
        "0x9f2df0fed2c77648de5860a4cc508cd0818c85b8b8a1ab4ceeef8d981c8956a6",
        "0x99B0E95Fa8F5C3b86e4d78ED715B475cFCcf6E97"
      ],
      "transaction": {
        "from": "0x99b0e95fa8f5c3b86e4d78ed715b475cfccf6e97",
        "to": "0xa9012a055bd4e0edff8ce09f960291c09d5322dc",
        "gas": "0x13212",
        "value": "0x0",
        "input": "0x9ee12c899f2df0fed2c77648de5860a4cc508cd0818c85b8b8a1ab4ceeef8d981c8956a600000000000000000000000099b0e95fa8f5c3b86e4d78ed715b475cfccf6e97",
        "nonce": "0xb",
        "chainId": "0x1f977"
      },
      "additionalContracts": [],
      "isFixedGasLimit": false
    },
    {
      "hash": null,
      "transactionType": "CALL",
      "contractName": null,
      "contractAddress": "0xa9012a055bd4e0edff8ce09f960291c09d5322dc",
      "function": "acceptTransferRole(bytes32)",
      "arguments": [
        "0x9f2df0fed2c77648de5860a4cc508cd0818c85b8b8a1ab4ceeef8d981c8956a6"
      ],
      "transaction": {
        "from": "0x99b0e95fa8f5c3b86e4d78ed715b475cfccf6e97",
        "to": "0xa9012a055bd4e0edff8ce09f960291c09d5322dc",
        "gas": "0x11882",
        "value": "0x0",
        "input": "0x72ac04bb9f2df0fed2c77648de5860a4cc508cd0818c85b8b8a1ab4ceeef8d981c8956a6",
        "nonce": "0xc",
        "chainId": "0x1f977"
      },
      "additionalContracts": [],
      "isFixedGasLimit": false
    },
    {
      "hash": null,
      "transactionType": "CALL",
      "contractName": null,
      "contractAddress": "0xa9012a055bd4e0edff8ce09f960291c09d5322dc",
      "function": "transferRole(bytes32,address)",
      "arguments": [
        "0x3c11d16cbaffd01df69ce1c404f6340ee057498f5f00246190ea54220576a848",
        "0x99B0E95Fa8F5C3b86e4d78ED715B475cFCcf6E97"
      ],
      "transaction": {
        "from": "0x99b0e95fa8f5c3b86e4d78ed715b475cfccf6e97",
        "to": "0xa9012a055bd4e0edff8ce09f960291c09d5322dc",
        "gas": "0x13202",
        "value": "0x0",
        "input": "0x9ee12c893c11d16cbaffd01df69ce1c404f6340ee057498f5f00246190ea54220576a84800000000000000000000000099b0e95fa8f5c3b86e4d78ed715b475cfccf6e97",
        "nonce": "0xd",
        "chainId": "0x1f977"
      },
      "additionalContracts": [],
      "isFixedGasLimit": false
    },
    {
      "hash": null,
      "transactionType": "CALL",
      "contractName": null,
      "contractAddress": "0xa9012a055bd4e0edff8ce09f960291c09d5322dc",
      "function": "acceptTransferRole(bytes32)",
      "arguments": [
        "0x3c11d16cbaffd01df69ce1c404f6340ee057498f5f00246190ea54220576a848"
      ],
      "transaction": {
        "from": "0x99b0e95fa8f5c3b86e4d78ed715b475cfccf6e97",
        "to": "0xa9012a055bd4e0edff8ce09f960291c09d5322dc",
        "gas": "0x128f1",
        "value": "0x0",
        "input": "0x72ac04bb3c11d16cbaffd01df69ce1c404f6340ee057498f5f00246190ea54220576a848",
        "nonce": "0xe",
        "chainId": "0x1f977"
      },
      "additionalContracts": [],
      "isFixedGasLimit": false
    },
    {
      "hash": null,
      "transactionType": "CALL",
      "contractName": null,
      "contractAddress": "0xa9012a055bd4e0edff8ce09f960291c09d5322dc",
      "function": "transferRole(bytes32,address)",
      "arguments": [
        "0x92de27771f92d6942691d73358b3a4673e4880de8356f8f2cf452be87e02d363",
        "0x99B0E95Fa8F5C3b86e4d78ED715B475cFCcf6E97"
      ],
      "transaction": {
        "from": "0x99b0e95fa8f5c3b86e4d78ed715b475cfccf6e97",
        "to": "0xa9012a055bd4e0edff8ce09f960291c09d5322dc",
        "gas": "0x13212",
        "value": "0x0",
        "input": "0x9ee12c8992de27771f92d6942691d73358b3a4673e4880de8356f8f2cf452be87e02d36300000000000000000000000099b0e95fa8f5c3b86e4d78ed715b475cfccf6e97",
        "nonce": "0xf",
        "chainId": "0x1f977"
      },
      "additionalContracts": [],
      "isFixedGasLimit": false
    },
    {
      "hash": null,
      "transactionType": "CALL",
      "contractName": null,
      "contractAddress": "0xa9012a055bd4e0edff8ce09f960291c09d5322dc",
      "function": "acceptTransferRole(bytes32)",
      "arguments": [
        "0x92de27771f92d6942691d73358b3a4673e4880de8356f8f2cf452be87e02d363"
      ],
      "transaction": {
        "from": "0x99b0e95fa8f5c3b86e4d78ed715b475cfccf6e97",
        "to": "0xa9012a055bd4e0edff8ce09f960291c09d5322dc",
        "gas": "0x11882",
        "value": "0x0",
        "input": "0x72ac04bb92de27771f92d6942691d73358b3a4673e4880de8356f8f2cf452be87e02d363",
        "nonce": "0x10",
        "chainId": "0x1f977"
      },
      "additionalContracts": [],
      "isFixedGasLimit": false
    },
    {
      "hash": null,
      "transactionType": "CALL",
      "contractName": null,
      "contractAddress": "0xa9012a055bd4e0edff8ce09f960291c09d5322dc",
      "function": "transferRole(bytes32,address)",
      "arguments": [
        "0x65d7a28e3265b37a6474929f336521b332c1681b933f6cb9f3376673440d862a",
        "0x99B0E95Fa8F5C3b86e4d78ED715B475cFCcf6E97"
      ],
      "transaction": {
        "from": "0x99b0e95fa8f5c3b86e4d78ed715b475cfccf6e97",
        "to": "0xa9012a055bd4e0edff8ce09f960291c09d5322dc",
        "gas": "0x13212",
        "value": "0x0",
        "input": "0x9ee12c8965d7a28e3265b37a6474929f336521b332c1681b933f6cb9f3376673440d862a00000000000000000000000099b0e95fa8f5c3b86e4d78ed715b475cfccf6e97",
        "nonce": "0x11",
        "chainId": "0x1f977"
      },
      "additionalContracts": [],
      "isFixedGasLimit": false
    },
    {
      "hash": null,
      "transactionType": "CALL",
      "contractName": null,
      "contractAddress": "0xa9012a055bd4e0edff8ce09f960291c09d5322dc",
      "function": "acceptTransferRole(bytes32)",
      "arguments": [
        "0x65d7a28e3265b37a6474929f336521b332c1681b933f6cb9f3376673440d862a"
      ],
      "transaction": {
        "from": "0x99b0e95fa8f5c3b86e4d78ed715b475cfccf6e97",
        "to": "0xa9012a055bd4e0edff8ce09f960291c09d5322dc",
        "gas": "0x11882",
        "value": "0x0",
        "input": "0x72ac04bb65d7a28e3265b37a6474929f336521b332c1681b933f6cb9f3376673440d862a",
        "nonce": "0x12",
        "chainId": "0x1f977"
      },
      "additionalContracts": [],
      "isFixedGasLimit": false
    }
  ],
  "receipts": [
    {
      "status": "0x1",
      "cumulativeGasUsed": "0x23d31",
      "logs": [
        {
          "address": "0xa9012a055bd4e0edff8ce09f960291c09d5322dc",
          "topics": [
            "0xbc7cd75a20ee27fd9adebab32041f755214dbc6bffa90cc0225b39da2e5c2d3b",
            "0x000000000000000000000000487478a4e9653e82e0e44dca5f5202f928ebfd77"
          ],
          "data": "0x",
          "blockHash": "0x0be66a19447ac97fb6fc8b0b838a450aa6629c3380480a207aab23a3ee417e6d",
          "blockNumber": "0xf7873",
          "transactionHash": "0x16b68d33a5931af67ee23c24cfe2e07e3112a7dbadccae5d606e26db777d2b34",
          "transactionIndex": "0x1",
          "logIndex": "0x0",
          "removed": false
        },
        {
          "address": "0xa9012a055bd4e0edff8ce09f960291c09d5322dc",
          "topics": [
            "0xc7f505b2f371ae2175ee4913f4499e1f2633a7b5936321eed1cdaeb6115181d2"
          ],
          "data": "0x0000000000000000000000000000000000000000000000000000000000000002",
          "blockHash": "0x0be66a19447ac97fb6fc8b0b838a450aa6629c3380480a207aab23a3ee417e6d",
          "blockNumber": "0xf7873",
          "transactionHash": "0x16b68d33a5931af67ee23c24cfe2e07e3112a7dbadccae5d606e26db777d2b34",
          "transactionIndex": "0x1",
          "logIndex": "0x1",
          "removed": false
        }
      ],
      "logsBloom": "0x00000000000100000000000000000000400000000000000020000000000000000000000000000000000000000000000000000000000000000000000000000000000000000000000000000000000002000000000000000000000000002000000000000000000000000000000000000000000000000000000000000000000000000000000000000000000800000000000000000000000080000000000000020000000000000000000000000100000000000000000200000000000000000000000000000020000000000000000000000000000000000004000000000000000000000000000000000000000000000000000000000000000000000000000000000000",
      "type": "0x2",
      "transactionHash": "0x16b68d33a5931af67ee23c24cfe2e07e3112a7dbadccae5d606e26db777d2b34",
      "transactionIndex": "0x1",
      "blockHash": "0x0be66a19447ac97fb6fc8b0b838a450aa6629c3380480a207aab23a3ee417e6d",
      "blockNumber": "0xf7873",
      "gasUsed": "0x191d7",
      "effectiveGasPrice": "0xfc",
      "from": "0x99b0e95fa8f5c3b86e4d78ed715b475cfccf6e97",
      "to": "0x2ffb5584c3c8ad18b3fc8872b91aa49a2ac8d169",
      "contractAddress": null,
      "l1BaseFeeScalar": "0x558",
      "l1BlobBaseFee": "0x1",
      "l1BlobBaseFeeScalar": "0xc5fc5",
      "l1Fee": "0x1735688",
      "l1GasPrice": "0x7960fc",
      "l1GasUsed": "0x8bc"
    },
    {
      "status": "0x1",
      "cumulativeGasUsed": "0x188e6",
      "logs": [
        {
          "address": "0xa9012a055bd4e0edff8ce09f960291c09d5322dc",
          "topics": [
            "0xc9ba1b1f5a418274427c969ace813494ac92d03206cbee8cffb4ba8696f50736",
            "0x0000000000000000000000000000000000000000000000000000000000000000",
            "0x00000000000000000000000099b0e95fa8f5c3b86e4d78ed715b475cfccf6e97"
          ],
          "data": "0x9f2df0fed2c77648de5860a4cc508cd0818c85b8b8a1ab4ceeef8d981c8956a6",
          "blockHash": "0x7ccaf694daff239a7a93cd0e1d1544101ee3bc105fbb3b820ec3d712f481a123",
          "blockNumber": "0xf787e",
          "transactionHash": "0x8e4257b38c10b484a8ef60001739cf34c02a1c92b8a25c2675c21b78f50f25a7",
          "transactionIndex": "0x1",
          "logIndex": "0x0",
          "removed": false
        }
      ],
      "logsBloom": "0x00000000000100000000000000000000000000000000000020000000000000000000000000000000000080000000000000000000040000000000000000000000000000000000000000000000000000000000000000000000000000000000000000080000020000000000000200000800000000000000000000000000000000000000000000000000000000000000000000000000000000000000000000020000000000000000000000000000000000000000000000000000000000000000000000000000000000000000000000000000000200000000000000000000000020000000000000000000000000000000000000000020000000000000000000000000",
      "type": "0x2",
      "transactionHash": "0x8e4257b38c10b484a8ef60001739cf34c02a1c92b8a25c2675c21b78f50f25a7",
      "transactionIndex": "0x1",
      "blockHash": "0x7ccaf694daff239a7a93cd0e1d1544101ee3bc105fbb3b820ec3d712f481a123",
      "blockNumber": "0xf787e",
      "gasUsed": "0xdd98",
      "effectiveGasPrice": "0xfc",
      "from": "0x99b0e95fa8f5c3b86e4d78ed715b475cfccf6e97",
      "to": "0xa9012a055bd4e0edff8ce09f960291c09d5322dc",
      "contractAddress": null,
      "l1BaseFeeScalar": "0x558",
      "l1BlobBaseFee": "0x1",
      "l1BlobBaseFeeScalar": "0xc5fc5",
      "l1Fee": "0x10f47e6",
      "l1GasPrice": "0x785ed3",
      "l1GasUsed": "0x66f"
    }
  ],
  "libraries": [],
  "pending": [],
  "returns": {},
  "timestamp": 1741285310,
  "chain": 129399,
  "commit": "ea8b1bb"
}