{
  "transactions": [
    {
      "hash": "0x19cf2c42e7071badaeb32eefdf13a9c54ffd42f1fa9c4f2a425cb2681d10b7cd",
      "transactionType": "CALL",
      "contractName": null,
      "contractAddress": "0x14c703522cbdf319dfcfba46425898adb748a130",
      "function": "transferRole(bytes32,address)",
      "arguments": [
        "0x9f2df0fed2c77648de5860a4cc508cd0818c85b8b8a1ab4ceeef8d981c8956a6",
        "0x99B0E95Fa8F5C3b86e4d78ED715B475cFCcf6E97"
      ],
      "transaction": {
        "from": "0x99b0e95fa8f5c3b86e4d78ed715b475cfccf6e97",
        "to": "0x14c703522cbdf319dfcfba46425898adb748a130",
        "gas": "0xc6b3",
        "value": "0x0",
        "input": "0x9ee12c899f2df0fed2c77648de5860a4cc508cd0818c85b8b8a1ab4ceeef8d981c8956a600000000000000000000000099b0e95fa8f5c3b86e4d78ed715b475cfccf6e97",
        "nonce": "0x74",
        "chainId": "0xaa36a7"
      },
      "additionalContracts": [],
      "isFixedGasLimit": false
    },
    {
      "hash": "0x03f44432c1ad3f87897ff211cbb6b3179ea7e07b6415db97b68b949ff0aeca50",
      "transactionType": "CALL",
      "contractName": null,
      "contractAddress": "0x14c703522cbdf319dfcfba46425898adb748a130",
      "function": "acceptTransferRole(bytes32)",
      "arguments": [
        "0x9f2df0fed2c77648de5860a4cc508cd0818c85b8b8a1ab4ceeef8d981c8956a6"
      ],
      "transaction": {
        "from": "0x99b0e95fa8f5c3b86e4d78ed715b475cfccf6e97",
        "to": "0x14c703522cbdf319dfcfba46425898adb748a130",
        "gas": "0x11882",
        "value": "0x0",
        "input": "0x72ac04bb9f2df0fed2c77648de5860a4cc508cd0818c85b8b8a1ab4ceeef8d981c8956a6",
        "nonce": "0x75",
        "chainId": "0xaa36a7"
      },
      "additionalContracts": [],
      "isFixedGasLimit": false
    },
    {
      "hash": "0xeac452832032c9e308cc5b55b74db7d73c08a66c5aaa5685183759295ab0d2ee",
      "transactionType": "CALL",
      "contractName": null,
      "contractAddress": "0x14c703522cbdf319dfcfba46425898adb748a130",
      "function": "transferRole(bytes32,address)",
      "arguments": [
        "0x3c11d16cbaffd01df69ce1c404f6340ee057498f5f00246190ea54220576a848",
        "0x99B0E95Fa8F5C3b86e4d78ED715B475cFCcf6E97"
      ],
      "transaction": {
        "from": "0x99b0e95fa8f5c3b86e4d78ed715b475cfccf6e97",
        "to": "0x14c703522cbdf319dfcfba46425898adb748a130",
        "gas": "0x13202",
        "value": "0x0",
        "input": "0x9ee12c893c11d16cbaffd01df69ce1c404f6340ee057498f5f00246190ea54220576a84800000000000000000000000099b0e95fa8f5c3b86e4d78ed715b475cfccf6e97",
        "nonce": "0x76",
        "chainId": "0xaa36a7"
      },
      "additionalContracts": [],
      "isFixedGasLimit": false
    },
    {
      "hash": "0xd82f9d59029f412d164d1fa9a7246398c67b2a9e6781d273f1c05da0781f08d0",
      "transactionType": "CALL",
      "contractName": null,
      "contractAddress": "0x14c703522cbdf319dfcfba46425898adb748a130",
      "function": "acceptTransferRole(bytes32)",
      "arguments": [
        "0x3c11d16cbaffd01df69ce1c404f6340ee057498f5f00246190ea54220576a848"
      ],
      "transaction": {
        "from": "0x99b0e95fa8f5c3b86e4d78ed715b475cfccf6e97",
        "to": "0x14c703522cbdf319dfcfba46425898adb748a130",
        "gas": "0x128f1",
        "value": "0x0",
        "input": "0x72ac04bb3c11d16cbaffd01df69ce1c404f6340ee057498f5f00246190ea54220576a848",
        "nonce": "0x77",
        "chainId": "0xaa36a7"
      },
      "additionalContracts": [],
      "isFixedGasLimit": false
    },
    {
      "hash": "0x2c1214624c675e3f084b2be99753997aedfe608000f42ee0c262d8cef7e6dd4c",
      "transactionType": "CALL",
      "contractName": null,
      "contractAddress": "0x14c703522cbdf319dfcfba46425898adb748a130",
      "function": "transferRole(bytes32,address)",
      "arguments": [
        "0x92de27771f92d6942691d73358b3a4673e4880de8356f8f2cf452be87e02d363",
        "0x99B0E95Fa8F5C3b86e4d78ED715B475cFCcf6E97"
      ],
      "transaction": {
        "from": "0x99b0e95fa8f5c3b86e4d78ed715b475cfccf6e97",
        "to": "0x14c703522cbdf319dfcfba46425898adb748a130",
        "gas": "0x13212",
        "value": "0x0",
        "input": "0x9ee12c8992de27771f92d6942691d73358b3a4673e4880de8356f8f2cf452be87e02d36300000000000000000000000099b0e95fa8f5c3b86e4d78ed715b475cfccf6e97",
        "nonce": "0x78",
        "chainId": "0xaa36a7"
      },
      "additionalContracts": [],
      "isFixedGasLimit": false
    },
    {
      "hash": "0xdd744451afcd4a2f1141ae3e86a6bd924309953a69844ca4ba0c1e35fde89764",
      "transactionType": "CALL",
      "contractName": null,
      "contractAddress": "0x14c703522cbdf319dfcfba46425898adb748a130",
      "function": "acceptTransferRole(bytes32)",
      "arguments": [
        "0x92de27771f92d6942691d73358b3a4673e4880de8356f8f2cf452be87e02d363"
      ],
      "transaction": {
        "from": "0x99b0e95fa8f5c3b86e4d78ed715b475cfccf6e97",
        "to": "0x14c703522cbdf319dfcfba46425898adb748a130",
        "gas": "0x11882",
        "value": "0x0",
        "input": "0x72ac04bb92de27771f92d6942691d73358b3a4673e4880de8356f8f2cf452be87e02d363",
        "nonce": "0x79",
        "chainId": "0xaa36a7"
      },
      "additionalContracts": [],
      "isFixedGasLimit": false
    },
    {
      "hash": "0x95db6b4b1ef653d43d4ec593b162e75374e11235f3d12201a4ef4836f0312f56",
      "transactionType": "CALL",
      "contractName": null,
      "contractAddress": "0x14c703522cbdf319dfcfba46425898adb748a130",
      "function": "transferRole(bytes32,address)",
      "arguments": [
        "0x65d7a28e3265b37a6474929f336521b332c1681b933f6cb9f3376673440d862a",
        "0x99B0E95Fa8F5C3b86e4d78ED715B475cFCcf6E97"
      ],
      "transaction": {
        "from": "0x99b0e95fa8f5c3b86e4d78ed715b475cfccf6e97",
        "to": "0x14c703522cbdf319dfcfba46425898adb748a130",
        "gas": "0x13212",
        "value": "0x0",
        "input": "0x9ee12c8965d7a28e3265b37a6474929f336521b332c1681b933f6cb9f3376673440d862a00000000000000000000000099b0e95fa8f5c3b86e4d78ed715b475cfccf6e97",
        "nonce": "0x7a",
        "chainId": "0xaa36a7"
      },
      "additionalContracts": [],
      "isFixedGasLimit": false
    },
    {
      "hash": "0x1f6af288860b4fda5ae524f81ea1c792edaec16ea905bd2655ca02e7854be258",
      "transactionType": "CALL",
      "contractName": null,
      "contractAddress": "0x14c703522cbdf319dfcfba46425898adb748a130",
      "function": "acceptTransferRole(bytes32)",
      "arguments": [
        "0x65d7a28e3265b37a6474929f336521b332c1681b933f6cb9f3376673440d862a"
      ],
      "transaction": {
        "from": "0x99b0e95fa8f5c3b86e4d78ed715b475cfccf6e97",
        "to": "0x14c703522cbdf319dfcfba46425898adb748a130",
        "gas": "0x11882",
        "value": "0x0",
        "input": "0x72ac04bb65d7a28e3265b37a6474929f336521b332c1681b933f6cb9f3376673440d862a",
        "nonce": "0x7b",
        "chainId": "0xaa36a7"
      },
      "additionalContracts": [],
      "isFixedGasLimit": false
    }
  ],
  "receipts": [
    {
      "status": "0x1",
      "cumulativeGasUsed": "0xb73c2b",
      "logs": [
        {
          "address": "0x14c703522cbdf319dfcfba46425898adb748a130",
          "topics": [
            "0xc9ba1b1f5a418274427c969ace813494ac92d03206cbee8cffb4ba8696f50736",
            "0x0000000000000000000000000000000000000000000000000000000000000000",
            "0x00000000000000000000000099b0e95fa8f5c3b86e4d78ed715b475cfccf6e97"
          ],
          "data": "0x9f2df0fed2c77648de5860a4cc508cd0818c85b8b8a1ab4ceeef8d981c8956a6",
          "blockHash": "0x85c524aa5c491cac57870a93710bda2922694286c3efb1fb915f74c67dd49eeb",
          "blockNumber": "0x76ff05",
          "transactionHash": "0x19cf2c42e7071badaeb32eefdf13a9c54ffd42f1fa9c4f2a425cb2681d10b7cd",
          "transactionIndex": "0x82",
          "logIndex": "0x9d",
          "removed": false
        }
      ],
      "logsBloom": "0x00000000000000000000000000000000000000000000000000000000000000000000000000000000100080000000000000000000040000000000000000000000000000000000000000000000000000000000000000000000000000000000000000080000020000000000000200000800000000000000000000000000000000000000000000000000000000000000000000000000000000000000000000000000000000000000000000000000000000000000000000000000000000000020000000000000000000000000000000000000000200000000000000000000000020000000000000000000000000000000000000000020000000000000000080000000",
      "type": "0x2",
      "transactionHash": "0x19cf2c42e7071badaeb32eefdf13a9c54ffd42f1fa9c4f2a425cb2681d10b7cd",
      "transactionIndex": "0x82",
      "blockHash": "0x85c524aa5c491cac57870a93710bda2922694286c3efb1fb915f74c67dd49eeb",
      "blockNumber": "0x76ff05",
      "gasUsed": "0x8fdc",
      "effectiveGasPrice": "0x117cdbad0",
      "from": "0x99b0e95fa8f5c3b86e4d78ed715b475cfccf6e97",
      "to": "0x14c703522cbdf319dfcfba46425898adb748a130",
      "contractAddress": null
    },
    {
      "status": "0x1",
      "cumulativeGasUsed": "0x109419b",
      "logs": [
        {
          "address": "0x14c703522cbdf319dfcfba46425898adb748a130",
          "topics": [
            "0x274dd4127a55dcb6f6c12ed38fec5007d965d2afffa8b0bc75c3dc8f3f6b2224",
            "0x0000000000000000000000000000000000000000000000000000000000000000",
            "0x00000000000000000000000099b0e95fa8f5c3b86e4d78ed715b475cfccf6e97"
          ],
          "data": "0x9f2df0fed2c77648de5860a4cc508cd0818c85b8b8a1ab4ceeef8d981c8956a6",
          "blockHash": "0x019ecf3442219b16404351566e12239cc793e9098fe1e21752ed98a3ed28efbd",
          "blockNumber": "0x76ff06",
          "transactionHash": "0x03f44432c1ad3f87897ff211cbb6b3179ea7e07b6415db97b68b949ff0aeca50",
          "transactionIndex": "0xa6",
          "logIndex": "0x9e",
          "removed": false
        }
      ],
      "logsBloom": "0x00000000000000000000000000000000000000000000000000000000000000000000000000000000100000000000000000000000040000000000000000000000000000000000001000000000000000000000000200000000000000000000000000080000020000000000000200000800000000000000000000000000002000000000000000000000000000000000000000000000000000000000000000000000000000000000000000000000000000000000000000000000000000000020000000000000000000000000000000000000000000000000000000000000000020000000000000000000000000000000000000000000000000000000000080000000",
      "type": "0x2",
      "transactionHash": "0x03f44432c1ad3f87897ff211cbb6b3179ea7e07b6415db97b68b949ff0aeca50",
      "transactionIndex": "0xa6",
      "blockHash": "0x019ecf3442219b16404351566e12239cc793e9098fe1e21752ed98a3ed28efbd",
      "blockNumber": "0x76ff06",
      "gasUsed": "0xcb16",
      "effectiveGasPrice": "0x10dd4a80d",
      "from": "0x99b0e95fa8f5c3b86e4d78ed715b475cfccf6e97",
      "to": "0x14c703522cbdf319dfcfba46425898adb748a130",
      "contractAddress": null
    },
    {
      "status": "0x1",
      "cumulativeGasUsed": "0xc0a628",
      "logs": [
        {
          "address": "0x14c703522cbdf319dfcfba46425898adb748a130",
          "topics": [
            "0xc9ba1b1f5a418274427c969ace813494ac92d03206cbee8cffb4ba8696f50736",
            "0x0000000000000000000000000000000000000000000000000000000000000000",
            "0x00000000000000000000000099b0e95fa8f5c3b86e4d78ed715b475cfccf6e97"
          ],
          "data": "0x3c11d16cbaffd01df69ce1c404f6340ee057498f5f00246190ea54220576a848",
          "blockHash": "0x5fed260da55fbc5d53399afbb78e8bda23056d0c1176cf6c944b8a27f5f3bd82",
          "blockNumber": "0x76ff07",
          "transactionHash": "0xeac452832032c9e308cc5b55b74db7d73c08a66c5aaa5685183759295ab0d2ee",
          "transactionIndex": "0x91",
          "logIndex": "0x87",
          "removed": false
        }
      ],
      "logsBloom": "0x00000000000000000000000000000000000000000000000000000000000000000000000000000000100080000000000000000000040000000000000000000000000000000000000000000000000000000000000000000000000000000000000000080000020000000000000200000800000000000000000000000000000000000000000000000000000000000000000000000000000000000000000000000000000000000000000000000000000000000000000000000000000000000020000000000000000000000000000000000000000200000000000000000000000020000000000000000000000000000000000000000020000000000000000080000000",
      "type": "0x2",
      "transactionHash": "0xeac452832032c9e308cc5b55b74db7d73c08a66c5aaa5685183759295ab0d2ee",
      "transactionIndex": "0x91",
      "blockHash": "0x5fed260da55fbc5d53399afbb78e8bda23056d0c1176cf6c944b8a27f5f3bd82",
      "blockNumber": "0x76ff07",
      "gasUsed": "0xdd8c",
      "effectiveGasPrice": "0x10e86f0bb",
      "from": "0x99b0e95fa8f5c3b86e4d78ed715b475cfccf6e97",
      "to": "0x14c703522cbdf319dfcfba46425898adb748a130",
      "contractAddress": null
    },
    {
      "status": "0x1",
      "cumulativeGasUsed": "0x6da3b3",
      "logs": [
        {
          "address": "0x14c703522cbdf319dfcfba46425898adb748a130",
          "topics": [
            "0x274dd4127a55dcb6f6c12ed38fec5007d965d2afffa8b0bc75c3dc8f3f6b2224",
            "0x0000000000000000000000000000000000000000000000000000000000000000",
            "0x00000000000000000000000099b0e95fa8f5c3b86e4d78ed715b475cfccf6e97"
          ],
          "data": "0x3c11d16cbaffd01df69ce1c404f6340ee057498f5f00246190ea54220576a848",
          "blockHash": "0x5d331207dd42ff5c22e506ba913b5f1e3a1c9ab520abbe1a838dfa0640d0ea61",
          "blockNumber": "0x76ff08",
          "transactionHash": "0xd82f9d59029f412d164d1fa9a7246398c67b2a9e6781d273f1c05da0781f08d0",
          "transactionIndex": "0x68",
          "logIndex": "0x63",
          "removed": false
        }
      ],
      "logsBloom": "0x00000000000000000000000000000000000000000000000000000000000000000000000000000000100000000000000000000000040000000000000000000000000000000000001000000000000000000000000200000000000000000000000000080000020000000000000200000800000000000000000000000000002000000000000000000000000000000000000000000000000000000000000000000000000000000000000000000000000000000000000000000000000000000020000000000000000000000000000000000000000000000000000000000000000020000000000000000000000000000000000000000000000000000000000080000000",
      "type": "0x2",
      "transactionHash": "0xd82f9d59029f412d164d1fa9a7246398c67b2a9e6781d273f1c05da0781f08d0",
      "transactionIndex": "0x68",
      "blockHash": "0x5d331207dd42ff5c22e506ba913b5f1e3a1c9ab520abbe1a838dfa0640d0ea61",
      "blockNumber": "0x76ff08",
      "gasUsed": "0xcb0a",
      "effectiveGasPrice": "0x112e4c656",
      "from": "0x99b0e95fa8f5c3b86e4d78ed715b475cfccf6e97",
      "to": "0x14c703522cbdf319dfcfba46425898adb748a130",
      "contractAddress": null
    },
    {
      "status": "0x1",
      "cumulativeGasUsed": "0x11ea550",
      "logs": [
        {
          "address": "0x14c703522cbdf319dfcfba46425898adb748a130",
          "topics": [
            "0xc9ba1b1f5a418274427c969ace813494ac92d03206cbee8cffb4ba8696f50736",
            "0x0000000000000000000000000000000000000000000000000000000000000000",
            "0x00000000000000000000000099b0e95fa8f5c3b86e4d78ed715b475cfccf6e97"
          ],
          "data": "0x92de27771f92d6942691d73358b3a4673e4880de8356f8f2cf452be87e02d363",
          "blockHash": "0x483b46bad62184f8ebf5017af64d31f7073870fc87647d2f943c20d39428e4a2",
          "blockNumber": "0x76ff09",
          "transactionHash": "0x2c1214624c675e3f084b2be99753997aedfe608000f42ee0c262d8cef7e6dd4c",
          "transactionIndex": "0xaf",
          "logIndex": "0xa6",
          "removed": false
        }
      ],
      "logsBloom": "0x00000000000000000000000000000000000000000000000000000000000000000000000000000000100080000000000000000000040000000000000000000000000000000000000000000000000000000000000000000000000000000000000000080000020000000000000200000800000000000000000000000000000000000000000000000000000000000000000000000000000000000000000000000000000000000000000000000000000000000000000000000000000000000020000000000000000000000000000000000000000200000000000000000000000020000000000000000000000000000000000000000020000000000000000080000000",
      "type": "0x2",
      "transactionHash": "0x2c1214624c675e3f084b2be99753997aedfe608000f42ee0c262d8cef7e6dd4c",
      "transactionIndex": "0xaf",
      "blockHash": "0x483b46bad62184f8ebf5017af64d31f7073870fc87647d2f943c20d39428e4a2",
      "blockNumber": "0x76ff09",
      "gasUsed": "0xdd98",
      "effectiveGasPrice": "0x103c51571",
      "from": "0x99b0e95fa8f5c3b86e4d78ed715b475cfccf6e97",
      "to": "0x14c703522cbdf319dfcfba46425898adb748a130",
      "contractAddress": null
    },
    {
      "status": "0x1",
      "cumulativeGasUsed": "0x103b788",
      "logs": [
        {
          "address": "0x14c703522cbdf319dfcfba46425898adb748a130",
          "topics": [
            "0x274dd4127a55dcb6f6c12ed38fec5007d965d2afffa8b0bc75c3dc8f3f6b2224",
            "0x0000000000000000000000000000000000000000000000000000000000000000",
            "0x00000000000000000000000099b0e95fa8f5c3b86e4d78ed715b475cfccf6e97"
          ],
          "data": "0x92de27771f92d6942691d73358b3a4673e4880de8356f8f2cf452be87e02d363",
          "blockHash": "0x7886b48be4b7fef3eaf7b693697b484d7f155b4ed2eb85feee1d97fa04421b0f",
          "blockNumber": "0x76ff0a",
          "transactionHash": "0xdd744451afcd4a2f1141ae3e86a6bd924309953a69844ca4ba0c1e35fde89764",
          "transactionIndex": "0xac",
          "logIndex": "0x84",
          "removed": false
        }
      ],
      "logsBloom": "0x00000000000000000000000000000000000000000000000000000000000000000000000000000000100000000000000000000000040000000000000000000000000000000000001000000000000000000000000200000000000000000000000000080000020000000000000200000800000000000000000000000000002000000000000000000000000000000000000000000000000000000000000000000000000000000000000000000000000000000000000000000000000000000020000000000000000000000000000000000000000000000000000000000000000020000000000000000000000000000000000000000000000000000000000080000000",
      "type": "0x2",
      "transactionHash": "0xdd744451afcd4a2f1141ae3e86a6bd924309953a69844ca4ba0c1e35fde89764",
      "transactionIndex": "0xac",
      "blockHash": "0x7886b48be4b7fef3eaf7b693697b484d7f155b4ed2eb85feee1d97fa04421b0f",
      "blockNumber": "0x76ff0a",
      "gasUsed": "0xcb16",
      "effectiveGasPrice": "0x106980cd6",
      "from": "0x99b0e95fa8f5c3b86e4d78ed715b475cfccf6e97",
      "to": "0x14c703522cbdf319dfcfba46425898adb748a130",
      "contractAddress": null
    },
    {
      "status": "0x1",
      "cumulativeGasUsed": "0xb65a17",
      "logs": [
        {
          "address": "0x14c703522cbdf319dfcfba46425898adb748a130",
          "topics": [
            "0xc9ba1b1f5a418274427c969ace813494ac92d03206cbee8cffb4ba8696f50736",
            "0x0000000000000000000000000000000000000000000000000000000000000000",
            "0x00000000000000000000000099b0e95fa8f5c3b86e4d78ed715b475cfccf6e97"
          ],
          "data": "0x65d7a28e3265b37a6474929f336521b332c1681b933f6cb9f3376673440d862a",
          "blockHash": "0x8dba88208d94d99bd700d2a651e9e62072db62457a08963dde35ad55d6ae194a",
          "blockNumber": "0x76ff0b",
          "transactionHash": "0x95db6b4b1ef653d43d4ec593b162e75374e11235f3d12201a4ef4836f0312f56",
          "transactionIndex": "0x82",
          "logIndex": "0x7e",
          "removed": false
        }
      ],
      "logsBloom": "0x00000000000000000000000000000000000000000000000000000000000000000000000000000000100080000000000000000000040000000000000000000000000000000000000000000000000000000000000000000000000000000000000000080000020000000000000200000800000000000000000000000000000000000000000000000000000000000000000000000000000000000000000000000000000000000000000000000000000000000000000000000000000000000020000000000000000000000000000000000000000200000000000000000000000020000000000000000000000000000000000000000020000000000000000080000000",
      "type": "0x2",
      "transactionHash": "0x95db6b4b1ef653d43d4ec593b162e75374e11235f3d12201a4ef4836f0312f56",
      "transactionIndex": "0x82",
      "blockHash": "0x8dba88208d94d99bd700d2a651e9e62072db62457a08963dde35ad55d6ae194a",
      "blockNumber": "0x76ff0b",
      "gasUsed": "0xdd98",
      "effectiveGasPrice": "0x106e6c254",
      "from": "0x99b0e95fa8f5c3b86e4d78ed715b475cfccf6e97",
      "to": "0x14c703522cbdf319dfcfba46425898adb748a130",
      "contractAddress": null
    },
    {
      "status": "0x1",
      "cumulativeGasUsed": "0x1294ffd",
      "logs": [
        {
          "address": "0x14c703522cbdf319dfcfba46425898adb748a130",
          "topics": [
            "0x274dd4127a55dcb6f6c12ed38fec5007d965d2afffa8b0bc75c3dc8f3f6b2224",
            "0x0000000000000000000000000000000000000000000000000000000000000000",
            "0x00000000000000000000000099b0e95fa8f5c3b86e4d78ed715b475cfccf6e97"
          ],
          "data": "0x65d7a28e3265b37a6474929f336521b332c1681b933f6cb9f3376673440d862a",
          "blockHash": "0xd95909f4e74a4545ebb3477ccab6f4da5b5a595e64501265f2f86305c3679e14",
          "blockNumber": "0x76ff0c",
          "transactionHash": "0x1f6af288860b4fda5ae524f81ea1c792edaec16ea905bd2655ca02e7854be258",
          "transactionIndex": "0x9f",
          "logIndex": "0xdd",
          "removed": false
        }
      ],
      "logsBloom": "0x00000000000000000000000000000000000000000000000000000000000000000000000000000000100000000000000000000000040000000000000000000000000000000000001000000000000000000000000200000000000000000000000000080000020000000000000200000800000000000000000000000000002000000000000000000000000000000000000000000000000000000000000000000000000000000000000000000000000000000000000000000000000000000020000000000000000000000000000000000000000000000000000000000000000020000000000000000000000000000000000000000000000000000000000080000000",
      "type": "0x2",
      "transactionHash": "0x1f6af288860b4fda5ae524f81ea1c792edaec16ea905bd2655ca02e7854be258",
      "transactionIndex": "0x9f",
      "blockHash": "0xd95909f4e74a4545ebb3477ccab6f4da5b5a595e64501265f2f86305c3679e14",
      "blockNumber": "0x76ff0c",
      "gasUsed": "0xcb16",
      "effectiveGasPrice": "0xfcf2a7ff",
      "from": "0x99b0e95fa8f5c3b86e4d78ed715b475cfccf6e97",
      "to": "0x14c703522cbdf319dfcfba46425898adb748a130",
      "contractAddress": null
    }
  ],
  "libraries": [],
  "pending": [],
  "returns": {},
  "timestamp": 1740683892,
  "chain": 11155111,
  "commit": "4f94ae5"
}