{
  "transactions": [
    {
      "hash": "0x04985cf3ce1d67df8b2c3b3f65332aa5286cb0289cd3ff663a295e816143cc86",
      "transactionType": "CALL",
      "contractName": null,
      "contractAddress": "0xa9012a055bd4e0edff8ce09f960291c09d5322dc",
      "function": "transferRole(bytes32,address)",
      "arguments": [
        "0x9f2df0fed2c77648de5860a4cc508cd0818c85b8b8a1ab4ceeef8d981c8956a6",
        "0x99B0E95Fa8F5C3b86e4d78ED715B475cFCcf6E97"
      ],
      "transaction": {
        "from": "0x99b0e95fa8f5c3b86e4d78ed715b475cfccf6e97",
        "to": "0xa9012a055bd4e0edff8ce09f960291c09d5322dc",
        "gas": "0xc6b3",
        "value": "0x0",
        "input": "0x9ee12c899f2df0fed2c77648de5860a4cc508cd0818c85b8b8a1ab4ceeef8d981c8956a600000000000000000000000099b0e95fa8f5c3b86e4d78ed715b475cfccf6e97",
        "nonce": "0x1d",
        "chainId": "0xa869"
      },
      "additionalContracts": [],
      "isFixedGasLimit": false
    },
    {
      "hash": "0xd5689970f5f76923def76d055f75310adf74b0de3ed85ef32f1f64f72de648f8",
      "transactionType": "CALL",
      "contractName": null,
      "contractAddress": "0xa9012a055bd4e0edff8ce09f960291c09d5322dc",
      "function": "acceptTransferRole(bytes32)",
      "arguments": [
        "0x9f2df0fed2c77648de5860a4cc508cd0818c85b8b8a1ab4ceeef8d981c8956a6"
      ],
      "transaction": {
        "from": "0x99b0e95fa8f5c3b86e4d78ed715b475cfccf6e97",
        "to": "0xa9012a055bd4e0edff8ce09f960291c09d5322dc",
        "gas": "0x11882",
        "value": "0x0",
        "input": "0x72ac04bb9f2df0fed2c77648de5860a4cc508cd0818c85b8b8a1ab4ceeef8d981c8956a6",
        "nonce": "0x1e",
        "chainId": "0xa869"
      },
      "additionalContracts": [],
      "isFixedGasLimit": false
    },
    {
      "hash": "0x3f60a132678ebbb29050e005df460c829e60642dde9dcddd6ab56fffe580e74b",
      "transactionType": "CALL",
      "contractName": null,
      "contractAddress": "0xa9012a055bd4e0edff8ce09f960291c09d5322dc",
      "function": "transferRole(bytes32,address)",
      "arguments": [
        "0x3c11d16cbaffd01df69ce1c404f6340ee057498f5f00246190ea54220576a848",
        "0x99B0E95Fa8F5C3b86e4d78ED715B475cFCcf6E97"
      ],
      "transaction": {
        "from": "0x99b0e95fa8f5c3b86e4d78ed715b475cfccf6e97",
        "to": "0xa9012a055bd4e0edff8ce09f960291c09d5322dc",
        "gas": "0x13202",
        "value": "0x0",
        "input": "0x9ee12c893c11d16cbaffd01df69ce1c404f6340ee057498f5f00246190ea54220576a84800000000000000000000000099b0e95fa8f5c3b86e4d78ed715b475cfccf6e97",
        "nonce": "0x1f",
        "chainId": "0xa869"
      },
      "additionalContracts": [],
      "isFixedGasLimit": false
    },
    {
      "hash": "0x529fc52ed893369aeebd048178d81c607239e1d615b9dc0a681fea4cd65bc8ed",
      "transactionType": "CALL",
      "contractName": null,
      "contractAddress": "0xa9012a055bd4e0edff8ce09f960291c09d5322dc",
      "function": "acceptTransferRole(bytes32)",
      "arguments": [
        "0x3c11d16cbaffd01df69ce1c404f6340ee057498f5f00246190ea54220576a848"
      ],
      "transaction": {
        "from": "0x99b0e95fa8f5c3b86e4d78ed715b475cfccf6e97",
        "to": "0xa9012a055bd4e0edff8ce09f960291c09d5322dc",
        "gas": "0x128f1",
        "value": "0x0",
        "input": "0x72ac04bb3c11d16cbaffd01df69ce1c404f6340ee057498f5f00246190ea54220576a848",
        "nonce": "0x20",
        "chainId": "0xa869"
      },
      "additionalContracts": [],
      "isFixedGasLimit": false
    },
    {
      "hash": "0xda22622a11d9bf9e936c2f66e8e709079bd56ecad0770e275eebd4563961eb5f",
      "transactionType": "CALL",
      "contractName": null,
      "contractAddress": "0xa9012a055bd4e0edff8ce09f960291c09d5322dc",
      "function": "transferRole(bytes32,address)",
      "arguments": [
        "0x92de27771f92d6942691d73358b3a4673e4880de8356f8f2cf452be87e02d363",
        "0x99B0E95Fa8F5C3b86e4d78ED715B475cFCcf6E97"
      ],
      "transaction": {
        "from": "0x99b0e95fa8f5c3b86e4d78ed715b475cfccf6e97",
        "to": "0xa9012a055bd4e0edff8ce09f960291c09d5322dc",
        "gas": "0x13212",
        "value": "0x0",
        "input": "0x9ee12c8992de27771f92d6942691d73358b3a4673e4880de8356f8f2cf452be87e02d36300000000000000000000000099b0e95fa8f5c3b86e4d78ed715b475cfccf6e97",
        "nonce": "0x21",
        "chainId": "0xa869"
      },
      "additionalContracts": [],
      "isFixedGasLimit": false
    },
    {
      "hash": "0x7a9ac380d9385978acf48fcd9695e1a67081f2b62708ec69414e211f11d49cc8",
      "transactionType": "CALL",
      "contractName": null,
      "contractAddress": "0xa9012a055bd4e0edff8ce09f960291c09d5322dc",
      "function": "acceptTransferRole(bytes32)",
      "arguments": [
        "0x92de27771f92d6942691d73358b3a4673e4880de8356f8f2cf452be87e02d363"
      ],
      "transaction": {
        "from": "0x99b0e95fa8f5c3b86e4d78ed715b475cfccf6e97",
        "to": "0xa9012a055bd4e0edff8ce09f960291c09d5322dc",
        "gas": "0x11882",
        "value": "0x0",
        "input": "0x72ac04bb92de27771f92d6942691d73358b3a4673e4880de8356f8f2cf452be87e02d363",
        "nonce": "0x22",
        "chainId": "0xa869"
      },
      "additionalContracts": [],
      "isFixedGasLimit": false
    },
    {
      "hash": "0xa9bba22fdefea994d36de324cf8d07fb09415dd4e3ab95f9a9d62c36c320da6f",
      "transactionType": "CALL",
      "contractName": null,
      "contractAddress": "0xa9012a055bd4e0edff8ce09f960291c09d5322dc",
      "function": "transferRole(bytes32,address)",
      "arguments": [
        "0x65d7a28e3265b37a6474929f336521b332c1681b933f6cb9f3376673440d862a",
        "0x99B0E95Fa8F5C3b86e4d78ED715B475cFCcf6E97"
      ],
      "transaction": {
        "from": "0x99b0e95fa8f5c3b86e4d78ed715b475cfccf6e97",
        "to": "0xa9012a055bd4e0edff8ce09f960291c09d5322dc",
        "gas": "0x13212",
        "value": "0x0",
        "input": "0x9ee12c8965d7a28e3265b37a6474929f336521b332c1681b933f6cb9f3376673440d862a00000000000000000000000099b0e95fa8f5c3b86e4d78ed715b475cfccf6e97",
        "nonce": "0x23",
        "chainId": "0xa869"
      },
      "additionalContracts": [],
      "isFixedGasLimit": false
    },
    {
      "hash": "0x5174e57391187333d11bc1a35d8f4c898e71a1a627ac4939890215bcee3cd235",
      "transactionType": "CALL",
      "contractName": null,
      "contractAddress": "0xa9012a055bd4e0edff8ce09f960291c09d5322dc",
      "function": "acceptTransferRole(bytes32)",
      "arguments": [
        "0x65d7a28e3265b37a6474929f336521b332c1681b933f6cb9f3376673440d862a"
      ],
      "transaction": {
        "from": "0x99b0e95fa8f5c3b86e4d78ed715b475cfccf6e97",
        "to": "0xa9012a055bd4e0edff8ce09f960291c09d5322dc",
        "gas": "0x11882",
        "value": "0x0",
        "input": "0x72ac04bb65d7a28e3265b37a6474929f336521b332c1681b933f6cb9f3376673440d862a",
        "nonce": "0x24",
        "chainId": "0xa869"
      },
      "additionalContracts": [],
      "isFixedGasLimit": false
    }
  ],
  "receipts": [
    {
      "status": "0x1",
      "cumulativeGasUsed": "0x8fdc",
      "logs": [
        {
          "address": "0xa9012a055bd4e0edff8ce09f960291c09d5322dc",
          "topics": [
            "0xc9ba1b1f5a418274427c969ace813494ac92d03206cbee8cffb4ba8696f50736",
            "0x0000000000000000000000000000000000000000000000000000000000000000",
            "0x00000000000000000000000099b0e95fa8f5c3b86e4d78ed715b475cfccf6e97"
          ],
          "data": "0x9f2df0fed2c77648de5860a4cc508cd0818c85b8b8a1ab4ceeef8d981c8956a6",
          "blockHash": "0x3b417e02a03bbf4ad5246bbcb450936fdb5f092fa684b1e0d71dd14b50e6d20c",
          "blockNumber": "0x249ca13",
          "transactionHash": "0x04985cf3ce1d67df8b2c3b3f65332aa5286cb0289cd3ff663a295e816143cc86",
          "transactionIndex": "0x0",
          "logIndex": "0x0",
          "removed": false
        }
      ],
      "logsBloom": "0x00000000000100000000000000000000000000000000000020000000000000000000000000000000000080000000000000000000040000000000000000000000000000000000000000000000000000000000000000000000000000000000000000080000020000000000000200000800000000000000000000000000000000000000000000000000000000000000000000000000000000000000000000020000000000000000000000000000000000000000000000000000000000000000000000000000000000000000000000000000000200000000000000000000000020000000000000000000000000000000000000000020000000000000000000000000",
      "type": "0x2",
      "transactionHash": "0x04985cf3ce1d67df8b2c3b3f65332aa5286cb0289cd3ff663a295e816143cc86",
      "transactionIndex": "0x0",
      "blockHash": "0x3b417e02a03bbf4ad5246bbcb450936fdb5f092fa684b1e0d71dd14b50e6d20c",
      "blockNumber": "0x249ca13",
      "gasUsed": "0x8fdc",
      "effectiveGasPrice": "0x3b9aca01",
      "from": "0x99b0e95fa8f5c3b86e4d78ed715b475cfccf6e97",
      "to": "0xa9012a055bd4e0edff8ce09f960291c09d5322dc",
      "contractAddress": null
    },
    {
      "status": "0x1",
      "cumulativeGasUsed": "0xddd6",
      "logs": [
        {
          "address": "0xa9012a055bd4e0edff8ce09f960291c09d5322dc",
          "topics": [
            "0x274dd4127a55dcb6f6c12ed38fec5007d965d2afffa8b0bc75c3dc8f3f6b2224",
            "0x0000000000000000000000000000000000000000000000000000000000000000",
            "0x00000000000000000000000099b0e95fa8f5c3b86e4d78ed715b475cfccf6e97"
          ],
          "data": "0x9f2df0fed2c77648de5860a4cc508cd0818c85b8b8a1ab4ceeef8d981c8956a6",
          "blockHash": "0xb53f8af1a25e52a90ae877ac43050c4dc4b80c0a18f810f99723aabde018f289",
          "blockNumber": "0x249ca16",
          "transactionHash": "0xd5689970f5f76923def76d055f75310adf74b0de3ed85ef32f1f64f72de648f8",
          "transactionIndex": "0x0",
          "logIndex": "0x0",
          "removed": false
        }
      ],
      "logsBloom": "0x00000000000100000000000000000000000000000000000020000000000000000000000000000000000000000000000000000000040000000000000000000000000000000000001000000000000000000000000200000000000000000000000000080000020000000000000200000800000000000000000000000000002000000000000000000000000000000000000000000000000000000000000000020000000000000000000000000000000000000000000000000000000000000000000000000000000000000000000000000000000000000000000000000000000020000000000000000000000000000000000000000000000000000000000000000000",
      "type": "0x2",
      "transactionHash": "0xd5689970f5f76923def76d055f75310adf74b0de3ed85ef32f1f64f72de648f8",
      "transactionIndex": "0x0",
      "blockHash": "0xb53f8af1a25e52a90ae877ac43050c4dc4b80c0a18f810f99723aabde018f289",
      "blockNumber": "0x249ca16",
      "gasUsed": "0xddd6",
      "effectiveGasPrice": "0x3b9aca01",
      "from": "0x99b0e95fa8f5c3b86e4d78ed715b475cfccf6e97",
      "to": "0xa9012a055bd4e0edff8ce09f960291c09d5322dc",
      "contractAddress": null
    },
    {
      "status": "0x1",
      "cumulativeGasUsed": "0xdd8c",
      "logs": [
        {
          "address": "0xa9012a055bd4e0edff8ce09f960291c09d5322dc",
          "topics": [
            "0xc9ba1b1f5a418274427c969ace813494ac92d03206cbee8cffb4ba8696f50736",
            "0x0000000000000000000000000000000000000000000000000000000000000000",
            "0x00000000000000000000000099b0e95fa8f5c3b86e4d78ed715b475cfccf6e97"
          ],
          "data": "0x3c11d16cbaffd01df69ce1c404f6340ee057498f5f00246190ea54220576a848",
          "blockHash": "0x0087236c2ca8cbf99c6810f4750f2030b6a3e25fbb3ad7f2d6c78b980d1969b7",
          "blockNumber": "0x249ca19",
          "transactionHash": "0x3f60a132678ebbb29050e005df460c829e60642dde9dcddd6ab56fffe580e74b",
          "transactionIndex": "0x0",
          "logIndex": "0x0",
          "removed": false
        }
      ],
      "logsBloom": "0x00000000000100000000000000000000000000000000000020000000000000000000000000000000000080000000000000000000040000000000000000000000000000000000000000000000000000000000000000000000000000000000000000080000020000000000000200000800000000000000000000000000000000000000000000000000000000000000000000000000000000000000000000020000000000000000000000000000000000000000000000000000000000000000000000000000000000000000000000000000000200000000000000000000000020000000000000000000000000000000000000000020000000000000000000000000",
      "type": "0x2",
      "transactionHash": "0x3f60a132678ebbb29050e005df460c829e60642dde9dcddd6ab56fffe580e74b",
      "transactionIndex": "0x0",
      "blockHash": "0x0087236c2ca8cbf99c6810f4750f2030b6a3e25fbb3ad7f2d6c78b980d1969b7",
      "blockNumber": "0x249ca19",
      "gasUsed": "0xdd8c",
      "effectiveGasPrice": "0x3b9aca01",
      "from": "0x99b0e95fa8f5c3b86e4d78ed715b475cfccf6e97",
      "to": "0xa9012a055bd4e0edff8ce09f960291c09d5322dc",
      "contractAddress": null
    },
    {
      "status": "0x1",
      "cumulativeGasUsed": "0xddca",
      "logs": [
        {
          "address": "0xa9012a055bd4e0edff8ce09f960291c09d5322dc",
          "topics": [
            "0x274dd4127a55dcb6f6c12ed38fec5007d965d2afffa8b0bc75c3dc8f3f6b2224",
            "0x0000000000000000000000000000000000000000000000000000000000000000",
            "0x00000000000000000000000099b0e95fa8f5c3b86e4d78ed715b475cfccf6e97"
          ],
          "data": "0x3c11d16cbaffd01df69ce1c404f6340ee057498f5f00246190ea54220576a848",
          "blockHash": "0x6d7ae51030bf83783970c6471d9d3756e9e30a95780d1d53aeb79ad538874fe5",
          "blockNumber": "0x249ca1b",
          "transactionHash": "0x529fc52ed893369aeebd048178d81c607239e1d615b9dc0a681fea4cd65bc8ed",
          "transactionIndex": "0x0",
          "logIndex": "0x0",
          "removed": false
        }
      ],
      "logsBloom": "0x00000000000100000000000000000000000000000000000020000000000000000000000000000000000000000000000000000000040000000000000000000000000000000000001000000000000000000000000200000000000000000000000000080000020000000000000200000800000000000000000000000000002000000000000000000000000000000000000000000000000000000000000000020000000000000000000000000000000000000000000000000000000000000000000000000000000000000000000000000000000000000000000000000000000020000000000000000000000000000000000000000000000000000000000000000000",
      "type": "0x2",
      "transactionHash": "0x529fc52ed893369aeebd048178d81c607239e1d615b9dc0a681fea4cd65bc8ed",
      "transactionIndex": "0x0",
      "blockHash": "0x6d7ae51030bf83783970c6471d9d3756e9e30a95780d1d53aeb79ad538874fe5",
      "blockNumber": "0x249ca1b",
      "gasUsed": "0xddca",
      "effectiveGasPrice": "0x3b9aca01",
      "from": "0x99b0e95fa8f5c3b86e4d78ed715b475cfccf6e97",
      "to": "0xa9012a055bd4e0edff8ce09f960291c09d5322dc",
      "contractAddress": null
    },
    {
      "status": "0x1",
      "cumulativeGasUsed": "0xdd98",
      "logs": [
        {
          "address": "0xa9012a055bd4e0edff8ce09f960291c09d5322dc",
          "topics": [
            "0xc9ba1b1f5a418274427c969ace813494ac92d03206cbee8cffb4ba8696f50736",
            "0x0000000000000000000000000000000000000000000000000000000000000000",
            "0x00000000000000000000000099b0e95fa8f5c3b86e4d78ed715b475cfccf6e97"
          ],
          "data": "0x92de27771f92d6942691d73358b3a4673e4880de8356f8f2cf452be87e02d363",
          "blockHash": "0x487f80f88771480ebd8949101168bcfabfcdef24ba61d793a2aa499a13ab5c62",
          "blockNumber": "0x249ca1e",
          "transactionHash": "0xda22622a11d9bf9e936c2f66e8e709079bd56ecad0770e275eebd4563961eb5f",
          "transactionIndex": "0x0",
          "logIndex": "0x0",
          "removed": false
        }
      ],
      "logsBloom": "0x00000000000100000000000000000000000000000000000020000000000000000000000000000000000080000000000000000000040000000000000000000000000000000000000000000000000000000000000000000000000000000000000000080000020000000000000200000800000000000000000000000000000000000000000000000000000000000000000000000000000000000000000000020000000000000000000000000000000000000000000000000000000000000000000000000000000000000000000000000000000200000000000000000000000020000000000000000000000000000000000000000020000000000000000000000000",
      "type": "0x2",
      "transactionHash": "0xda22622a11d9bf9e936c2f66e8e709079bd56ecad0770e275eebd4563961eb5f",
      "transactionIndex": "0x0",
      "blockHash": "0x487f80f88771480ebd8949101168bcfabfcdef24ba61d793a2aa499a13ab5c62",
      "blockNumber": "0x249ca1e",
      "gasUsed": "0xdd98",
      "effectiveGasPrice": "0x3b9aca01",
      "from": "0x99b0e95fa8f5c3b86e4d78ed715b475cfccf6e97",
      "to": "0xa9012a055bd4e0edff8ce09f960291c09d5322dc",
      "contractAddress": null
    },
    {
      "status": "0x1",
      "cumulativeGasUsed": "0xddd6",
      "logs": [
        {
          "address": "0xa9012a055bd4e0edff8ce09f960291c09d5322dc",
          "topics": [
            "0x274dd4127a55dcb6f6c12ed38fec5007d965d2afffa8b0bc75c3dc8f3f6b2224",
            "0x0000000000000000000000000000000000000000000000000000000000000000",
            "0x00000000000000000000000099b0e95fa8f5c3b86e4d78ed715b475cfccf6e97"
          ],
          "data": "0x92de27771f92d6942691d73358b3a4673e4880de8356f8f2cf452be87e02d363",
          "blockHash": "0x6284be056d99f2a062fe0082b75cc0c77d9ab169859c02914d7b8ec730fca47f",
          "blockNumber": "0x249ca21",
          "transactionHash": "0x7a9ac380d9385978acf48fcd9695e1a67081f2b62708ec69414e211f11d49cc8",
          "transactionIndex": "0x0",
          "logIndex": "0x0",
          "removed": false
        }
      ],
      "logsBloom": "0x00000000000100000000000000000000000000000000000020000000000000000000000000000000000000000000000000000000040000000000000000000000000000000000001000000000000000000000000200000000000000000000000000080000020000000000000200000800000000000000000000000000002000000000000000000000000000000000000000000000000000000000000000020000000000000000000000000000000000000000000000000000000000000000000000000000000000000000000000000000000000000000000000000000000020000000000000000000000000000000000000000000000000000000000000000000",
      "type": "0x2",
      "transactionHash": "0x7a9ac380d9385978acf48fcd9695e1a67081f2b62708ec69414e211f11d49cc8",
      "transactionIndex": "0x0",
      "blockHash": "0x6284be056d99f2a062fe0082b75cc0c77d9ab169859c02914d7b8ec730fca47f",
      "blockNumber": "0x249ca21",
      "gasUsed": "0xddd6",
      "effectiveGasPrice": "0x3b9aca01",
      "from": "0x99b0e95fa8f5c3b86e4d78ed715b475cfccf6e97",
      "to": "0xa9012a055bd4e0edff8ce09f960291c09d5322dc",
      "contractAddress": null
    },
    {
      "status": "0x1",
      "cumulativeGasUsed": "0xdd98",
      "logs": [
        {
          "address": "0xa9012a055bd4e0edff8ce09f960291c09d5322dc",
          "topics": [
            "0xc9ba1b1f5a418274427c969ace813494ac92d03206cbee8cffb4ba8696f50736",
            "0x0000000000000000000000000000000000000000000000000000000000000000",
            "0x00000000000000000000000099b0e95fa8f5c3b86e4d78ed715b475cfccf6e97"
          ],
          "data": "0x65d7a28e3265b37a6474929f336521b332c1681b933f6cb9f3376673440d862a",
          "blockHash": "0xe326e43c2a7d103e34298e2236a4004e7aa9f61ff29d88c2ba71bb2164422536",
          "blockNumber": "0x249ca26",
          "transactionHash": "0xa9bba22fdefea994d36de324cf8d07fb09415dd4e3ab95f9a9d62c36c320da6f",
          "transactionIndex": "0x0",
          "logIndex": "0x0",
          "removed": false
        }
      ],
      "logsBloom": "0x00000000000100000000000000000000000000000000000020000000000000000000000000000000000080000000000000000000040000000000000000000000000000000000000000000000000000000000000000000000000000000000000000080000020000000000000200000800000000000000000000000000000000000000000000000000000000000000000000000000000000000000000000020000000000000000000000000000000000000000000000000000000000000000000000000000000000000000000000000000000200000000000000000000000020000000000000000000000000000000000000000020000000000000000000000000",
      "type": "0x2",
      "transactionHash": "0xa9bba22fdefea994d36de324cf8d07fb09415dd4e3ab95f9a9d62c36c320da6f",
      "transactionIndex": "0x0",
      "blockHash": "0xe326e43c2a7d103e34298e2236a4004e7aa9f61ff29d88c2ba71bb2164422536",
      "blockNumber": "0x249ca26",
      "gasUsed": "0xdd98",
      "effectiveGasPrice": "0x3b9aca01",
      "from": "0x99b0e95fa8f5c3b86e4d78ed715b475cfccf6e97",
      "to": "0xa9012a055bd4e0edff8ce09f960291c09d5322dc",
      "contractAddress": null
    },
    {
      "status": "0x1",
      "cumulativeGasUsed": "0xddd6",
      "logs": [
        {
          "address": "0xa9012a055bd4e0edff8ce09f960291c09d5322dc",
          "topics": [
            "0x274dd4127a55dcb6f6c12ed38fec5007d965d2afffa8b0bc75c3dc8f3f6b2224",
            "0x0000000000000000000000000000000000000000000000000000000000000000",
            "0x00000000000000000000000099b0e95fa8f5c3b86e4d78ed715b475cfccf6e97"
          ],
          "data": "0x65d7a28e3265b37a6474929f336521b332c1681b933f6cb9f3376673440d862a",
          "blockHash": "0x1a904d496240dbacb874a3f6104f0bea41dabea79d771e3dd64cae5204e3c79b",
          "blockNumber": "0x249ca28",
          "transactionHash": "0x5174e57391187333d11bc1a35d8f4c898e71a1a627ac4939890215bcee3cd235",
          "transactionIndex": "0x0",
          "logIndex": "0x0",
          "removed": false
        }
      ],
      "logsBloom": "0x00000000000100000000000000000000000000000000000020000000000000000000000000000000000000000000000000000000040000000000000000000000000000000000001000000000000000000000000200000000000000000000000000080000020000000000000200000800000000000000000000000000002000000000000000000000000000000000000000000000000000000000000000020000000000000000000000000000000000000000000000000000000000000000000000000000000000000000000000000000000000000000000000000000000020000000000000000000000000000000000000000000000000000000000000000000",
      "type": "0x2",
      "transactionHash": "0x5174e57391187333d11bc1a35d8f4c898e71a1a627ac4939890215bcee3cd235",
      "transactionIndex": "0x0",
      "blockHash": "0x1a904d496240dbacb874a3f6104f0bea41dabea79d771e3dd64cae5204e3c79b",
      "blockNumber": "0x249ca28",
      "gasUsed": "0xddd6",
      "effectiveGasPrice": "0x3b9aca01",
      "from": "0x99b0e95fa8f5c3b86e4d78ed715b475cfccf6e97",
      "to": "0xa9012a055bd4e0edff8ce09f960291c09d5322dc",
      "contractAddress": null
    }
  ],
  "libraries": [],
  "pending": [],
  "returns": {},
  "timestamp": 1741123344,
  "chain": 43113,
  "commit": "1f76be6"
}