{
  "transactions": [
    {
      "hash": "0xaa532b05a954f5037e0e7a64246a571ae04526233e162f1c0ee6064eb136956f",
      "transactionType": "CALL",
      "contractName": null,
      "contractAddress": "0x8b52c234c4064ef31c90f3e42b0aa8c75d42a5ad",
      "function": "transferRole(bytes32,address)",
      "arguments": [
        "0x9f2df0fed2c77648de5860a4cc508cd0818c85b8b8a1ab4ceeef8d981c8956a6",
        "0x99B0E95Fa8F5C3b86e4d78ED715B475cFCcf6E97"
      ],
      "transaction": {
        "from": "0x99b0e95fa8f5c3b86e4d78ed715b475cfccf6e97",
        "to": "0x8b52c234c4064ef31c90f3e42b0aa8c75d42a5ad",
        "gas": "0xc6b3",
        "value": "0x0",
        "input": "0x9ee12c899f2df0fed2c77648de5860a4cc508cd0818c85b8b8a1ab4ceeef8d981c8956a600000000000000000000000099b0e95fa8f5c3b86e4d78ed715b475cfccf6e97",
        "nonce": "0x2",
        "chainId": "0xa869"
      },
      "additionalContracts": [],
      "isFixedGasLimit": false
    },
    {
      "hash": "0x2607be70dfa39fc7dd2840902778ebc68c2c674cab70f96961be69a4c67daa74",
      "transactionType": "CALL",
      "contractName": null,
      "contractAddress": "0x8b52c234c4064ef31c90f3e42b0aa8c75d42a5ad",
      "function": "acceptTransferRole(bytes32)",
      "arguments": [
        "0x9f2df0fed2c77648de5860a4cc508cd0818c85b8b8a1ab4ceeef8d981c8956a6"
      ],
      "transaction": {
        "from": "0x99b0e95fa8f5c3b86e4d78ed715b475cfccf6e97",
        "to": "0x8b52c234c4064ef31c90f3e42b0aa8c75d42a5ad",
        "gas": "0x11882",
        "value": "0x0",
        "input": "0x72ac04bb9f2df0fed2c77648de5860a4cc508cd0818c85b8b8a1ab4ceeef8d981c8956a6",
        "nonce": "0x3",
        "chainId": "0xa869"
      },
      "additionalContracts": [],
      "isFixedGasLimit": false
    },
    {
      "hash": "0xf0fb02c1242822ae598b78a306e60318e8d734d2e564e475b0d8d1b715321fed",
      "transactionType": "CALL",
      "contractName": null,
      "contractAddress": "0x8b52c234c4064ef31c90f3e42b0aa8c75d42a5ad",
      "function": "transferRole(bytes32,address)",
      "arguments": [
        "0x3c11d16cbaffd01df69ce1c404f6340ee057498f5f00246190ea54220576a848",
        "0x99B0E95Fa8F5C3b86e4d78ED715B475cFCcf6E97"
      ],
      "transaction": {
        "from": "0x99b0e95fa8f5c3b86e4d78ed715b475cfccf6e97",
        "to": "0x8b52c234c4064ef31c90f3e42b0aa8c75d42a5ad",
        "gas": "0x13202",
        "value": "0x0",
        "input": "0x9ee12c893c11d16cbaffd01df69ce1c404f6340ee057498f5f00246190ea54220576a84800000000000000000000000099b0e95fa8f5c3b86e4d78ed715b475cfccf6e97",
        "nonce": "0x4",
        "chainId": "0xa869"
      },
      "additionalContracts": [],
      "isFixedGasLimit": false
    },
    {
      "hash": "0xa9c7f72f5eb477539475ab9acad6537cb662af03e9ebea2cab02cbd8d3eca528",
      "transactionType": "CALL",
      "contractName": null,
      "contractAddress": "0x8b52c234c4064ef31c90f3e42b0aa8c75d42a5ad",
      "function": "acceptTransferRole(bytes32)",
      "arguments": [
        "0x3c11d16cbaffd01df69ce1c404f6340ee057498f5f00246190ea54220576a848"
      ],
      "transaction": {
        "from": "0x99b0e95fa8f5c3b86e4d78ed715b475cfccf6e97",
        "to": "0x8b52c234c4064ef31c90f3e42b0aa8c75d42a5ad",
        "gas": "0x128f1",
        "value": "0x0",
        "input": "0x72ac04bb3c11d16cbaffd01df69ce1c404f6340ee057498f5f00246190ea54220576a848",
        "nonce": "0x5",
        "chainId": "0xa869"
      },
      "additionalContracts": [],
      "isFixedGasLimit": false
    },
    {
      "hash": "0xe8f7a1ae2900505ca7eac13404b2a86c6b3fd2a5bde8e9d447f88bd7fc54706d",
      "transactionType": "CALL",
      "contractName": null,
      "contractAddress": "0x8b52c234c4064ef31c90f3e42b0aa8c75d42a5ad",
      "function": "transferRole(bytes32,address)",
      "arguments": [
        "0x92de27771f92d6942691d73358b3a4673e4880de8356f8f2cf452be87e02d363",
        "0x99B0E95Fa8F5C3b86e4d78ED715B475cFCcf6E97"
      ],
      "transaction": {
        "from": "0x99b0e95fa8f5c3b86e4d78ed715b475cfccf6e97",
        "to": "0x8b52c234c4064ef31c90f3e42b0aa8c75d42a5ad",
        "gas": "0x13212",
        "value": "0x0",
        "input": "0x9ee12c8992de27771f92d6942691d73358b3a4673e4880de8356f8f2cf452be87e02d36300000000000000000000000099b0e95fa8f5c3b86e4d78ed715b475cfccf6e97",
        "nonce": "0x6",
        "chainId": "0xa869"
      },
      "additionalContracts": [],
      "isFixedGasLimit": false
    },
    {
      "hash": "0x1e7816165bf33330e9bad5c97a0cf5fa06eb26bcec6ee6ee5694ef43f860ce5e",
      "transactionType": "CALL",
      "contractName": null,
      "contractAddress": "0x8b52c234c4064ef31c90f3e42b0aa8c75d42a5ad",
      "function": "acceptTransferRole(bytes32)",
      "arguments": [
        "0x92de27771f92d6942691d73358b3a4673e4880de8356f8f2cf452be87e02d363"
      ],
      "transaction": {
        "from": "0x99b0e95fa8f5c3b86e4d78ed715b475cfccf6e97",
        "to": "0x8b52c234c4064ef31c90f3e42b0aa8c75d42a5ad",
        "gas": "0x11882",
        "value": "0x0",
        "input": "0x72ac04bb92de27771f92d6942691d73358b3a4673e4880de8356f8f2cf452be87e02d363",
        "nonce": "0x7",
        "chainId": "0xa869"
      },
      "additionalContracts": [],
      "isFixedGasLimit": false
    },
    {
      "hash": "0x797ca92b231718a4eeaea053e4894c276ef5b92951b52c0b7ee5fc9fa5545b1c",
      "transactionType": "CALL",
      "contractName": null,
      "contractAddress": "0x8b52c234c4064ef31c90f3e42b0aa8c75d42a5ad",
      "function": "transferRole(bytes32,address)",
      "arguments": [
        "0x65d7a28e3265b37a6474929f336521b332c1681b933f6cb9f3376673440d862a",
        "0x99B0E95Fa8F5C3b86e4d78ED715B475cFCcf6E97"
      ],
      "transaction": {
        "from": "0x99b0e95fa8f5c3b86e4d78ed715b475cfccf6e97",
        "to": "0x8b52c234c4064ef31c90f3e42b0aa8c75d42a5ad",
        "gas": "0x13212",
        "value": "0x0",
        "input": "0x9ee12c8965d7a28e3265b37a6474929f336521b332c1681b933f6cb9f3376673440d862a00000000000000000000000099b0e95fa8f5c3b86e4d78ed715b475cfccf6e97",
        "nonce": "0x8",
        "chainId": "0xa869"
      },
      "additionalContracts": [],
      "isFixedGasLimit": false
    },
    {
      "hash": "0x721b03a71850b5d570af305290849217d4ed87b3dd5e30dd6331dc39accaec96",
      "transactionType": "CALL",
      "contractName": null,
      "contractAddress": "0x8b52c234c4064ef31c90f3e42b0aa8c75d42a5ad",
      "function": "acceptTransferRole(bytes32)",
      "arguments": [
        "0x65d7a28e3265b37a6474929f336521b332c1681b933f6cb9f3376673440d862a"
      ],
      "transaction": {
        "from": "0x99b0e95fa8f5c3b86e4d78ed715b475cfccf6e97",
        "to": "0x8b52c234c4064ef31c90f3e42b0aa8c75d42a5ad",
        "gas": "0x11882",
        "value": "0x0",
        "input": "0x72ac04bb65d7a28e3265b37a6474929f336521b332c1681b933f6cb9f3376673440d862a",
        "nonce": "0x9",
        "chainId": "0xa869"
      },
      "additionalContracts": [],
      "isFixedGasLimit": false
    }
  ],
  "receipts": [
    {
      "status": "0x1",
      "cumulativeGasUsed": "0x8fdc",
      "logs": [
        {
          "address": "0x8b52c234c4064ef31c90f3e42b0aa8c75d42a5ad",
          "topics": [
            "0xc9ba1b1f5a418274427c969ace813494ac92d03206cbee8cffb4ba8696f50736",
            "0x0000000000000000000000000000000000000000000000000000000000000000",
            "0x00000000000000000000000099b0e95fa8f5c3b86e4d78ed715b475cfccf6e97"
          ],
          "data": "0x9f2df0fed2c77648de5860a4cc508cd0818c85b8b8a1ab4ceeef8d981c8956a6",
          "blockHash": "0x5ad3e0f7b3c5d77221f8f01b86818b26c3a675bb89424fe239b6287e16550298",
          "blockNumber": "0x24855e8",
          "transactionHash": "0xaa532b05a954f5037e0e7a64246a571ae04526233e162f1c0ee6064eb136956f",
          "transactionIndex": "0x0",
          "logIndex": "0x0",
          "removed": false
        }
      ],
      "logsBloom": "0x00400000000000000000000000000000000000000000000000000000000000000000000000000000000080000000000000000000040000000000000000000000000000000000000000000000000000000000000000000000000000000000000000080000020000000000000200000800000000000000000000000000000000000000000000000000000000000000000000000000000000100000000000004000000000000000000000000000000000000000000000000000000000000000000000000000000000000000000000000000000200000000000000000000000020000000000000000000000000000000000000000020000000000000000000000000",
      "type": "0x2",
      "transactionHash": "0xaa532b05a954f5037e0e7a64246a571ae04526233e162f1c0ee6064eb136956f",
      "transactionIndex": "0x0",
      "blockHash": "0x5ad3e0f7b3c5d77221f8f01b86818b26c3a675bb89424fe239b6287e16550298",
      "blockNumber": "0x24855e8",
      "gasUsed": "0x8fdc",
      "effectiveGasPrice": "0xbc59c600",
      "from": "0x99b0e95fa8f5c3b86e4d78ed715b475cfccf6e97",
      "to": "0x8b52c234c4064ef31c90f3e42b0aa8c75d42a5ad",
      "contractAddress": null
    },
    {
      "status": "0x1",
      "cumulativeGasUsed": "0xddd6",
      "logs": [
        {
          "address": "0x8b52c234c4064ef31c90f3e42b0aa8c75d42a5ad",
          "topics": [
            "0x274dd4127a55dcb6f6c12ed38fec5007d965d2afffa8b0bc75c3dc8f3f6b2224",
            "0x0000000000000000000000000000000000000000000000000000000000000000",
            "0x00000000000000000000000099b0e95fa8f5c3b86e4d78ed715b475cfccf6e97"
          ],
          "data": "0x9f2df0fed2c77648de5860a4cc508cd0818c85b8b8a1ab4ceeef8d981c8956a6",
          "blockHash": "0xcf6fc061e460cc64d806709ce651b57ceb3d077dd9b47f0040325993db22977b",
          "blockNumber": "0x24855eb",
          "transactionHash": "0x2607be70dfa39fc7dd2840902778ebc68c2c674cab70f96961be69a4c67daa74",
          "transactionIndex": "0x0",
          "logIndex": "0x0",
          "removed": false
        }
      ],
      "logsBloom": "0x00400000000000000000000000000000000000000000000000000000000000000000000000000000000000000000000000000000040000000000000000000000000000000000001000000000000000000000000200000000000000000000000000080000020000000000000200000800000000000000000000000000002000000000000000000000000000000000000000000000000000100000000000004000000000000000000000000000000000000000000000000000000000000000000000000000000000000000000000000000000000000000000000000000000020000000000000000000000000000000000000000000000000000000000000000000",
      "type": "0x2",
      "transactionHash": "0x2607be70dfa39fc7dd2840902778ebc68c2c674cab70f96961be69a4c67daa74",
      "transactionIndex": "0x0",
      "blockHash": "0xcf6fc061e460cc64d806709ce651b57ceb3d077dd9b47f0040325993db22977b",
      "blockNumber": "0x24855eb",
      "gasUsed": "0xddd6",
      "effectiveGasPrice": "0xbc59c600",
      "from": "0x99b0e95fa8f5c3b86e4d78ed715b475cfccf6e97",
      "to": "0x8b52c234c4064ef31c90f3e42b0aa8c75d42a5ad",
      "contractAddress": null
    },
    {
      "status": "0x1",
      "cumulativeGasUsed": "0xdd8c",
      "logs": [
        {
          "address": "0x8b52c234c4064ef31c90f3e42b0aa8c75d42a5ad",
          "topics": [
            "0xc9ba1b1f5a418274427c969ace813494ac92d03206cbee8cffb4ba8696f50736",
            "0x0000000000000000000000000000000000000000000000000000000000000000",
            "0x00000000000000000000000099b0e95fa8f5c3b86e4d78ed715b475cfccf6e97"
          ],
          "data": "0x3c11d16cbaffd01df69ce1c404f6340ee057498f5f00246190ea54220576a848",
          "blockHash": "0x06c24ab9bd25ceb0cf8a0d2c38622a8e69c685587405271fc26e6d1751b484c0",
          "blockNumber": "0x24855ef",
          "transactionHash": "0xf0fb02c1242822ae598b78a306e60318e8d734d2e564e475b0d8d1b715321fed",
          "transactionIndex": "0x0",
          "logIndex": "0x0",
          "removed": false
        }
      ],
      "logsBloom": "0x00400000000000000000000000000000000000000000000000000000000000000000000000000000000080000000000000000000040000000000000000000000000000000000000000000000000000000000000000000000000000000000000000080000020000000000000200000800000000000000000000000000000000000000000000000000000000000000000000000000000000100000000000004000000000000000000000000000000000000000000000000000000000000000000000000000000000000000000000000000000200000000000000000000000020000000000000000000000000000000000000000020000000000000000000000000",
      "type": "0x2",
      "transactionHash": "0xf0fb02c1242822ae598b78a306e60318e8d734d2e564e475b0d8d1b715321fed",
      "transactionIndex": "0x0",
      "blockHash": "0x06c24ab9bd25ceb0cf8a0d2c38622a8e69c685587405271fc26e6d1751b484c0",
      "blockNumber": "0x24855ef",
      "gasUsed": "0xdd8c",
      "effectiveGasPrice": "0xbc59c600",
      "from": "0x99b0e95fa8f5c3b86e4d78ed715b475cfccf6e97",
      "to": "0x8b52c234c4064ef31c90f3e42b0aa8c75d42a5ad",
      "contractAddress": null
    },
    {
      "status": "0x1",
      "cumulativeGasUsed": "0xddca",
      "logs": [
        {
          "address": "0x8b52c234c4064ef31c90f3e42b0aa8c75d42a5ad",
          "topics": [
            "0x274dd4127a55dcb6f6c12ed38fec5007d965d2afffa8b0bc75c3dc8f3f6b2224",
            "0x0000000000000000000000000000000000000000000000000000000000000000",
            "0x00000000000000000000000099b0e95fa8f5c3b86e4d78ed715b475cfccf6e97"
          ],
          "data": "0x3c11d16cbaffd01df69ce1c404f6340ee057498f5f00246190ea54220576a848",
          "blockHash": "0x81b2443960fa07af19e4ff8566ab072ef9bc016d3988a263fb4e0a3b88c07586",
          "blockNumber": "0x24855f2",
          "transactionHash": "0xa9c7f72f5eb477539475ab9acad6537cb662af03e9ebea2cab02cbd8d3eca528",
          "transactionIndex": "0x0",
          "logIndex": "0x0",
          "removed": false
        }
      ],
      "logsBloom": "0x00400000000000000000000000000000000000000000000000000000000000000000000000000000000000000000000000000000040000000000000000000000000000000000001000000000000000000000000200000000000000000000000000080000020000000000000200000800000000000000000000000000002000000000000000000000000000000000000000000000000000100000000000004000000000000000000000000000000000000000000000000000000000000000000000000000000000000000000000000000000000000000000000000000000020000000000000000000000000000000000000000000000000000000000000000000",
      "type": "0x2",
      "transactionHash": "0xa9c7f72f5eb477539475ab9acad6537cb662af03e9ebea2cab02cbd8d3eca528",
      "transactionIndex": "0x0",
      "blockHash": "0x81b2443960fa07af19e4ff8566ab072ef9bc016d3988a263fb4e0a3b88c07586",
      "blockNumber": "0x24855f2",
      "gasUsed": "0xddca",
      "effectiveGasPrice": "0xbc59c600",
      "from": "0x99b0e95fa8f5c3b86e4d78ed715b475cfccf6e97",
      "to": "0x8b52c234c4064ef31c90f3e42b0aa8c75d42a5ad",
      "contractAddress": null
    },
    {
      "status": "0x1",
      "cumulativeGasUsed": "0xdd98",
      "logs": [
        {
          "address": "0x8b52c234c4064ef31c90f3e42b0aa8c75d42a5ad",
          "topics": [
            "0xc9ba1b1f5a418274427c969ace813494ac92d03206cbee8cffb4ba8696f50736",
            "0x0000000000000000000000000000000000000000000000000000000000000000",
            "0x00000000000000000000000099b0e95fa8f5c3b86e4d78ed715b475cfccf6e97"
          ],
          "data": "0x92de27771f92d6942691d73358b3a4673e4880de8356f8f2cf452be87e02d363",
          "blockHash": "0xf7ab5874b0c16478b1a9e7a75233538cd84a5dc122c8f828be59b3957cde3a99",
          "blockNumber": "0x24855f5",
          "transactionHash": "0xe8f7a1ae2900505ca7eac13404b2a86c6b3fd2a5bde8e9d447f88bd7fc54706d",
          "transactionIndex": "0x0",
          "logIndex": "0x0",
          "removed": false
        }
      ],
      "logsBloom": "0x00400000000000000000000000000000000000000000000000000000000000000000000000000000000080000000000000000000040000000000000000000000000000000000000000000000000000000000000000000000000000000000000000080000020000000000000200000800000000000000000000000000000000000000000000000000000000000000000000000000000000100000000000004000000000000000000000000000000000000000000000000000000000000000000000000000000000000000000000000000000200000000000000000000000020000000000000000000000000000000000000000020000000000000000000000000",
      "type": "0x2",
      "transactionHash": "0xe8f7a1ae2900505ca7eac13404b2a86c6b3fd2a5bde8e9d447f88bd7fc54706d",
      "transactionIndex": "0x0",
      "blockHash": "0xf7ab5874b0c16478b1a9e7a75233538cd84a5dc122c8f828be59b3957cde3a99",
      "blockNumber": "0x24855f5",
      "gasUsed": "0xdd98",
      "effectiveGasPrice": "0xbc59c600",
      "from": "0x99b0e95fa8f5c3b86e4d78ed715b475cfccf6e97",
      "to": "0x8b52c234c4064ef31c90f3e42b0aa8c75d42a5ad",
      "contractAddress": null
    },
    {
      "status": "0x1",
      "cumulativeGasUsed": "0xddd6",
      "logs": [
        {
          "address": "0x8b52c234c4064ef31c90f3e42b0aa8c75d42a5ad",
          "topics": [
            "0x274dd4127a55dcb6f6c12ed38fec5007d965d2afffa8b0bc75c3dc8f3f6b2224",
            "0x0000000000000000000000000000000000000000000000000000000000000000",
            "0x00000000000000000000000099b0e95fa8f5c3b86e4d78ed715b475cfccf6e97"
          ],
          "data": "0x92de27771f92d6942691d73358b3a4673e4880de8356f8f2cf452be87e02d363",
          "blockHash": "0xe94f086db79f4e00298847af064d21636716c9ca2120218e9d485a2398e1a03b",
          "blockNumber": "0x24855f6",
          "transactionHash": "0x1e7816165bf33330e9bad5c97a0cf5fa06eb26bcec6ee6ee5694ef43f860ce5e",
          "transactionIndex": "0x0",
          "logIndex": "0x0",
          "removed": false
        }
      ],
      "logsBloom": "0x00400000000000000000000000000000000000000000000000000000000000000000000000000000000000000000000000000000040000000000000000000000000000000000001000000000000000000000000200000000000000000000000000080000020000000000000200000800000000000000000000000000002000000000000000000000000000000000000000000000000000100000000000004000000000000000000000000000000000000000000000000000000000000000000000000000000000000000000000000000000000000000000000000000000020000000000000000000000000000000000000000000000000000000000000000000",
      "type": "0x2",
      "transactionHash": "0x1e7816165bf33330e9bad5c97a0cf5fa06eb26bcec6ee6ee5694ef43f860ce5e",
      "transactionIndex": "0x0",
      "blockHash": "0xe94f086db79f4e00298847af064d21636716c9ca2120218e9d485a2398e1a03b",
      "blockNumber": "0x24855f6",
      "gasUsed": "0xddd6",
      "effectiveGasPrice": "0xbc59c600",
      "from": "0x99b0e95fa8f5c3b86e4d78ed715b475cfccf6e97",
      "to": "0x8b52c234c4064ef31c90f3e42b0aa8c75d42a5ad",
      "contractAddress": null
    },
    {
      "status": "0x1",
      "cumulativeGasUsed": "0xdd98",
      "logs": [
        {
          "address": "0x8b52c234c4064ef31c90f3e42b0aa8c75d42a5ad",
          "topics": [
            "0xc9ba1b1f5a418274427c969ace813494ac92d03206cbee8cffb4ba8696f50736",
            "0x0000000000000000000000000000000000000000000000000000000000000000",
            "0x00000000000000000000000099b0e95fa8f5c3b86e4d78ed715b475cfccf6e97"
          ],
          "data": "0x65d7a28e3265b37a6474929f336521b332c1681b933f6cb9f3376673440d862a",
          "blockHash": "0x0dc2603189bc692d21e932a248b085070a30490a3dcb5159146ea25eadd55ac7",
          "blockNumber": "0x24855f8",
          "transactionHash": "0x797ca92b231718a4eeaea053e4894c276ef5b92951b52c0b7ee5fc9fa5545b1c",
          "transactionIndex": "0x0",
          "logIndex": "0x0",
          "removed": false
        }
      ],
      "logsBloom": "0x00400000000000000000000000000000000000000000000000000000000000000000000000000000000080000000000000000000040000000000000000000000000000000000000000000000000000000000000000000000000000000000000000080000020000000000000200000800000000000000000000000000000000000000000000000000000000000000000000000000000000100000000000004000000000000000000000000000000000000000000000000000000000000000000000000000000000000000000000000000000200000000000000000000000020000000000000000000000000000000000000000020000000000000000000000000",
      "type": "0x2",
      "transactionHash": "0x797ca92b231718a4eeaea053e4894c276ef5b92951b52c0b7ee5fc9fa5545b1c",
      "transactionIndex": "0x0",
      "blockHash": "0x0dc2603189bc692d21e932a248b085070a30490a3dcb5159146ea25eadd55ac7",
      "blockNumber": "0x24855f8",
      "gasUsed": "0xdd98",
      "effectiveGasPrice": "0xbc59c600",
      "from": "0x99b0e95fa8f5c3b86e4d78ed715b475cfccf6e97",
      "to": "0x8b52c234c4064ef31c90f3e42b0aa8c75d42a5ad",
      "contractAddress": null
    },
    {
      "status": "0x1",
      "cumulativeGasUsed": "0xddd6",
      "logs": [
        {
          "address": "0x8b52c234c4064ef31c90f3e42b0aa8c75d42a5ad",
          "topics": [
            "0x274dd4127a55dcb6f6c12ed38fec5007d965d2afffa8b0bc75c3dc8f3f6b2224",
            "0x0000000000000000000000000000000000000000000000000000000000000000",
            "0x00000000000000000000000099b0e95fa8f5c3b86e4d78ed715b475cfccf6e97"
          ],
          "data": "0x65d7a28e3265b37a6474929f336521b332c1681b933f6cb9f3376673440d862a",
          "blockHash": "0x12acd10bc3eaa4ef40363e2f2436045940549cbad10bbe9ab7c9e826629377c2",
          "blockNumber": "0x24855fa",
          "transactionHash": "0x721b03a71850b5d570af305290849217d4ed87b3dd5e30dd6331dc39accaec96",
          "transactionIndex": "0x0",
          "logIndex": "0x0",
          "removed": false
        }
      ],
      "logsBloom": "0x00400000000000000000000000000000000000000000000000000000000000000000000000000000000000000000000000000000040000000000000000000000000000000000001000000000000000000000000200000000000000000000000000080000020000000000000200000800000000000000000000000000002000000000000000000000000000000000000000000000000000100000000000004000000000000000000000000000000000000000000000000000000000000000000000000000000000000000000000000000000000000000000000000000000020000000000000000000000000000000000000000000000000000000000000000000",
      "type": "0x2",
      "transactionHash": "0x721b03a71850b5d570af305290849217d4ed87b3dd5e30dd6331dc39accaec96",
      "transactionIndex": "0x0",
      "blockHash": "0x12acd10bc3eaa4ef40363e2f2436045940549cbad10bbe9ab7c9e826629377c2",
      "blockNumber": "0x24855fa",
      "gasUsed": "0xddd6",
      "effectiveGasPrice": "0xbc59c600",
      "from": "0x99b0e95fa8f5c3b86e4d78ed715b475cfccf6e97",
      "to": "0x8b52c234c4064ef31c90f3e42b0aa8c75d42a5ad",
      "contractAddress": null
    }
  ],
  "libraries": [],
  "pending": [],
  "returns": {},
  "timestamp": 1740779543,
  "chain": 43113,
  "commit": "6c61e0a"
}