{
  "transactions": [
    {
      "hash": "0xd11eec5fb6f3441cd5407f9231c13e0f95757c967b6e1fe9d223d1acede950ed",
      "transactionType": "CALL",
      "contractName": null,
      "contractAddress": "0x5f5258986684b5bd551085445e011930c3ff2a13",
      "function": "upgradeAndCall(address,address,bytes)",
      "arguments": [
        "0x8B52c234C4064Ef31c90f3e42B0Aa8C75d42A5Ad",
        "0x8Ff5804bC9EB717aA4594eac9a69a79D148d8429",
        "0xc4d66de800000000000000000000000099b0e95fa8f5c3b86e4d78ed715b475cfccf6e97"
      ],
      "transaction": {
        "from": "0x99b0e95fa8f5c3b86e4d78ed715b475cfccf6e97",
        "to": "0x5f5258986684b5bd551085445e011930c3ff2a13",
        "gas": "0x22b0a",
        "value": "0x0",
        "input": "0x9623609d0000000000000000000000008b52c234c4064ef31c90f3e42b0aa8c75d42a5ad0000000000000000000000008ff5804bc9eb717aa4594eac9a69a79d148d842900000000000000000000000000000000000000000000000000000000000000600000000000000000000000000000000000000000000000000000000000000024c4d66de800000000000000000000000099b0e95fa8f5c3b86e4d78ed715b475cfccf6e9700000000000000000000000000000000000000000000000000000000",
        "nonce": "0x0",
        "chainId": "0x13882"
      },
      "additionalContracts": [],
      "isFixedGasLimit": false
    },
    {
      "hash": "0xa1bb4be1bb21753486224731897c60e027261c550695c9e6d0c3447ce0a54a7a",
      "transactionType": "CALL",
      "contractName": null,
      "contractAddress": "0x8b52c234c4064ef31c90f3e42b0aa8c75d42a5ad",
      "function": "transferRole(bytes32,address)",
      "arguments": [
        "0x9f2df0fed2c77648de5860a4cc508cd0818c85b8b8a1ab4ceeef8d981c8956a6",
        "0x99B0E95Fa8F5C3b86e4d78ED715B475cFCcf6E97"
      ],
      "transaction": {
        "from": "0x99b0e95fa8f5c3b86e4d78ed715b475cfccf6e97",
        "to": "0x8b52c234c4064ef31c90f3e42b0aa8c75d42a5ad",
        "gas": "0x13212",
        "value": "0x0",
        "input": "0x9ee12c899f2df0fed2c77648de5860a4cc508cd0818c85b8b8a1ab4ceeef8d981c8956a600000000000000000000000099b0e95fa8f5c3b86e4d78ed715b475cfccf6e97",
        "nonce": "0x1",
        "chainId": "0x13882"
      },
      "additionalContracts": [],
      "isFixedGasLimit": false
    },
    {
      "hash": null,
      "transactionType": "CALL",
      "contractName": null,
      "contractAddress": "0x8b52c234c4064ef31c90f3e42b0aa8c75d42a5ad",
      "function": "acceptTransferRole(bytes32)",
      "arguments": [
        "0x9f2df0fed2c77648de5860a4cc508cd0818c85b8b8a1ab4ceeef8d981c8956a6"
      ],
      "transaction": {
        "from": "0x99b0e95fa8f5c3b86e4d78ed715b475cfccf6e97",
        "to": "0x8b52c234c4064ef31c90f3e42b0aa8c75d42a5ad",
        "gas": "0x11882",
        "value": "0x0",
        "input": "0x72ac04bb9f2df0fed2c77648de5860a4cc508cd0818c85b8b8a1ab4ceeef8d981c8956a6",
        "nonce": "0x2",
        "chainId": "0x13882"
      },
      "additionalContracts": [],
      "isFixedGasLimit": false
    },
    {
      "hash": null,
      "transactionType": "CALL",
      "contractName": null,
      "contractAddress": "0x8b52c234c4064ef31c90f3e42b0aa8c75d42a5ad",
      "function": "transferRole(bytes32,address)",
      "arguments": [
        "0x3c11d16cbaffd01df69ce1c404f6340ee057498f5f00246190ea54220576a848",
        "0x99B0E95Fa8F5C3b86e4d78ED715B475cFCcf6E97"
      ],
      "transaction": {
        "from": "0x99b0e95fa8f5c3b86e4d78ed715b475cfccf6e97",
        "to": "0x8b52c234c4064ef31c90f3e42b0aa8c75d42a5ad",
        "gas": "0x13202",
        "value": "0x0",
        "input": "0x9ee12c893c11d16cbaffd01df69ce1c404f6340ee057498f5f00246190ea54220576a84800000000000000000000000099b0e95fa8f5c3b86e4d78ed715b475cfccf6e97",
        "nonce": "0x3",
        "chainId": "0x13882"
      },
      "additionalContracts": [],
      "isFixedGasLimit": false
    },
    {
      "hash": null,
      "transactionType": "CALL",
      "contractName": null,
      "contractAddress": "0x8b52c234c4064ef31c90f3e42b0aa8c75d42a5ad",
      "function": "acceptTransferRole(bytes32)",
      "arguments": [
        "0x3c11d16cbaffd01df69ce1c404f6340ee057498f5f00246190ea54220576a848"
      ],
      "transaction": {
        "from": "0x99b0e95fa8f5c3b86e4d78ed715b475cfccf6e97",
        "to": "0x8b52c234c4064ef31c90f3e42b0aa8c75d42a5ad",
        "gas": "0x128f1",
        "value": "0x0",
        "input": "0x72ac04bb3c11d16cbaffd01df69ce1c404f6340ee057498f5f00246190ea54220576a848",
        "nonce": "0x4",
        "chainId": "0x13882"
      },
      "additionalContracts": [],
      "isFixedGasLimit": false
    },
    {
      "hash": null,
      "transactionType": "CALL",
      "contractName": null,
      "contractAddress": "0x8b52c234c4064ef31c90f3e42b0aa8c75d42a5ad",
      "function": "transferRole(bytes32,address)",
      "arguments": [
        "0x92de27771f92d6942691d73358b3a4673e4880de8356f8f2cf452be87e02d363",
        "0x99B0E95Fa8F5C3b86e4d78ED715B475cFCcf6E97"
      ],
      "transaction": {
        "from": "0x99b0e95fa8f5c3b86e4d78ed715b475cfccf6e97",
        "to": "0x8b52c234c4064ef31c90f3e42b0aa8c75d42a5ad",
        "gas": "0x13212",
        "value": "0x0",
        "input": "0x9ee12c8992de27771f92d6942691d73358b3a4673e4880de8356f8f2cf452be87e02d36300000000000000000000000099b0e95fa8f5c3b86e4d78ed715b475cfccf6e97",
        "nonce": "0x5",
        "chainId": "0x13882"
      },
      "additionalContracts": [],
      "isFixedGasLimit": false
    },
    {
      "hash": null,
      "transactionType": "CALL",
      "contractName": null,
      "contractAddress": "0x8b52c234c4064ef31c90f3e42b0aa8c75d42a5ad",
      "function": "acceptTransferRole(bytes32)",
      "arguments": [
        "0x92de27771f92d6942691d73358b3a4673e4880de8356f8f2cf452be87e02d363"
      ],
      "transaction": {
        "from": "0x99b0e95fa8f5c3b86e4d78ed715b475cfccf6e97",
        "to": "0x8b52c234c4064ef31c90f3e42b0aa8c75d42a5ad",
        "gas": "0x11882",
        "value": "0x0",
        "input": "0x72ac04bb92de27771f92d6942691d73358b3a4673e4880de8356f8f2cf452be87e02d363",
        "nonce": "0x6",
        "chainId": "0x13882"
      },
      "additionalContracts": [],
      "isFixedGasLimit": false
    },
    {
      "hash": null,
      "transactionType": "CALL",
      "contractName": null,
      "contractAddress": "0x8b52c234c4064ef31c90f3e42b0aa8c75d42a5ad",
      "function": "transferRole(bytes32,address)",
      "arguments": [
        "0x65d7a28e3265b37a6474929f336521b332c1681b933f6cb9f3376673440d862a",
        "0x99B0E95Fa8F5C3b86e4d78ED715B475cFCcf6E97"
      ],
      "transaction": {
        "from": "0x99b0e95fa8f5c3b86e4d78ed715b475cfccf6e97",
        "to": "0x8b52c234c4064ef31c90f3e42b0aa8c75d42a5ad",
        "gas": "0x13212",
        "value": "0x0",
        "input": "0x9ee12c8965d7a28e3265b37a6474929f336521b332c1681b933f6cb9f3376673440d862a00000000000000000000000099b0e95fa8f5c3b86e4d78ed715b475cfccf6e97",
        "nonce": "0x7",
        "chainId": "0x13882"
      },
      "additionalContracts": [],
      "isFixedGasLimit": false
    },
    {
      "hash": null,
      "transactionType": "CALL",
      "contractName": null,
      "contractAddress": "0x8b52c234c4064ef31c90f3e42b0aa8c75d42a5ad",
      "function": "acceptTransferRole(bytes32)",
      "arguments": [
        "0x65d7a28e3265b37a6474929f336521b332c1681b933f6cb9f3376673440d862a"
      ],
      "transaction": {
        "from": "0x99b0e95fa8f5c3b86e4d78ed715b475cfccf6e97",
        "to": "0x8b52c234c4064ef31c90f3e42b0aa8c75d42a5ad",
        "gas": "0x11882",
        "value": "0x0",
        "input": "0x72ac04bb65d7a28e3265b37a6474929f336521b332c1681b933f6cb9f3376673440d862a",
        "nonce": "0x8",
        "chainId": "0x13882"
      },
      "additionalContracts": [],
      "isFixedGasLimit": false
    }
  ],
  "receipts": [
    {
      "status": "0x1",
      "cumulativeGasUsed": "0x191d7",
      "logs": [
        {
          "address": "0x8b52c234c4064ef31c90f3e42b0aa8c75d42a5ad",
          "topics": [
            "0xbc7cd75a20ee27fd9adebab32041f755214dbc6bffa90cc0225b39da2e5c2d3b",
            "0x0000000000000000000000008ff5804bc9eb717aa4594eac9a69a79d148d8429"
          ],
          "data": "0x",
          "blockHash": "0x048ea2480193721f5b82dd78e6dca930398cc03c254827ae5419609b81a91760",
          "blockNumber": "0x11e7e71",
          "transactionHash": "0xd11eec5fb6f3441cd5407f9231c13e0f95757c967b6e1fe9d223d1acede950ed",
          "transactionIndex": "0x0",
          "logIndex": "0x0",
          "removed": false
        },
        {
          "address": "0x8b52c234c4064ef31c90f3e42b0aa8c75d42a5ad",
          "topics": [
            "0xc7f505b2f371ae2175ee4913f4499e1f2633a7b5936321eed1cdaeb6115181d2"
          ],
          "data": "0x0000000000000000000000000000000000000000000000000000000000000002",
          "blockHash": "0x048ea2480193721f5b82dd78e6dca930398cc03c254827ae5419609b81a91760",
          "blockNumber": "0x11e7e71",
          "transactionHash": "0xd11eec5fb6f3441cd5407f9231c13e0f95757c967b6e1fe9d223d1acede950ed",
          "transactionIndex": "0x0",
          "logIndex": "0x1",
          "removed": false
        },
        {
          "address": "0x0000000000000000000000000000000000001010",
          "topics": [
            "0x4dfe1bbbcf077ddc3e01291eea2d5c70c2b422b415d95645b9adcfd678cb1d63",
            "0x0000000000000000000000000000000000000000000000000000000000001010",
            "0x00000000000000000000000099b0e95fa8f5c3b86e4d78ed715b475cfccf6e97",
            "0x000000000000000000000000ba60fe9f3372f53397bee44e2a4d3087aa5f281f"
          ],
          "data": "0x000000000000000000000000000000000000000000000000001beb0ed419cae60000000000000000000000000000000000000000000000015c551d03b64e00000000000000000000000000000000000000000000000000544fd25311b3049ea90000000000000000000000000000000000000000000000015c3931f4e234351a0000000000000000000000000000000000000000000000544fee3e20871e698f",
          "blockHash": "0x048ea2480193721f5b82dd78e6dca930398cc03c254827ae5419609b81a91760",
          "blockNumber": "0x11e7e71",
          "transactionHash": "0xd11eec5fb6f3441cd5407f9231c13e0f95757c967b6e1fe9d223d1acede950ed",
          "transactionIndex": "0x0",
          "logIndex": "0x2",
          "removed": false
        }
      ],
      "logsBloom": "0x00400000000000000000000000004000400000000000000000000000000000000000000000000000000000000000000000008000040000000000000000000000000000000000000000000000000002800800000000000000000100000000000000080000000000000000000200000000000000000000000080000000000008000000000000000000000800000000000000004000000080100000000000004000200000000000001000000000000040000000000000000000000000000000004000000020000000000001000000000000000000000004000000100000000000000000000000000000000000000000000000000000000000000000000000100000",
      "type": "0x2",
      "transactionHash": "0xd11eec5fb6f3441cd5407f9231c13e0f95757c967b6e1fe9d223d1acede950ed",
      "transactionIndex": "0x0",
      "blockHash": "0x048ea2480193721f5b82dd78e6dca930398cc03c254827ae5419609b81a91760",
      "blockNumber": "0x11e7e71",
      "gasUsed": "0x191d7",
      "effectiveGasPrice": "0x11c92c9b99",
      "from": "0x99b0e95fa8f5c3b86e4d78ed715b475cfccf6e97",
      "to": "0x5f5258986684b5bd551085445e011930c3ff2a13",
      "contractAddress": null
    },
    {
      "status": "0x1",
      "cumulativeGasUsed": "0x12fa0",
      "logs": [
        {
          "address": "0x8b52c234c4064ef31c90f3e42b0aa8c75d42a5ad",
          "topics": [
            "0xc9ba1b1f5a418274427c969ace813494ac92d03206cbee8cffb4ba8696f50736",
            "0x0000000000000000000000000000000000000000000000000000000000000000",
            "0x00000000000000000000000099b0e95fa8f5c3b86e4d78ed715b475cfccf6e97"
          ],
          "data": "0x9f2df0fed2c77648de5860a4cc508cd0818c85b8b8a1ab4ceeef8d981c8956a6",
          "blockHash": "0xb105b4e1282e12628d44ccf0777e2c5d0679cf7174323c5fdd94690e4070bc80",
          "blockNumber": "0x11e7e7b",
          "transactionHash": "0xa1bb4be1bb21753486224731897c60e027261c550695c9e6d0c3447ce0a54a7a",
          "transactionIndex": "0x1",
          "logIndex": "0x2",
          "removed": false
        },
        {
          "address": "0x0000000000000000000000000000000000001010",
          "topics": [
            "0x4dfe1bbbcf077ddc3e01291eea2d5c70c2b422b415d95645b9adcfd678cb1d63",
            "0x0000000000000000000000000000000000000000000000000000000000001010",
            "0x00000000000000000000000099b0e95fa8f5c3b86e4d78ed715b475cfccf6e97",
            "0x000000000000000000000000ba60fe9f3372f53397bee44e2a4d3087aa5f281f"
          ],
          "data": "0x000000000000000000000000000000000000000000000000000f653af4c27bf00000000000000000000000000000000000000000000000015c3931f4e21ca98100000000000000000000000000000000000000000000005450a0ca2616c6b7a60000000000000000000000000000000000000000000000015c29ccb9ed5a2d9100000000000000000000000000000000000000000000005450b02f610b893396",
          "blockHash": "0xb105b4e1282e12628d44ccf0777e2c5d0679cf7174323c5fdd94690e4070bc80",
          "blockNumber": "0x11e7e7b",
          "transactionHash": "0xa1bb4be1bb21753486224731897c60e027261c550695c9e6d0c3447ce0a54a7a",
          "transactionIndex": "0x1",
          "logIndex": "0x3",
          "removed": false
        }
      ],
      "logsBloom": "0x00400000000000000000000000004000000000000000000000000000000000000000000000000000000080000000000000008000040000000000000000000000000000000000000000000000000000800000000000000000000100000000000000080000020000000000000200000800000000000000000080000000000000000000000000000000000000000000000000004000000000100000000000004000200000000000000000000000000040000000000000000000000000000000004000000000000000000001000000000000000200000000000000100000000020000000000000000000000000000000000000000020000000000000000000100000",
      "type": "0x2",
      "transactionHash": "0xa1bb4be1bb21753486224731897c60e027261c550695c9e6d0c3447ce0a54a7a",
      "transactionIndex": "0x1",
      "blockHash": "0xb105b4e1282e12628d44ccf0777e2c5d0679cf7174323c5fdd94690e4070bc80",
      "blockNumber": "0x11e7e7b",
      "gasUsed": "0xdd98",
      "effectiveGasPrice": "0x11c92c9b99",
      "from": "0x99b0e95fa8f5c3b86e4d78ed715b475cfccf6e97",
      "to": "0x8b52c234c4064ef31c90f3e42b0aa8c75d42a5ad",
      "contractAddress": null
    }
  ],
  "libraries": [],
  "pending": [],
  "returns": {},
  "timestamp": 1741060967,
  "chain": 80002,
  "commit": "1f76be6"
}