{
  "transactions": [
    {
      "hash": "0x003c80010e3ab07bcbd57d469d4a892d45c0ad28563e1f42780c64d2c7bdb48e",
      "transactionType": "CALL",
      "contractName": null,
      "contractAddress": "0x8b52c234c4064ef31c90f3e42b0aa8c75d42a5ad",
      "function": "transferRole(bytes32,address)",
      "arguments": [
        "0x9f2df0fed2c77648de5860a4cc508cd0818c85b8b8a1ab4ceeef8d981c8956a6",
        "0x99B0E95Fa8F5C3b86e4d78ED715B475cFCcf6E97"
      ],
      "transaction": {
        "from": "0x99b0e95fa8f5c3b86e4d78ed715b475cfccf6e97",
        "to": "0x8b52c234c4064ef31c90f3e42b0aa8c75d42a5ad",
        "gas": "0xc6b3",
        "value": "0x0",
        "input": "0x9ee12c899f2df0fed2c77648de5860a4cc508cd0818c85b8b8a1ab4ceeef8d981c8956a600000000000000000000000099b0e95fa8f5c3b86e4d78ed715b475cfccf6e97",
        "nonce": "0x2",
        "chainId": "0x13882"
      },
      "additionalContracts": [],
      "isFixedGasLimit": false
    },
    {
      "hash": "0x4b78475ed07377374d9833267183e425097c23a601ab5e57e72d691e8711fbc8",
      "transactionType": "CALL",
      "contractName": null,
      "contractAddress": "0x8b52c234c4064ef31c90f3e42b0aa8c75d42a5ad",
      "function": "acceptTransferRole(bytes32)",
      "arguments": [
        "0x9f2df0fed2c77648de5860a4cc508cd0818c85b8b8a1ab4ceeef8d981c8956a6"
      ],
      "transaction": {
        "from": "0x99b0e95fa8f5c3b86e4d78ed715b475cfccf6e97",
        "to": "0x8b52c234c4064ef31c90f3e42b0aa8c75d42a5ad",
        "gas": "0x11882",
        "value": "0x0",
        "input": "0x72ac04bb9f2df0fed2c77648de5860a4cc508cd0818c85b8b8a1ab4ceeef8d981c8956a6",
        "nonce": "0x3",
        "chainId": "0x13882"
      },
      "additionalContracts": [],
      "isFixedGasLimit": false
    },
    {
      "hash": "0xba61c1e2ca00d2a49c3dcf9a9f34dd4fd39cbb86f98276544d146da225351dca",
      "transactionType": "CALL",
      "contractName": null,
      "contractAddress": "0x8b52c234c4064ef31c90f3e42b0aa8c75d42a5ad",
      "function": "transferRole(bytes32,address)",
      "arguments": [
        "0x3c11d16cbaffd01df69ce1c404f6340ee057498f5f00246190ea54220576a848",
        "0x99B0E95Fa8F5C3b86e4d78ED715B475cFCcf6E97"
      ],
      "transaction": {
        "from": "0x99b0e95fa8f5c3b86e4d78ed715b475cfccf6e97",
        "to": "0x8b52c234c4064ef31c90f3e42b0aa8c75d42a5ad",
        "gas": "0x13202",
        "value": "0x0",
        "input": "0x9ee12c893c11d16cbaffd01df69ce1c404f6340ee057498f5f00246190ea54220576a84800000000000000000000000099b0e95fa8f5c3b86e4d78ed715b475cfccf6e97",
        "nonce": "0x4",
        "chainId": "0x13882"
      },
      "additionalContracts": [],
      "isFixedGasLimit": false
    },
    {
      "hash": "0xcfd454dd5493ede3ea8434868a449698394fa7994a45f006eb737b9c361ea0eb",
      "transactionType": "CALL",
      "contractName": null,
      "contractAddress": "0x8b52c234c4064ef31c90f3e42b0aa8c75d42a5ad",
      "function": "acceptTransferRole(bytes32)",
      "arguments": [
        "0x3c11d16cbaffd01df69ce1c404f6340ee057498f5f00246190ea54220576a848"
      ],
      "transaction": {
        "from": "0x99b0e95fa8f5c3b86e4d78ed715b475cfccf6e97",
        "to": "0x8b52c234c4064ef31c90f3e42b0aa8c75d42a5ad",
        "gas": "0x128f1",
        "value": "0x0",
        "input": "0x72ac04bb3c11d16cbaffd01df69ce1c404f6340ee057498f5f00246190ea54220576a848",
        "nonce": "0x5",
        "chainId": "0x13882"
      },
      "additionalContracts": [],
      "isFixedGasLimit": false
    },
    {
      "hash": "0x6572b7a4c8e2b4c6c2d5124b2aa3bd13ccfb7052518b3dc0309b8b457b725d59",
      "transactionType": "CALL",
      "contractName": null,
      "contractAddress": "0x8b52c234c4064ef31c90f3e42b0aa8c75d42a5ad",
      "function": "transferRole(bytes32,address)",
      "arguments": [
        "0x92de27771f92d6942691d73358b3a4673e4880de8356f8f2cf452be87e02d363",
        "0x99B0E95Fa8F5C3b86e4d78ED715B475cFCcf6E97"
      ],
      "transaction": {
        "from": "0x99b0e95fa8f5c3b86e4d78ed715b475cfccf6e97",
        "to": "0x8b52c234c4064ef31c90f3e42b0aa8c75d42a5ad",
        "gas": "0x13212",
        "value": "0x0",
        "input": "0x9ee12c8992de27771f92d6942691d73358b3a4673e4880de8356f8f2cf452be87e02d36300000000000000000000000099b0e95fa8f5c3b86e4d78ed715b475cfccf6e97",
        "nonce": "0x6",
        "chainId": "0x13882"
      },
      "additionalContracts": [],
      "isFixedGasLimit": false
    },
    {
      "hash": "0x0531ceb3bb408b671ea84fd25e42c0373c51be45f8c34dbc19ad5db93a03d81f",
      "transactionType": "CALL",
      "contractName": null,
      "contractAddress": "0x8b52c234c4064ef31c90f3e42b0aa8c75d42a5ad",
      "function": "acceptTransferRole(bytes32)",
      "arguments": [
        "0x92de27771f92d6942691d73358b3a4673e4880de8356f8f2cf452be87e02d363"
      ],
      "transaction": {
        "from": "0x99b0e95fa8f5c3b86e4d78ed715b475cfccf6e97",
        "to": "0x8b52c234c4064ef31c90f3e42b0aa8c75d42a5ad",
        "gas": "0x11882",
        "value": "0x0",
        "input": "0x72ac04bb92de27771f92d6942691d73358b3a4673e4880de8356f8f2cf452be87e02d363",
        "nonce": "0x7",
        "chainId": "0x13882"
      },
      "additionalContracts": [],
      "isFixedGasLimit": false
    },
    {
      "hash": "0xa9aa068dd7204bd789c5d050b9c950e2cfca6f8ed690a78d564b947b3934d5a0",
      "transactionType": "CALL",
      "contractName": null,
      "contractAddress": "0x8b52c234c4064ef31c90f3e42b0aa8c75d42a5ad",
      "function": "transferRole(bytes32,address)",
      "arguments": [
        "0x65d7a28e3265b37a6474929f336521b332c1681b933f6cb9f3376673440d862a",
        "0x99B0E95Fa8F5C3b86e4d78ED715B475cFCcf6E97"
      ],
      "transaction": {
        "from": "0x99b0e95fa8f5c3b86e4d78ed715b475cfccf6e97",
        "to": "0x8b52c234c4064ef31c90f3e42b0aa8c75d42a5ad",
        "gas": "0x13212",
        "value": "0x0",
        "input": "0x9ee12c8965d7a28e3265b37a6474929f336521b332c1681b933f6cb9f3376673440d862a00000000000000000000000099b0e95fa8f5c3b86e4d78ed715b475cfccf6e97",
        "nonce": "0x8",
        "chainId": "0x13882"
      },
      "additionalContracts": [],
      "isFixedGasLimit": false
    },
    {
      "hash": "0xad2dd9dcea017d867e2de561f8333ac89541b09c5447b52ca719a138e1c2ba1d",
      "transactionType": "CALL",
      "contractName": null,
      "contractAddress": "0x8b52c234c4064ef31c90f3e42b0aa8c75d42a5ad",
      "function": "acceptTransferRole(bytes32)",
      "arguments": [
        "0x65d7a28e3265b37a6474929f336521b332c1681b933f6cb9f3376673440d862a"
      ],
      "transaction": {
        "from": "0x99b0e95fa8f5c3b86e4d78ed715b475cfccf6e97",
        "to": "0x8b52c234c4064ef31c90f3e42b0aa8c75d42a5ad",
        "gas": "0x11882",
        "value": "0x0",
        "input": "0x72ac04bb65d7a28e3265b37a6474929f336521b332c1681b933f6cb9f3376673440d862a",
        "nonce": "0x9",
        "chainId": "0x13882"
      },
      "additionalContracts": [],
      "isFixedGasLimit": false
    }
  ],
  "receipts": [
    {
      "status": "0x1",
      "cumulativeGasUsed": "0x34d37",
      "logs": [
        {
          "address": "0x8b52c234c4064ef31c90f3e42b0aa8c75d42a5ad",
          "topics": [
            "0xc9ba1b1f5a418274427c969ace813494ac92d03206cbee8cffb4ba8696f50736",
            "0x0000000000000000000000000000000000000000000000000000000000000000",
            "0x00000000000000000000000099b0e95fa8f5c3b86e4d78ed715b475cfccf6e97"
          ],
          "data": "0x9f2df0fed2c77648de5860a4cc508cd0818c85b8b8a1ab4ceeef8d981c8956a6",
          "blockHash": "0xa3cda4779af4f7846894164ce07ecb3ed687e817f4106bbb94a5ba5e8cc10c01",
          "blockNumber": "0x11e7fc2",
          "transactionHash": "0x003c80010e3ab07bcbd57d469d4a892d45c0ad28563e1f42780c64d2c7bdb48e",
          "transactionIndex": "0x1",
          "logIndex": "0xa",
          "removed": false
        },
        {
          "address": "0x0000000000000000000000000000000000001010",
          "topics": [
            "0x4dfe1bbbcf077ddc3e01291eea2d5c70c2b422b415d95645b9adcfd678cb1d63",
            "0x0000000000000000000000000000000000000000000000000000000000001010",
            "0x00000000000000000000000099b0e95fa8f5c3b86e4d78ed715b475cfccf6e97",
            "0x0000000000000000000000004631753190f2f5a15a7ba172bbac102b7d95fa22"
          ],
          "data": "0x0000000000000000000000000000000000000000000000000009fea8cd37c0980000000000000000000000000000000000000000000000015c29ccb9ed4d31a90000000000000000000000000000000000000000000006fe6e57fac6a35a5c710000000000000000000000000000000000000000000000015c1fce11201571110000000000000000000000000000000000000000000006fe6e61f96f70921d09",
          "blockHash": "0xa3cda4779af4f7846894164ce07ecb3ed687e817f4106bbb94a5ba5e8cc10c01",
          "blockNumber": "0x11e7fc2",
          "transactionHash": "0x003c80010e3ab07bcbd57d469d4a892d45c0ad28563e1f42780c64d2c7bdb48e",
          "transactionIndex": "0x1",
          "logIndex": "0xb",
          "removed": false
        }
      ],
      "logsBloom": "0x00400000000000000000000000000000000000002000000000000000000000000000000000000000000080000000000000008000040000000000000040000000000000000000000000000000000000800000000000000000000100000000000000080000020000100000000200000800000000000000000080000000000000000000000000000000000000000000000000000000000000100000000000004000200000000000000000000000000000000000000000000000000000000000004000000000000000000001000000000000000200000000000000100000000020000000000000000000000000000000000000000020000000000000000000100000",
      "type": "0x2",
      "transactionHash": "0x003c80010e3ab07bcbd57d469d4a892d45c0ad28563e1f42780c64d2c7bdb48e",
      "transactionIndex": "0x1",
      "blockHash": "0xa3cda4779af4f7846894164ce07ecb3ed687e817f4106bbb94a5ba5e8cc10c01",
      "blockNumber": "0x11e7fc2",
      "gasUsed": "0x8fdc",
      "effectiveGasPrice": "0x11c92c9b99",
      "from": "0x99b0e95fa8f5c3b86e4d78ed715b475cfccf6e97",
      "to": "0x8b52c234c4064ef31c90f3e42b0aa8c75d42a5ad",
      "contractAddress": null
    },
    {
      "status": "0x1",
      "cumulativeGasUsed": "0xcb16",
      "logs": [
        {
          "address": "0x8b52c234c4064ef31c90f3e42b0aa8c75d42a5ad",
          "topics": [
            "0x274dd4127a55dcb6f6c12ed38fec5007d965d2afffa8b0bc75c3dc8f3f6b2224",
            "0x0000000000000000000000000000000000000000000000000000000000000000",
            "0x00000000000000000000000099b0e95fa8f5c3b86e4d78ed715b475cfccf6e97"
          ],
          "data": "0x9f2df0fed2c77648de5860a4cc508cd0818c85b8b8a1ab4ceeef8d981c8956a6",
          "blockHash": "0x5a80517d43f33b093fef9b0de6d18453bfe901d873852637a788b125abdb7203",
          "blockNumber": "0x11e7fc9",
          "transactionHash": "0x4b78475ed07377374d9833267183e425097c23a601ab5e57e72d691e8711fbc8",
          "transactionIndex": "0x0",
          "logIndex": "0x0",
          "removed": false
        },
        {
          "address": "0x0000000000000000000000000000000000001010",
          "topics": [
            "0x4dfe1bbbcf077ddc3e01291eea2d5c70c2b422b415d95645b9adcfd678cb1d63",
            "0x0000000000000000000000000000000000000000000000000000000000001010",
            "0x00000000000000000000000099b0e95fa8f5c3b86e4d78ed715b475cfccf6e97",
            "0x0000000000000000000000004631753190f2f5a15a7ba172bbac102b7d95fa22"
          ],
          "data": "0x000000000000000000000000000000000000000000000000000e1c0da92bcbdc0000000000000000000000000000000000000000000000015c1fce11200d032d0000000000000000000000000000000000000000000006fe6f5991149118c07e0000000000000000000000000000000000000000000000015c11b20376e137510000000000000000000000000000000000000000000006fe6f67ad223a448c5a",
          "blockHash": "0x5a80517d43f33b093fef9b0de6d18453bfe901d873852637a788b125abdb7203",
          "blockNumber": "0x11e7fc9",
          "transactionHash": "0x4b78475ed07377374d9833267183e425097c23a601ab5e57e72d691e8711fbc8",
          "transactionIndex": "0x0",
          "logIndex": "0x1",
          "removed": false
        }
      ],
      "logsBloom": "0x00400000000000000000000000000000000000002000000000000000000000000000000000000000000000000000000000008000040000000000000040000000000000000000001000000000000000800000000200000000000100000000000000080000020000100000000200000800000000000000000080000000002000000000000000000000000000000000000000000000000000100000000000004000200000000000000000000000000000000000000000000000000000000000004000000000000000000001000000000000000000000000000000100000000020000000000000000000000000000000000000000000000000000000000000100000",
      "type": "0x2",
      "transactionHash": "0x4b78475ed07377374d9833267183e425097c23a601ab5e57e72d691e8711fbc8",
      "transactionIndex": "0x0",
      "blockHash": "0x5a80517d43f33b093fef9b0de6d18453bfe901d873852637a788b125abdb7203",
      "blockNumber": "0x11e7fc9",
      "gasUsed": "0xcb16",
      "effectiveGasPrice": "0x11c92c9b99",
      "from": "0x99b0e95fa8f5c3b86e4d78ed715b475cfccf6e97",
      "to": "0x8b52c234c4064ef31c90f3e42b0aa8c75d42a5ad",
      "contractAddress": null
    },
    {
      "status": "0x1",
      "cumulativeGasUsed": "0x12f94",
      "logs": [
        {
          "address": "0x8b52c234c4064ef31c90f3e42b0aa8c75d42a5ad",
          "topics": [
            "0xc9ba1b1f5a418274427c969ace813494ac92d03206cbee8cffb4ba8696f50736",
            "0x0000000000000000000000000000000000000000000000000000000000000000",
            "0x00000000000000000000000099b0e95fa8f5c3b86e4d78ed715b475cfccf6e97"
          ],
          "data": "0x3c11d16cbaffd01df69ce1c404f6340ee057498f5f00246190ea54220576a848",
          "blockHash": "0x086966460acb9a70b1a469bf23bd0321d4d18d7919372abc369971ad1c13193a",
          "blockNumber": "0x11e7fd2",
          "transactionHash": "0xba61c1e2ca00d2a49c3dcf9a9f34dd4fd39cbb86f98276544d146da225351dca",
          "transactionIndex": "0x1",
          "logIndex": "0x2",
          "removed": false
        },
        {
          "address": "0x0000000000000000000000000000000000001010",
          "topics": [
            "0x4dfe1bbbcf077ddc3e01291eea2d5c70c2b422b415d95645b9adcfd678cb1d63",
            "0x0000000000000000000000000000000000000000000000000000000000001010",
            "0x00000000000000000000000099b0e95fa8f5c3b86e4d78ed715b475cfccf6e97",
            "0x000000000000000000000000ba60fe9f3372f53397bee44e2a4d3087aa5f281f"
          ],
          "data": "0x000000000000000000000000000000000000000000000000000f646586ab31780000000000000000000000000000000000000000000000015c11b20376d5510700000000000000000000000000000000000000000000005453df1dc63119bde50000000000000000000000000000000000000000000000015c024d9df02a1f8f00000000000000000000000000000000000000000000005453ee822bb7c4ef5d",
          "blockHash": "0x086966460acb9a70b1a469bf23bd0321d4d18d7919372abc369971ad1c13193a",
          "blockNumber": "0x11e7fd2",
          "transactionHash": "0xba61c1e2ca00d2a49c3dcf9a9f34dd4fd39cbb86f98276544d146da225351dca",
          "transactionIndex": "0x1",
          "logIndex": "0x3",
          "removed": false
        }
      ],
      "logsBloom": "0x00400000000000000000000000004000000000000000000000000000000000000000000000000000000080000000000000008000040000000000000000000000000000000000000000000000000000800000000000000000000100000000000000080000020000000000000200000800000000000000000080000000000000000000000000000000000000000000000000004000000000100000000000004000200000000000000000000000000040000000000000000000000000000000004000000000000000000001000000000000000200000000000000100000000020000000000000000000000000000000000000000020000000000000000000100000",
      "type": "0x2",
      "transactionHash": "0xba61c1e2ca00d2a49c3dcf9a9f34dd4fd39cbb86f98276544d146da225351dca",
      "transactionIndex": "0x1",
      "blockHash": "0x086966460acb9a70b1a469bf23bd0321d4d18d7919372abc369971ad1c13193a",
      "blockNumber": "0x11e7fd2",
      "gasUsed": "0xdd8c",
      "effectiveGasPrice": "0x11c92c9b99",
      "from": "0x99b0e95fa8f5c3b86e4d78ed715b475cfccf6e97",
      "to": "0x8b52c234c4064ef31c90f3e42b0aa8c75d42a5ad",
      "contractAddress": null
    },
    {
      "status": "0x1",
      "cumulativeGasUsed": "0xcb0a",
      "logs": [
        {
          "address": "0x8b52c234c4064ef31c90f3e42b0aa8c75d42a5ad",
          "topics": [
            "0x274dd4127a55dcb6f6c12ed38fec5007d965d2afffa8b0bc75c3dc8f3f6b2224",
            "0x0000000000000000000000000000000000000000000000000000000000000000",
            "0x00000000000000000000000099b0e95fa8f5c3b86e4d78ed715b475cfccf6e97"
          ],
          "data": "0x3c11d16cbaffd01df69ce1c404f6340ee057498f5f00246190ea54220576a848",
          "blockHash": "0x74a3b6783c46762f07eb9317831dabccaeaa7db21a983a05ee270060e6a04fa3",
          "blockNumber": "0x11e7fd7",
          "transactionHash": "0xcfd454dd5493ede3ea8434868a449698394fa7994a45f006eb737b9c361ea0eb",
          "transactionIndex": "0x0",
          "logIndex": "0x0",
          "removed": false
        },
        {
          "address": "0x0000000000000000000000000000000000001010",
          "topics": [
            "0x4dfe1bbbcf077ddc3e01291eea2d5c70c2b422b415d95645b9adcfd678cb1d63",
            "0x0000000000000000000000000000000000000000000000000000000000001010",
            "0x00000000000000000000000099b0e95fa8f5c3b86e4d78ed715b475cfccf6e97",
            "0x000000000000000000000000ba60fe9f3372f53397bee44e2a4d3087aa5f281f"
          ],
          "data": "0x000000000000000000000000000000000000000000000000000e1b383b1481640000000000000000000000000000000000000000000000015c024d9df01d245b0000000000000000000000000000000000000000000000545402cf79ba6876ad0000000000000000000000000000000000000000000000015bf43265b508a2f70000000000000000000000000000000000000000000000545410eab1f57cf811",
          "blockHash": "0x74a3b6783c46762f07eb9317831dabccaeaa7db21a983a05ee270060e6a04fa3",
          "blockNumber": "0x11e7fd7",
          "transactionHash": "0xcfd454dd5493ede3ea8434868a449698394fa7994a45f006eb737b9c361ea0eb",
          "transactionIndex": "0x0",
          "logIndex": "0x1",
          "removed": false
        }
      ],
      "logsBloom": "0x00400000000000000000000000004000000000000000000000000000000000000000000000000000000000000000000000008000040000000000000000000000000000000000001000000000000000800000000200000000000100000000000000080000020000000000000200000800000000000000000080000000002000000000000000000000000000000000000000004000000000100000000000004000200000000000000000000000000040000000000000000000000000000000004000000000000000000001000000000000000000000000000000100000000020000000000000000000000000000000000000000000000000000000000000100000",
      "type": "0x2",
      "transactionHash": "0xcfd454dd5493ede3ea8434868a449698394fa7994a45f006eb737b9c361ea0eb",
      "transactionIndex": "0x0",
      "blockHash": "0x74a3b6783c46762f07eb9317831dabccaeaa7db21a983a05ee270060e6a04fa3",
      "blockNumber": "0x11e7fd7",
      "gasUsed": "0xcb0a",
      "effectiveGasPrice": "0x11c92c9b99",
      "from": "0x99b0e95fa8f5c3b86e4d78ed715b475cfccf6e97",
      "to": "0x8b52c234c4064ef31c90f3e42b0aa8c75d42a5ad",
      "contractAddress": null
    },
    {
      "status": "0x1",
      "cumulativeGasUsed": "0x12fa0",
      "logs": [
        {
          "address": "0x8b52c234c4064ef31c90f3e42b0aa8c75d42a5ad",
          "topics": [
            "0xc9ba1b1f5a418274427c969ace813494ac92d03206cbee8cffb4ba8696f50736",
            "0x0000000000000000000000000000000000000000000000000000000000000000",
            "0x00000000000000000000000099b0e95fa8f5c3b86e4d78ed715b475cfccf6e97"
          ],
          "data": "0x92de27771f92d6942691d73358b3a4673e4880de8356f8f2cf452be87e02d363",
          "blockHash": "0x680321d1223d80d5b6114352bcdf946becd1523d9a6b9a657f7e0d44fddcba81",
          "blockNumber": "0x11e7fdf",
          "transactionHash": "0x6572b7a4c8e2b4c6c2d5124b2aa3bd13ccfb7052518b3dc0309b8b457b725d59",
          "transactionIndex": "0x1",
          "logIndex": "0x2",
          "removed": false
        },
        {
          "address": "0x0000000000000000000000000000000000001010",
          "topics": [
            "0x4dfe1bbbcf077ddc3e01291eea2d5c70c2b422b415d95645b9adcfd678cb1d63",
            "0x0000000000000000000000000000000000000000000000000000000000001010",
            "0x00000000000000000000000099b0e95fa8f5c3b86e4d78ed715b475cfccf6e97",
            "0x000000000000000000000000ba60fe9f3372f53397bee44e2a4d3087aa5f281f"
          ],
          "data": "0x000000000000000000000000000000000000000000000000000f653af4c27bf00000000000000000000000000000000000000000000000015bf43265b4fcbd6100000000000000000000000000000000000000000000005454c66f277629e7910000000000000000000000000000000000000000000000015be4cd2ac03a417100000000000000000000000000000000000000000000005454d5d4626aec6381",
          "blockHash": "0x680321d1223d80d5b6114352bcdf946becd1523d9a6b9a657f7e0d44fddcba81",
          "blockNumber": "0x11e7fdf",
          "transactionHash": "0x6572b7a4c8e2b4c6c2d5124b2aa3bd13ccfb7052518b3dc0309b8b457b725d59",
          "transactionIndex": "0x1",
          "logIndex": "0x3",
          "removed": false
        }
      ],
      "logsBloom": "0x00400000000000000000000000004000000000000000000000000000000000000000000000000000000080000000000000008000040000000000000000000000000000000000000000000000000000800000000000000000000100000000000000080000020000000000000200000800000000000000000080000000000000000000000000000000000000000000000000004000000000100000000000004000200000000000000000000000000040000000000000000000000000000000004000000000000000000001000000000000000200000000000000100000000020000000000000000000000000000000000000000020000000000000000000100000",
      "type": "0x2",
      "transactionHash": "0x6572b7a4c8e2b4c6c2d5124b2aa3bd13ccfb7052518b3dc0309b8b457b725d59",
      "transactionIndex": "0x1",
      "blockHash": "0x680321d1223d80d5b6114352bcdf946becd1523d9a6b9a657f7e0d44fddcba81",
      "blockNumber": "0x11e7fdf",
      "gasUsed": "0xdd98",
      "effectiveGasPrice": "0x11c92c9b99",
      "from": "0x99b0e95fa8f5c3b86e4d78ed715b475cfccf6e97",
      "to": "0x8b52c234c4064ef31c90f3e42b0aa8c75d42a5ad",
      "contractAddress": null
    },
    {
      "status": "0x1",
      "cumulativeGasUsed": "0xcb16",
      "logs": [
        {
          "address": "0x8b52c234c4064ef31c90f3e42b0aa8c75d42a5ad",
          "topics": [
            "0x274dd4127a55dcb6f6c12ed38fec5007d965d2afffa8b0bc75c3dc8f3f6b2224",
            "0x0000000000000000000000000000000000000000000000000000000000000000",
            "0x00000000000000000000000099b0e95fa8f5c3b86e4d78ed715b475cfccf6e97"
          ],
          "data": "0x92de27771f92d6942691d73358b3a4673e4880de8356f8f2cf452be87e02d363",
          "blockHash": "0xa5482f1dcd812591a155ff250718731dc0db9beb431bdf2797fc9720ad9c1ae2",
          "blockNumber": "0x11e7fe3",
          "transactionHash": "0x0531ceb3bb408b671ea84fd25e42c0373c51be45f8c34dbc19ad5db93a03d81f",
          "transactionIndex": "0x0",
          "logIndex": "0x0",
          "removed": false
        },
        {
          "address": "0x0000000000000000000000000000000000001010",
          "topics": [
            "0x4dfe1bbbcf077ddc3e01291eea2d5c70c2b422b415d95645b9adcfd678cb1d63",
            "0x0000000000000000000000000000000000000000000000000000000000001010",
            "0x00000000000000000000000099b0e95fa8f5c3b86e4d78ed715b475cfccf6e97",
            "0x0000000000000000000000006dc2dd54f24979ec26212794c71afefed722280c"
          ],
          "data": "0x000000000000000000000000000000000000000000000000000e1c0da92bcbdc0000000000000000000000000000000000000000000000015be4cd2ac02d458900000000000000000000000000000000000000000000062b0ae9bb7907d9833a0000000000000000000000000000000000000000000000015bd6b11d170179ad00000000000000000000000000000000000000000000062b0af7d786b1054f16",
          "blockHash": "0xa5482f1dcd812591a155ff250718731dc0db9beb431bdf2797fc9720ad9c1ae2",
          "blockNumber": "0x11e7fe3",
          "transactionHash": "0x0531ceb3bb408b671ea84fd25e42c0373c51be45f8c34dbc19ad5db93a03d81f",
          "transactionIndex": "0x0",
          "logIndex": "0x1",
          "removed": false
        }
      ],
      "logsBloom": "0x00400000000000000000000000000000000000000000000000000000000000000000000000000000000000000000000000008000040000000000000000000000000000000000001000000000000000800000000200000000000100080000000000080000020000000000000200000800000000000000000080000000002000020000000000000000000000000040000000000000000000100000000000004000200000000000000000000000000000000000000000000000000000000000004000000000000000000001000000000000000000000000000000100000000020000000000000000000000000000000000000000000000000000000000000100000",
      "type": "0x2",
      "transactionHash": "0x0531ceb3bb408b671ea84fd25e42c0373c51be45f8c34dbc19ad5db93a03d81f",
      "transactionIndex": "0x0",
      "blockHash": "0xa5482f1dcd812591a155ff250718731dc0db9beb431bdf2797fc9720ad9c1ae2",
      "blockNumber": "0x11e7fe3",
      "gasUsed": "0xcb16",
      "effectiveGasPrice": "0x11c92c9b99",
      "from": "0x99b0e95fa8f5c3b86e4d78ed715b475cfccf6e97",
      "to": "0x8b52c234c4064ef31c90f3e42b0aa8c75d42a5ad",
      "contractAddress": null
    },
    {
      "status": "0x1",
      "cumulativeGasUsed": "0xdd98",
      "logs": [
        {
          "address": "0x8b52c234c4064ef31c90f3e42b0aa8c75d42a5ad",
          "topics": [
            "0xc9ba1b1f5a418274427c969ace813494ac92d03206cbee8cffb4ba8696f50736",
            "0x0000000000000000000000000000000000000000000000000000000000000000",
            "0x00000000000000000000000099b0e95fa8f5c3b86e4d78ed715b475cfccf6e97"
          ],
          "data": "0x65d7a28e3265b37a6474929f336521b332c1681b933f6cb9f3376673440d862a",
          "blockHash": "0x3fa4a2b115bf4caf4f4b10ae0cec916df88da40cba0d67031013cc0cfe6e2bef",
          "blockNumber": "0x11e7fea",
          "transactionHash": "0xa9aa068dd7204bd789c5d050b9c950e2cfca6f8ed690a78d564b947b3934d5a0",
          "transactionIndex": "0x0",
          "logIndex": "0x0",
          "removed": false
        },
        {
          "address": "0x0000000000000000000000000000000000001010",
          "topics": [
            "0x4dfe1bbbcf077ddc3e01291eea2d5c70c2b422b415d95645b9adcfd678cb1d63",
            "0x0000000000000000000000000000000000000000000000000000000000001010",
            "0x00000000000000000000000099b0e95fa8f5c3b86e4d78ed715b475cfccf6e97",
            "0x0000000000000000000000006dc2dd54f24979ec26212794c71afefed722280c"
          ],
          "data": "0x000000000000000000000000000000000000000000000000000f653af4c27bf00000000000000000000000000000000000000000000000015bd6b11d16f5936300000000000000000000000000000000000000000000062b0b700da43e31590e0000000000000000000000000000000000000000000000015bc74be22233177300000000000000000000000000000000000000000000062b0b7f72df32f3d4fe",
          "blockHash": "0x3fa4a2b115bf4caf4f4b10ae0cec916df88da40cba0d67031013cc0cfe6e2bef",
          "blockNumber": "0x11e7fea",
          "transactionHash": "0xa9aa068dd7204bd789c5d050b9c950e2cfca6f8ed690a78d564b947b3934d5a0",
          "transactionIndex": "0x0",
          "logIndex": "0x1",
          "removed": false
        }
      ],
      "logsBloom": "0x00400000000000000000000000000000000000000000000000000000000000000000000000000000000080000000000000008000040000000000000000000000000000000000000000000000000000800000000000000000000100080000000000080000020000000000000200000800000000000000000080000000000000020000000000000000000000000040000000000000000000100000000000004000200000000000000000000000000000000000000000000000000000000000004000000000000000000001000000000000000200000000000000100000000020000000000000000000000000000000000000000020000000000000000000100000",
      "type": "0x2",
      "transactionHash": "0xa9aa068dd7204bd789c5d050b9c950e2cfca6f8ed690a78d564b947b3934d5a0",
      "transactionIndex": "0x0",
      "blockHash": "0x3fa4a2b115bf4caf4f4b10ae0cec916df88da40cba0d67031013cc0cfe6e2bef",
      "blockNumber": "0x11e7fea",
      "gasUsed": "0xdd98",
      "effectiveGasPrice": "0x11c92c9b99",
      "from": "0x99b0e95fa8f5c3b86e4d78ed715b475cfccf6e97",
      "to": "0x8b52c234c4064ef31c90f3e42b0aa8c75d42a5ad",
      "contractAddress": null
    },
    {
      "status": "0x1",
      "cumulativeGasUsed": "0x11d1e",
      "logs": [
        {
          "address": "0x8b52c234c4064ef31c90f3e42b0aa8c75d42a5ad",
          "topics": [
            "0x274dd4127a55dcb6f6c12ed38fec5007d965d2afffa8b0bc75c3dc8f3f6b2224",
            "0x0000000000000000000000000000000000000000000000000000000000000000",
            "0x00000000000000000000000099b0e95fa8f5c3b86e4d78ed715b475cfccf6e97"
          ],
          "data": "0x65d7a28e3265b37a6474929f336521b332c1681b933f6cb9f3376673440d862a",
          "blockHash": "0x829539ea982822a732a5d87f848512e0d3ad1bc74166e0713734531f8500ab11",
          "blockNumber": "0x11e7ff1",
          "transactionHash": "0xad2dd9dcea017d867e2de561f8333ac89541b09c5447b52ca719a138e1c2ba1d",
          "transactionIndex": "0x1",
          "logIndex": "0x2",
          "removed": false
        },
        {
          "address": "0x0000000000000000000000000000000000001010",
          "topics": [
            "0x4dfe1bbbcf077ddc3e01291eea2d5c70c2b422b415d95645b9adcfd678cb1d63",
            "0x0000000000000000000000000000000000000000000000000000000000001010",
            "0x00000000000000000000000099b0e95fa8f5c3b86e4d78ed715b475cfccf6e97",
            "0x0000000000000000000000006ab3d36c46ecfb9b9c0bd51cb1c3da5a2c81cea6"
          ],
          "data": "0x000000000000000000000000000000000000000000000000000e1c0da92bcbdc0000000000000000000000000000000000000000000000015bc74be222261b8b00000000000000000000000000000000000000000000066366af0d5d053abc450000000000000000000000000000000000000000000000015bb92fd478fa4faf00000000000000000000000000000000000000000000066366bd296aae668821",
          "blockHash": "0x829539ea982822a732a5d87f848512e0d3ad1bc74166e0713734531f8500ab11",
          "blockNumber": "0x11e7ff1",
          "transactionHash": "0xad2dd9dcea017d867e2de561f8333ac89541b09c5447b52ca719a138e1c2ba1d",
          "transactionIndex": "0x1",
          "logIndex": "0x3",
          "removed": false
        }
      ],
      "logsBloom": "0x00400000080000000000000000000000000000000000000000000000000000000000000000000000000000000000000000008000040000000000000000000000000000080000001000000000000000800000000200000000000100000000000000080000020000000000000200000800000000000000000080000000002000000000000000000000000000000000000000000000000000100000000000004000200000000000000000000000000000000000000000000000000000000000004000000000000000000001000000000000000000010000000000100000000020000000000000000000000000000000000000000000000000000000000000100000",
      "type": "0x2",
      "transactionHash": "0xad2dd9dcea017d867e2de561f8333ac89541b09c5447b52ca719a138e1c2ba1d",
      "transactionIndex": "0x1",
      "blockHash": "0x829539ea982822a732a5d87f848512e0d3ad1bc74166e0713734531f8500ab11",
      "blockNumber": "0x11e7ff1",
      "gasUsed": "0xcb16",
      "effectiveGasPrice": "0x11c92c9b99",
      "from": "0x99b0e95fa8f5c3b86e4d78ed715b475cfccf6e97",
      "to": "0x8b52c234c4064ef31c90f3e42b0aa8c75d42a5ad",
      "contractAddress": null
    }
  ],
  "libraries": [],
  "pending": [],
  "returns": {},
  "timestamp": 1741061746,
  "chain": 80002,
  "commit": "1f76be6"
}