{
  "transactions": [
    {
      "hash": "0xb532f1281304695bea24feb67739f29c513e7095b9f41f28bb09faf25c5182bf",
      "transactionType": "CALL",
      "contractName": null,
      "contractAddress": "0x2ffb5584c3c8ad18b3fc8872b91aa49a2ac8d169",
      "function": "upgradeAndCall(address,address,bytes)",
      "arguments": [
        "0xa9012a055bd4e0eDfF8Ce09f960291C09D5322dC",
        "0x487478A4E9653e82e0e44DCA5F5202F928eBFD77",
        "0xc4d66de800000000000000000000000099b0e95fa8f5c3b86e4d78ed715b475cfccf6e97"
      ],
      "transaction": {
        "from": "0x99b0e95fa8f5c3b86e4d78ed715b475cfccf6e97",
        "to": "0x2ffb5584c3c8ad18b3fc8872b91aa49a2ac8d169",
        "gas": "0x22b0a",
        "value": "0x0",
        "input": "0x9623609d000000000000000000000000a9012a055bd4e0edff8ce09f960291c09d5322dc000000000000000000000000487478a4e9653e82e0e44dca5f5202f928ebfd7700000000000000000000000000000000000000000000000000000000000000600000000000000000000000000000000000000000000000000000000000000024c4d66de800000000000000000000000099b0e95fa8f5c3b86e4d78ed715b475cfccf6e9700000000000000000000000000000000000000000000000000000000",
        "nonce": "0x1b",
        "chainId": "0x13882"
      },
      "additionalContracts": [],
      "isFixedGasLimit": false
    },
    {
      "hash": "0x974270c2a1e89aa119a9312710143582c1d260888192e457807bd710747877e3",
      "transactionType": "CALL",
      "contractName": null,
      "contractAddress": "0xa9012a055bd4e0edff8ce09f960291c09d5322dc",
      "function": "transferRole(bytes32,address)",
      "arguments": [
        "0x9f2df0fed2c77648de5860a4cc508cd0818c85b8b8a1ab4ceeef8d981c8956a6",
        "0x99B0E95Fa8F5C3b86e4d78ED715B475cFCcf6E97"
      ],
      "transaction": {
        "from": "0x99b0e95fa8f5c3b86e4d78ed715b475cfccf6e97",
        "to": "0xa9012a055bd4e0edff8ce09f960291c09d5322dc",
        "gas": "0x13212",
        "value": "0x0",
        "input": "0x9ee12c899f2df0fed2c77648de5860a4cc508cd0818c85b8b8a1ab4ceeef8d981c8956a600000000000000000000000099b0e95fa8f5c3b86e4d78ed715b475cfccf6e97",
        "nonce": "0x1c",
        "chainId": "0x13882"
      },
      "additionalContracts": [],
      "isFixedGasLimit": false
    },
    {
      "hash": null,
      "transactionType": "CALL",
      "contractName": null,
      "contractAddress": "0xa9012a055bd4e0edff8ce09f960291c09d5322dc",
      "function": "acceptTransferRole(bytes32)",
      "arguments": [
        "0x9f2df0fed2c77648de5860a4cc508cd0818c85b8b8a1ab4ceeef8d981c8956a6"
      ],
      "transaction": {
        "from": "0x99b0e95fa8f5c3b86e4d78ed715b475cfccf6e97",
        "to": "0xa9012a055bd4e0edff8ce09f960291c09d5322dc",
        "gas": "0x11882",
        "value": "0x0",
        "input": "0x72ac04bb9f2df0fed2c77648de5860a4cc508cd0818c85b8b8a1ab4ceeef8d981c8956a6",
        "nonce": "0x1d",
        "chainId": "0x13882"
      },
      "additionalContracts": [],
      "isFixedGasLimit": false
    },
    {
      "hash": null,
      "transactionType": "CALL",
      "contractName": null,
      "contractAddress": "0xa9012a055bd4e0edff8ce09f960291c09d5322dc",
      "function": "transferRole(bytes32,address)",
      "arguments": [
        "0x3c11d16cbaffd01df69ce1c404f6340ee057498f5f00246190ea54220576a848",
        "0x99B0E95Fa8F5C3b86e4d78ED715B475cFCcf6E97"
      ],
      "transaction": {
        "from": "0x99b0e95fa8f5c3b86e4d78ed715b475cfccf6e97",
        "to": "0xa9012a055bd4e0edff8ce09f960291c09d5322dc",
        "gas": "0x13202",
        "value": "0x0",
        "input": "0x9ee12c893c11d16cbaffd01df69ce1c404f6340ee057498f5f00246190ea54220576a84800000000000000000000000099b0e95fa8f5c3b86e4d78ed715b475cfccf6e97",
        "nonce": "0x1e",
        "chainId": "0x13882"
      },
      "additionalContracts": [],
      "isFixedGasLimit": false
    },
    {
      "hash": null,
      "transactionType": "CALL",
      "contractName": null,
      "contractAddress": "0xa9012a055bd4e0edff8ce09f960291c09d5322dc",
      "function": "acceptTransferRole(bytes32)",
      "arguments": [
        "0x3c11d16cbaffd01df69ce1c404f6340ee057498f5f00246190ea54220576a848"
      ],
      "transaction": {
        "from": "0x99b0e95fa8f5c3b86e4d78ed715b475cfccf6e97",
        "to": "0xa9012a055bd4e0edff8ce09f960291c09d5322dc",
        "gas": "0x128f1",
        "value": "0x0",
        "input": "0x72ac04bb3c11d16cbaffd01df69ce1c404f6340ee057498f5f00246190ea54220576a848",
        "nonce": "0x1f",
        "chainId": "0x13882"
      },
      "additionalContracts": [],
      "isFixedGasLimit": false
    },
    {
      "hash": null,
      "transactionType": "CALL",
      "contractName": null,
      "contractAddress": "0xa9012a055bd4e0edff8ce09f960291c09d5322dc",
      "function": "transferRole(bytes32,address)",
      "arguments": [
        "0x92de27771f92d6942691d73358b3a4673e4880de8356f8f2cf452be87e02d363",
        "0x99B0E95Fa8F5C3b86e4d78ED715B475cFCcf6E97"
      ],
      "transaction": {
        "from": "0x99b0e95fa8f5c3b86e4d78ed715b475cfccf6e97",
        "to": "0xa9012a055bd4e0edff8ce09f960291c09d5322dc",
        "gas": "0x13212",
        "value": "0x0",
        "input": "0x9ee12c8992de27771f92d6942691d73358b3a4673e4880de8356f8f2cf452be87e02d36300000000000000000000000099b0e95fa8f5c3b86e4d78ed715b475cfccf6e97",
        "nonce": "0x20",
        "chainId": "0x13882"
      },
      "additionalContracts": [],
      "isFixedGasLimit": false
    },
    {
      "hash": null,
      "transactionType": "CALL",
      "contractName": null,
      "contractAddress": "0xa9012a055bd4e0edff8ce09f960291c09d5322dc",
      "function": "acceptTransferRole(bytes32)",
      "arguments": [
        "0x92de27771f92d6942691d73358b3a4673e4880de8356f8f2cf452be87e02d363"
      ],
      "transaction": {
        "from": "0x99b0e95fa8f5c3b86e4d78ed715b475cfccf6e97",
        "to": "0xa9012a055bd4e0edff8ce09f960291c09d5322dc",
        "gas": "0x11882",
        "value": "0x0",
        "input": "0x72ac04bb92de27771f92d6942691d73358b3a4673e4880de8356f8f2cf452be87e02d363",
        "nonce": "0x21",
        "chainId": "0x13882"
      },
      "additionalContracts": [],
      "isFixedGasLimit": false
    },
    {
      "hash": null,
      "transactionType": "CALL",
      "contractName": null,
      "contractAddress": "0xa9012a055bd4e0edff8ce09f960291c09d5322dc",
      "function": "transferRole(bytes32,address)",
      "arguments": [
        "0x65d7a28e3265b37a6474929f336521b332c1681b933f6cb9f3376673440d862a",
        "0x99B0E95Fa8F5C3b86e4d78ED715B475cFCcf6E97"
      ],
      "transaction": {
        "from": "0x99b0e95fa8f5c3b86e4d78ed715b475cfccf6e97",
        "to": "0xa9012a055bd4e0edff8ce09f960291c09d5322dc",
        "gas": "0x13212",
        "value": "0x0",
        "input": "0x9ee12c8965d7a28e3265b37a6474929f336521b332c1681b933f6cb9f3376673440d862a00000000000000000000000099b0e95fa8f5c3b86e4d78ed715b475cfccf6e97",
        "nonce": "0x22",
        "chainId": "0x13882"
      },
      "additionalContracts": [],
      "isFixedGasLimit": false
    },
    {
      "hash": null,
      "transactionType": "CALL",
      "contractName": null,
      "contractAddress": "0xa9012a055bd4e0edff8ce09f960291c09d5322dc",
      "function": "acceptTransferRole(bytes32)",
      "arguments": [
        "0x65d7a28e3265b37a6474929f336521b332c1681b933f6cb9f3376673440d862a"
      ],
      "transaction": {
        "from": "0x99b0e95fa8f5c3b86e4d78ed715b475cfccf6e97",
        "to": "0xa9012a055bd4e0edff8ce09f960291c09d5322dc",
        "gas": "0x11882",
        "value": "0x0",
        "input": "0x72ac04bb65d7a28e3265b37a6474929f336521b332c1681b933f6cb9f3376673440d862a",
        "nonce": "0x23",
        "chainId": "0x13882"
      },
      "additionalContracts": [],
      "isFixedGasLimit": false
    }
  ],
  "receipts": [
    {
      "status": "0x1",
      "cumulativeGasUsed": "0x1e3df",
      "logs": [
        {
          "address": "0xa9012a055bd4e0edff8ce09f960291c09d5322dc",
          "topics": [
            "0xbc7cd75a20ee27fd9adebab32041f755214dbc6bffa90cc0225b39da2e5c2d3b",
            "0x000000000000000000000000487478a4e9653e82e0e44dca5f5202f928ebfd77"
          ],
          "data": "0x",
          "blockHash": "0x79822ac9c41abfa3d5e92f066029d4921745a099b37dab77916a4aa550ef4c41",
          "blockNumber": "0x11efbeb",
          "transactionHash": "0xb532f1281304695bea24feb67739f29c513e7095b9f41f28bb09faf25c5182bf",
          "transactionIndex": "0x1",
          "logIndex": "0x2",
          "removed": false
        },
        {
          "address": "0xa9012a055bd4e0edff8ce09f960291c09d5322dc",
          "topics": [
            "0xc7f505b2f371ae2175ee4913f4499e1f2633a7b5936321eed1cdaeb6115181d2"
          ],
          "data": "0x0000000000000000000000000000000000000000000000000000000000000002",
          "blockHash": "0x79822ac9c41abfa3d5e92f066029d4921745a099b37dab77916a4aa550ef4c41",
          "blockNumber": "0x11efbeb",
          "transactionHash": "0xb532f1281304695bea24feb67739f29c513e7095b9f41f28bb09faf25c5182bf",
          "transactionIndex": "0x1",
          "logIndex": "0x3",
          "removed": false
        },
        {
          "address": "0x0000000000000000000000000000000000001010",
          "topics": [
            "0x4dfe1bbbcf077ddc3e01291eea2d5c70c2b422b415d95645b9adcfd678cb1d63",
            "0x0000000000000000000000000000000000000000000000000000000000001010",
            "0x00000000000000000000000099b0e95fa8f5c3b86e4d78ed715b475cfccf6e97",
            "0x00000000000000000000000009207a6efee346cb3e4a54ac18523e3715d38b3f"
          ],
          "data": "0x00000000000000000000000000000000000000000000000000093d6a46d986f900000000000000000000000000000000000000000000000150705ad3a39f1dc600000000000000000000000000000000000000000000062f86a54a4efbbf8cfc00000000000000000000000000000000000000000000000150671d695cc596cd00000000000000000000000000000000000000000000062f86ae87b9429913f5",
          "blockHash": "0x79822ac9c41abfa3d5e92f066029d4921745a099b37dab77916a4aa550ef4c41",
          "blockNumber": "0x11efbeb",
          "transactionHash": "0xb532f1281304695bea24feb67739f29c513e7095b9f41f28bb09faf25c5182bf",
          "transactionIndex": "0x1",
          "logIndex": "0x4",
          "removed": false
        }
      ],
      "logsBloom": "0x00000000000100000000000000000000400000000000000020000000000000000000000000000000000000000000000000008000040000000000010000000000000000000000000000000000000002800000000000000000000100002000000000080000000000000000000200000000000000000000000080000000000000000000000000000000000800000000000000004000000080000000000000020000200000000000000000000100000000000000000200000000000000000000004000000020000000000001000000000000000000000004000000100000000000000000000000000000000000010000000000000000000000000000000000100000",
      "type": "0x2",
      "transactionHash": "0xb532f1281304695bea24feb67739f29c513e7095b9f41f28bb09faf25c5182bf",
      "transactionIndex": "0x1",
      "blockHash": "0x79822ac9c41abfa3d5e92f066029d4921745a099b37dab77916a4aa550ef4c41",
      "blockNumber": "0x11efbeb",
      "gasUsed": "0x191d7",
      "effectiveGasPrice": "0x5e2ef33be",
      "from": "0x99b0e95fa8f5c3b86e4d78ed715b475cfccf6e97",
      "to": "0x2ffb5584c3c8ad18b3fc8872b91aa49a2ac8d169",
      "contractAddress": null
    },
    {
      "status": "0x1",
      "cumulativeGasUsed": "0x181a8",
      "logs": [
        {
          "address": "0xa9012a055bd4e0edff8ce09f960291c09d5322dc",
          "topics": [
            "0xc9ba1b1f5a418274427c969ace813494ac92d03206cbee8cffb4ba8696f50736",
            "0x0000000000000000000000000000000000000000000000000000000000000000",
            "0x00000000000000000000000099b0e95fa8f5c3b86e4d78ed715b475cfccf6e97"
          ],
          "data": "0x9f2df0fed2c77648de5860a4cc508cd0818c85b8b8a1ab4ceeef8d981c8956a6",
          "blockHash": "0xeeffc7974d92cfc806d937f0957ddda3f9ea17c5478d05166a66602ff3bb6da5",
          "blockNumber": "0x11efbf0",
          "transactionHash": "0x974270c2a1e89aa119a9312710143582c1d260888192e457807bd710747877e3",
          "transactionIndex": "0x2",
          "logIndex": "0x4",
          "removed": false
        },
        {
          "address": "0x0000000000000000000000000000000000001010",
          "topics": [
            "0x4dfe1bbbcf077ddc3e01291eea2d5c70c2b422b415d95645b9adcfd678cb1d63",
            "0x0000000000000000000000000000000000000000000000000000000000001010",
            "0x00000000000000000000000099b0e95fa8f5c3b86e4d78ed715b475cfccf6e97",
            "0x0000000000000000000000006dc2dd54f24979ec26212794c71afefed722280c"
          ],
          "data": "0x000000000000000000000000000000000000000000000000000518673da4c2e800000000000000000000000000000000000000000000000150671d695cae0b3400000000000000000000000000000000000000000000062ee554b9f31a0250ce000000000000000000000000000000000000000000000001506205021f09484c00000000000000000000000000000000000000000000062ee559d25a57a713b6",
          "blockHash": "0xeeffc7974d92cfc806d937f0957ddda3f9ea17c5478d05166a66602ff3bb6da5",
          "blockNumber": "0x11efbf0",
          "transactionHash": "0x974270c2a1e89aa119a9312710143582c1d260888192e457807bd710747877e3",
          "transactionIndex": "0x2",
          "logIndex": "0x5",
          "removed": false
        }
      ],
      "logsBloom": "0x00000000000100000000000000000000000000000000000020000000000000000000000000000000000080000000000000008000040000000000000000000000000000000000000000000000000000800000000000000000000100080000000000080000020000000000000200000800000000000000000080000000000000020000000000000000000000000040000000000000000000000000000000020000200000000000000000000000000000000000000000000000000000000000004000000000000000000001000000000000000200000000000000100000000020000000000000000000000000000000000000000020000000000000000000100000",
      "type": "0x2",
      "transactionHash": "0x974270c2a1e89aa119a9312710143582c1d260888192e457807bd710747877e3",
      "transactionIndex": "0x2",
      "blockHash": "0xeeffc7974d92cfc806d937f0957ddda3f9ea17c5478d05166a66602ff3bb6da5",
      "blockNumber": "0x11efbf0",
      "gasUsed": "0xdd98",
      "effectiveGasPrice": "0x5e2ef33be",
      "from": "0x99b0e95fa8f5c3b86e4d78ed715b475cfccf6e97",
      "to": "0xa9012a055bd4e0edff8ce09f960291c09d5322dc",
      "contractAddress": null
    }
  ],
  "libraries": [],
  "pending": [],
  "returns": {},
  "timestamp": 1741130408,
  "chain": 80002,
  "commit": "1f76be6"
}