{
  "transactions": [
    {
      "hash": "0x4e73e2b8ed6eb692df81c940f1c6e4f0b05fc7c086aa57bd17a13d336df73d94",
      "transactionType": "CALL",
      "contractName": null,
      "contractAddress": "0xa9012a055bd4e0edff8ce09f960291c09d5322dc",
      "function": "transferRole(bytes32,address)",
      "arguments": [
        "0x9f2df0fed2c77648de5860a4cc508cd0818c85b8b8a1ab4ceeef8d981c8956a6",
        "0x99B0E95Fa8F5C3b86e4d78ED715B475cFCcf6E97"
      ],
      "transaction": {
        "from": "0x99b0e95fa8f5c3b86e4d78ed715b475cfccf6e97",
        "to": "0xa9012a055bd4e0edff8ce09f960291c09d5322dc",
        "gas": "0xc6b3",
        "value": "0x0",
        "input": "0x9ee12c899f2df0fed2c77648de5860a4cc508cd0818c85b8b8a1ab4ceeef8d981c8956a600000000000000000000000099b0e95fa8f5c3b86e4d78ed715b475cfccf6e97",
        "nonce": "0x1d",
        "chainId": "0x13882"
      },
      "additionalContracts": [],
      "isFixedGasLimit": false
    },
    {
      "hash": "0x9efe745171157aeaf56b890783ad9fe1a7b9435d976e0be81265f83b824f2f2d",
      "transactionType": "CALL",
      "contractName": null,
      "contractAddress": "0xa9012a055bd4e0edff8ce09f960291c09d5322dc",
      "function": "acceptTransferRole(bytes32)",
      "arguments": [
        "0x9f2df0fed2c77648de5860a4cc508cd0818c85b8b8a1ab4ceeef8d981c8956a6"
      ],
      "transaction": {
        "from": "0x99b0e95fa8f5c3b86e4d78ed715b475cfccf6e97",
        "to": "0xa9012a055bd4e0edff8ce09f960291c09d5322dc",
        "gas": "0x11882",
        "value": "0x0",
        "input": "0x72ac04bb9f2df0fed2c77648de5860a4cc508cd0818c85b8b8a1ab4ceeef8d981c8956a6",
        "nonce": "0x1e",
        "chainId": "0x13882"
      },
      "additionalContracts": [],
      "isFixedGasLimit": false
    },
    {
      "hash": "0x82db250dc681ed9acd2a8c596655eabc0e2eec5a253d7aac6c354f41e59cedff",
      "transactionType": "CALL",
      "contractName": null,
      "contractAddress": "0xa9012a055bd4e0edff8ce09f960291c09d5322dc",
      "function": "transferRole(bytes32,address)",
      "arguments": [
        "0x3c11d16cbaffd01df69ce1c404f6340ee057498f5f00246190ea54220576a848",
        "0x99B0E95Fa8F5C3b86e4d78ED715B475cFCcf6E97"
      ],
      "transaction": {
        "from": "0x99b0e95fa8f5c3b86e4d78ed715b475cfccf6e97",
        "to": "0xa9012a055bd4e0edff8ce09f960291c09d5322dc",
        "gas": "0x13202",
        "value": "0x0",
        "input": "0x9ee12c893c11d16cbaffd01df69ce1c404f6340ee057498f5f00246190ea54220576a84800000000000000000000000099b0e95fa8f5c3b86e4d78ed715b475cfccf6e97",
        "nonce": "0x1f",
        "chainId": "0x13882"
      },
      "additionalContracts": [],
      "isFixedGasLimit": false
    },
    {
      "hash": "0xa57339017ddec1acbb55498f3bece1b972f138c431b661dfd52c7c768b327654",
      "transactionType": "CALL",
      "contractName": null,
      "contractAddress": "0xa9012a055bd4e0edff8ce09f960291c09d5322dc",
      "function": "acceptTransferRole(bytes32)",
      "arguments": [
        "0x3c11d16cbaffd01df69ce1c404f6340ee057498f5f00246190ea54220576a848"
      ],
      "transaction": {
        "from": "0x99b0e95fa8f5c3b86e4d78ed715b475cfccf6e97",
        "to": "0xa9012a055bd4e0edff8ce09f960291c09d5322dc",
        "gas": "0x128f1",
        "value": "0x0",
        "input": "0x72ac04bb3c11d16cbaffd01df69ce1c404f6340ee057498f5f00246190ea54220576a848",
        "nonce": "0x20",
        "chainId": "0x13882"
      },
      "additionalContracts": [],
      "isFixedGasLimit": false
    },
    {
      "hash": "0x633a813ec4b0f964dbd6762860d46f4e45451b89c3589a3a0288e1908c346cdd",
      "transactionType": "CALL",
      "contractName": null,
      "contractAddress": "0xa9012a055bd4e0edff8ce09f960291c09d5322dc",
      "function": "transferRole(bytes32,address)",
      "arguments": [
        "0x92de27771f92d6942691d73358b3a4673e4880de8356f8f2cf452be87e02d363",
        "0x99B0E95Fa8F5C3b86e4d78ED715B475cFCcf6E97"
      ],
      "transaction": {
        "from": "0x99b0e95fa8f5c3b86e4d78ed715b475cfccf6e97",
        "to": "0xa9012a055bd4e0edff8ce09f960291c09d5322dc",
        "gas": "0x13212",
        "value": "0x0",
        "input": "0x9ee12c8992de27771f92d6942691d73358b3a4673e4880de8356f8f2cf452be87e02d36300000000000000000000000099b0e95fa8f5c3b86e4d78ed715b475cfccf6e97",
        "nonce": "0x21",
        "chainId": "0x13882"
      },
      "additionalContracts": [],
      "isFixedGasLimit": false
    },
    {
      "hash": "0x2ef993cdb462fef08120ba68cc7f406a0a20a6fe73824bfe0b81c39da7c4d9fd",
      "transactionType": "CALL",
      "contractName": null,
      "contractAddress": "0xa9012a055bd4e0edff8ce09f960291c09d5322dc",
      "function": "acceptTransferRole(bytes32)",
      "arguments": [
        "0x92de27771f92d6942691d73358b3a4673e4880de8356f8f2cf452be87e02d363"
      ],
      "transaction": {
        "from": "0x99b0e95fa8f5c3b86e4d78ed715b475cfccf6e97",
        "to": "0xa9012a055bd4e0edff8ce09f960291c09d5322dc",
        "gas": "0x11882",
        "value": "0x0",
        "input": "0x72ac04bb92de27771f92d6942691d73358b3a4673e4880de8356f8f2cf452be87e02d363",
        "nonce": "0x22",
        "chainId": "0x13882"
      },
      "additionalContracts": [],
      "isFixedGasLimit": false
    },
    {
      "hash": "0xc109f3faf91352af24d6c830d02fb1cd283a49d4f2a4f7184f051fbe418a4e16",
      "transactionType": "CALL",
      "contractName": null,
      "contractAddress": "0xa9012a055bd4e0edff8ce09f960291c09d5322dc",
      "function": "transferRole(bytes32,address)",
      "arguments": [
        "0x65d7a28e3265b37a6474929f336521b332c1681b933f6cb9f3376673440d862a",
        "0x99B0E95Fa8F5C3b86e4d78ED715B475cFCcf6E97"
      ],
      "transaction": {
        "from": "0x99b0e95fa8f5c3b86e4d78ed715b475cfccf6e97",
        "to": "0xa9012a055bd4e0edff8ce09f960291c09d5322dc",
        "gas": "0x13212",
        "value": "0x0",
        "input": "0x9ee12c8965d7a28e3265b37a6474929f336521b332c1681b933f6cb9f3376673440d862a00000000000000000000000099b0e95fa8f5c3b86e4d78ed715b475cfccf6e97",
        "nonce": "0x23",
        "chainId": "0x13882"
      },
      "additionalContracts": [],
      "isFixedGasLimit": false
    },
    {
      "hash": "0x75724b04b9b35e9251d6fccdc8ba30f0b9746afc1f03622ce9f9a26bc2218478",
      "transactionType": "CALL",
      "contractName": null,
      "contractAddress": "0xa9012a055bd4e0edff8ce09f960291c09d5322dc",
      "function": "acceptTransferRole(bytes32)",
      "arguments": [
        "0x65d7a28e3265b37a6474929f336521b332c1681b933f6cb9f3376673440d862a"
      ],
      "transaction": {
        "from": "0x99b0e95fa8f5c3b86e4d78ed715b475cfccf6e97",
        "to": "0xa9012a055bd4e0edff8ce09f960291c09d5322dc",
        "gas": "0x11882",
        "value": "0x0",
        "input": "0x72ac04bb65d7a28e3265b37a6474929f336521b332c1681b933f6cb9f3376673440d862a",
        "nonce": "0x24",
        "chainId": "0x13882"
      },
      "additionalContracts": [],
      "isFixedGasLimit": false
    }
  ],
  "receipts": [
    {
      "status": "0x1",
      "cumulativeGasUsed": "0x8fdc",
      "logs": [
        {
          "address": "0xa9012a055bd4e0edff8ce09f960291c09d5322dc",
          "topics": [
            "0xc9ba1b1f5a418274427c969ace813494ac92d03206cbee8cffb4ba8696f50736",
            "0x0000000000000000000000000000000000000000000000000000000000000000",
            "0x00000000000000000000000099b0e95fa8f5c3b86e4d78ed715b475cfccf6e97"
          ],
          "data": "0x9f2df0fed2c77648de5860a4cc508cd0818c85b8b8a1ab4ceeef8d981c8956a6",
          "blockHash": "0x1599addfb4f27f4df6d7c72d450ca4b9b28a687c7866b953d2cf5242c1c7bfb4",
          "blockNumber": "0x11efc83",
          "transactionHash": "0x4e73e2b8ed6eb692df81c940f1c6e4f0b05fc7c086aa57bd17a13d336df73d94",
          "transactionIndex": "0x0",
          "logIndex": "0x0",
          "removed": false
        },
        {
          "address": "0x0000000000000000000000000000000000001010",
          "topics": [
            "0x4dfe1bbbcf077ddc3e01291eea2d5c70c2b422b415d95645b9adcfd678cb1d63",
            "0x0000000000000000000000000000000000000000000000000000000000001010",
            "0x00000000000000000000000099b0e95fa8f5c3b86e4d78ed715b475cfccf6e97",
            "0x0000000000000000000000004ad84f7014b7b44f723f284a85b1662337971439"
          ],
          "data": "0x0000000000000000000000000000000000000000000000000003ceb363dc9400000000000000000000000000000000000000000000000001506205021efc4c640000000000000000000000000000000000000000000006629421fffacb62aca6000000000000000000000000000000000000000000000001505e364ebb1fb8640000000000000000000000000000000000000000000006629425ceae2f3f40a6",
          "blockHash": "0x1599addfb4f27f4df6d7c72d450ca4b9b28a687c7866b953d2cf5242c1c7bfb4",
          "blockNumber": "0x11efc83",
          "transactionHash": "0x4e73e2b8ed6eb692df81c940f1c6e4f0b05fc7c086aa57bd17a13d336df73d94",
          "transactionIndex": "0x0",
          "logIndex": "0x1",
          "removed": false
        }
      ],
      "logsBloom": "0x00000000000100000000000000000000000000000000000020000000000000000000000000000000000080000000000000008000040000000000000000400000000000000000000000000000000000800000000000000000000100001000000000080000020000000000000200000800000000000000000080000000000000000000000000000000000000000000000000000000000000000000000000020000200000000000000000000000000000000000000000000000000000000000004000000000000000000001000000000000000200000000000000100000000020000000000000000000000000000000008000000020000000000000000000100000",
      "type": "0x2",
      "transactionHash": "0x4e73e2b8ed6eb692df81c940f1c6e4f0b05fc7c086aa57bd17a13d336df73d94",
      "transactionIndex": "0x0",
      "blockHash": "0x1599addfb4f27f4df6d7c72d450ca4b9b28a687c7866b953d2cf5242c1c7bfb4",
      "blockNumber": "0x11efc83",
      "gasUsed": "0x8fdc",
      "effectiveGasPrice": "0x6c67ec30f",
      "from": "0x99b0e95fa8f5c3b86e4d78ed715b475cfccf6e97",
      "to": "0xa9012a055bd4e0edff8ce09f960291c09d5322dc",
      "contractAddress": null
    },
    {
      "status": "0x1",
      "cumulativeGasUsed": "0xcb16",
      "logs": [
        {
          "address": "0xa9012a055bd4e0edff8ce09f960291c09d5322dc",
          "topics": [
            "0x274dd4127a55dcb6f6c12ed38fec5007d965d2afffa8b0bc75c3dc8f3f6b2224",
            "0x0000000000000000000000000000000000000000000000000000000000000000",
            "0x00000000000000000000000099b0e95fa8f5c3b86e4d78ed715b475cfccf6e97"
          ],
          "data": "0x9f2df0fed2c77648de5860a4cc508cd0818c85b8b8a1ab4ceeef8d981c8956a6",
          "blockHash": "0x8cefb87e8b2461ec38c637f9331867a53f2b38c233b9787bd418fd53a207556a",
          "blockNumber": "0x11efc88",
          "transactionHash": "0x9efe745171157aeaf56b890783ad9fe1a7b9435d976e0be81265f83b824f2f2d",
          "transactionIndex": "0x0",
          "logIndex": "0x0",
          "removed": false
        },
        {
          "address": "0x0000000000000000000000000000000000001010",
          "topics": [
            "0x4dfe1bbbcf077ddc3e01291eea2d5c70c2b422b415d95645b9adcfd678cb1d63",
            "0x0000000000000000000000000000000000000000000000000000000000001010",
            "0x00000000000000000000000099b0e95fa8f5c3b86e4d78ed715b475cfccf6e97",
            "0x0000000000000000000000004ad84f7014b7b44f723f284a85b1662337971439"
          ],
          "data": "0x00000000000000000000000000000000000000000000000000055ffb9385c200000000000000000000000000000000000000000000000001505e364ebb174a80000000000000000000000000000000000000000000000662944e63de884236a60000000000000000000000000000000000000000000000015058d653279188800000000000000000000000000000000000000000000006629453c3da1bc7f8a6",
          "blockHash": "0x8cefb87e8b2461ec38c637f9331867a53f2b38c233b9787bd418fd53a207556a",
          "blockNumber": "0x11efc88",
          "transactionHash": "0x9efe745171157aeaf56b890783ad9fe1a7b9435d976e0be81265f83b824f2f2d",
          "transactionIndex": "0x0",
          "logIndex": "0x1",
          "removed": false
        }
      ],
      "logsBloom": "0x00000000000100000000000000000000000000000000000020000000000000000000000000000000000000000000000000008000040000000000000000400000000000000000001000000000000000800000000200000000000100001000000000080000020000000000000200000800000000000000000080000000002000000000000000000000000000000000000000000000000000000000000000020000200000000000000000000000000000000000000000000000000000000000004000000000000000000001000000000000000000000000000000100000000020000000000000000000000000000000008000000000000000000000000000100000",
      "type": "0x2",
      "transactionHash": "0x9efe745171157aeaf56b890783ad9fe1a7b9435d976e0be81265f83b824f2f2d",
      "transactionIndex": "0x0",
      "blockHash": "0x8cefb87e8b2461ec38c637f9331867a53f2b38c233b9787bd418fd53a207556a",
      "blockNumber": "0x11efc88",
      "gasUsed": "0xcb16",
      "effectiveGasPrice": "0x6c67ec30f",
      "from": "0x99b0e95fa8f5c3b86e4d78ed715b475cfccf6e97",
      "to": "0xa9012a055bd4e0edff8ce09f960291c09d5322dc",
      "contractAddress": null
    },
    {
      "status": "0x1",
      "cumulativeGasUsed": "0xdd8c",
      "logs": [
        {
          "address": "0xa9012a055bd4e0edff8ce09f960291c09d5322dc",
          "topics": [
            "0xc9ba1b1f5a418274427c969ace813494ac92d03206cbee8cffb4ba8696f50736",
            "0x0000000000000000000000000000000000000000000000000000000000000000",
            "0x00000000000000000000000099b0e95fa8f5c3b86e4d78ed715b475cfccf6e97"
          ],
          "data": "0x3c11d16cbaffd01df69ce1c404f6340ee057498f5f00246190ea54220576a848",
          "blockHash": "0xaa673df6e83aae1ac1272db3887b095a5649975a5863c511f3aaeeab8c612adf",
          "blockNumber": "0x11efc8c",
          "transactionHash": "0x82db250dc681ed9acd2a8c596655eabc0e2eec5a253d7aac6c354f41e59cedff",
          "transactionIndex": "0x0",
          "logIndex": "0x0",
          "removed": false
        },
        {
          "address": "0x0000000000000000000000000000000000001010",
          "topics": [
            "0x4dfe1bbbcf077ddc3e01291eea2d5c70c2b422b415d95645b9adcfd678cb1d63",
            "0x0000000000000000000000000000000000000000000000000000000000001010",
            "0x00000000000000000000000099b0e95fa8f5c3b86e4d78ed715b475cfccf6e97",
            "0x0000000000000000000000004ad84f7014b7b44f723f284a85b1662337971439"
          ],
          "data": "0x0000000000000000000000000000000000000000000000000005dd0ffba9a4000000000000000000000000000000000000000000000000015058d6532785a236000000000000000000000000000000000000000000000662948cd88b7aa444b60000000000000000000000000000000000000000000000015052f9432bdbfe360000000000000000000000000000000000000000000006629492b59b764de8b6",
          "blockHash": "0xaa673df6e83aae1ac1272db3887b095a5649975a5863c511f3aaeeab8c612adf",
          "blockNumber": "0x11efc8c",
          "transactionHash": "0x82db250dc681ed9acd2a8c596655eabc0e2eec5a253d7aac6c354f41e59cedff",
          "transactionIndex": "0x0",
          "logIndex": "0x1",
          "removed": false
        }
      ],
      "logsBloom": "0x00000000000100000000000000000000000000000000000020000000000000000000000000000000000080000000000000008000040000000000000000400000000000000000000000000000000000800000000000000000000100001000000000080000020000000000000200000800000000000000000080000000000000000000000000000000000000000000000000000000000000000000000000020000200000000000000000000000000000000000000000000000000000000000004000000000000000000001000000000000000200000000000000100000000020000000000000000000000000000000008000000020000000000000000000100000",
      "type": "0x2",
      "transactionHash": "0x82db250dc681ed9acd2a8c596655eabc0e2eec5a253d7aac6c354f41e59cedff",
      "transactionIndex": "0x0",
      "blockHash": "0xaa673df6e83aae1ac1272db3887b095a5649975a5863c511f3aaeeab8c612adf",
      "blockNumber": "0x11efc8c",
      "gasUsed": "0xdd8c",
      "effectiveGasPrice": "0x6c67ec30f",
      "from": "0x99b0e95fa8f5c3b86e4d78ed715b475cfccf6e97",
      "to": "0xa9012a055bd4e0edff8ce09f960291c09d5322dc",
      "contractAddress": null
    },
    {
      "status": "0x1",
      "cumulativeGasUsed": "0x2637e",
      "logs": [
        {
          "address": "0xa9012a055bd4e0edff8ce09f960291c09d5322dc",
          "topics": [
            "0x274dd4127a55dcb6f6c12ed38fec5007d965d2afffa8b0bc75c3dc8f3f6b2224",
            "0x0000000000000000000000000000000000000000000000000000000000000000",
            "0x00000000000000000000000099b0e95fa8f5c3b86e4d78ed715b475cfccf6e97"
          ],
          "data": "0x3c11d16cbaffd01df69ce1c404f6340ee057498f5f00246190ea54220576a848",
          "blockHash": "0x47a323d72cc24eb3bb565a948fc6df860b86d6ee2cf909a0a5f959547bceedd7",
          "blockNumber": "0x11efc91",
          "transactionHash": "0xa57339017ddec1acbb55498f3bece1b972f138c431b661dfd52c7c768b327654",
          "transactionIndex": "0x4",
          "logIndex": "0x7",
          "removed": false
        },
        {
          "address": "0x0000000000000000000000000000000000001010",
          "topics": [
            "0x4dfe1bbbcf077ddc3e01291eea2d5c70c2b422b415d95645b9adcfd678cb1d63",
            "0x0000000000000000000000000000000000000000000000000000000000001010",
            "0x00000000000000000000000099b0e95fa8f5c3b86e4d78ed715b475cfccf6e97",
            "0x00000000000000000000000009207a6efee346cb3e4a54ac18523e3715d38b3f"
          ],
          "data": "0x00000000000000000000000000000000000000000000000000055faa45949e000000000000000000000000000000000000000000000000015052f9432bcf030200000000000000000000000000000000000000000000062f871567d6262653fb000000000000000000000000000000000000000000000001504d9998e63a650200000000000000000000000000000000000000000000062f871ac7806bbaf1fb",
          "blockHash": "0x47a323d72cc24eb3bb565a948fc6df860b86d6ee2cf909a0a5f959547bceedd7",
          "blockNumber": "0x11efc91",
          "transactionHash": "0xa57339017ddec1acbb55498f3bece1b972f138c431b661dfd52c7c768b327654",
          "transactionIndex": "0x4",
          "logIndex": "0x8",
          "removed": false
        }
      ],
      "logsBloom": "0x00000000000100000000000000000000000000000000000020000000000000000000000000000000000000000000000000008000040000000000010000000000000000000000001000000000000000800000000200000000000100000000000000080000020000000000000200000800000000000000000080000000002000000000000000000000000000000000000000004000000000000000000000020000200000000000000000000000000000000000000000000000000000000000004000000000000000000001000000000000000000000000000000100000000020000000000000000000000000010000000000000000000000000000000000100000",
      "type": "0x2",
      "transactionHash": "0xa57339017ddec1acbb55498f3bece1b972f138c431b661dfd52c7c768b327654",
      "transactionIndex": "0x4",
      "blockHash": "0x47a323d72cc24eb3bb565a948fc6df860b86d6ee2cf909a0a5f959547bceedd7",
      "blockNumber": "0x11efc91",
      "gasUsed": "0xcb0a",
      "effectiveGasPrice": "0x6c67ec30f",
      "from": "0x99b0e95fa8f5c3b86e4d78ed715b475cfccf6e97",
      "to": "0xa9012a055bd4e0edff8ce09f960291c09d5322dc",
      "contractAddress": null
    },
    {
      "status": "0x1",
      "cumulativeGasUsed": "0xdd98",
      "logs": [
        {
          "address": "0xa9012a055bd4e0edff8ce09f960291c09d5322dc",
          "topics": [
            "0xc9ba1b1f5a418274427c969ace813494ac92d03206cbee8cffb4ba8696f50736",
            "0x0000000000000000000000000000000000000000000000000000000000000000",
            "0x00000000000000000000000099b0e95fa8f5c3b86e4d78ed715b475cfccf6e97"
          ],
          "data": "0x92de27771f92d6942691d73358b3a4673e4880de8356f8f2cf452be87e02d363",
          "blockHash": "0x4c473d3e0b7309ecbf5c73c5c525b005ca17dbc6eabb4f50d043182dad789c80",
          "blockNumber": "0x11efc96",
          "transactionHash": "0x633a813ec4b0f964dbd6762860d46f4e45451b89c3589a3a0288e1908c346cdd",
          "transactionIndex": "0x0",
          "logIndex": "0x0",
          "removed": false
        },
        {
          "address": "0x0000000000000000000000000000000000001010",
          "topics": [
            "0x4dfe1bbbcf077ddc3e01291eea2d5c70c2b422b415d95645b9adcfd678cb1d63",
            "0x0000000000000000000000000000000000000000000000000000000000001010",
            "0x00000000000000000000000099b0e95fa8f5c3b86e4d78ed715b475cfccf6e97",
            "0x00000000000000000000000009207a6efee346cb3e4a54ac18523e3715d38b3f"
          ],
          "data": "0x0000000000000000000000000000000000000000000000000005dd61499ac800000000000000000000000000000000000000000000000001504d9998e62e7f6c00000000000000000000000000000000000000000000062f872c35ca9760b4bb0000000000000000000000000000000000000000000000015047bc379c93b76c00000000000000000000000000000000000000000000062f8732132be0fb7cbb",
          "blockHash": "0x4c473d3e0b7309ecbf5c73c5c525b005ca17dbc6eabb4f50d043182dad789c80",
          "blockNumber": "0x11efc96",
          "transactionHash": "0x633a813ec4b0f964dbd6762860d46f4e45451b89c3589a3a0288e1908c346cdd",
          "transactionIndex": "0x0",
          "logIndex": "0x1",
          "removed": false
        }
      ],
      "logsBloom": "0x00000000000100000000000000000000000000000000000020000000000000000000000000000000000080000000000000008000040000000000010000000000000000000000000000000000000000800000000000000000000100000000000000080000020000000000000200000800000000000000000080000000000000000000000000000000000000000000000000004000000000000000000000020000200000000000000000000000000000000000000000000000000000000000004000000000000000000001000000000000000200000000000000100000000020000000000000000000000000010000000000000020000000000000000000100000",
      "type": "0x2",
      "transactionHash": "0x633a813ec4b0f964dbd6762860d46f4e45451b89c3589a3a0288e1908c346cdd",
      "transactionIndex": "0x0",
      "blockHash": "0x4c473d3e0b7309ecbf5c73c5c525b005ca17dbc6eabb4f50d043182dad789c80",
      "blockNumber": "0x11efc96",
      "gasUsed": "0xdd98",
      "effectiveGasPrice": "0x6c67ec30f",
      "from": "0x99b0e95fa8f5c3b86e4d78ed715b475cfccf6e97",
      "to": "0xa9012a055bd4e0edff8ce09f960291c09d5322dc",
      "contractAddress": null
    },
    {
      "status": "0x1",
      "cumulativeGasUsed": "0x215c9",
      "logs": [
        {
          "address": "0xa9012a055bd4e0edff8ce09f960291c09d5322dc",
          "topics": [
            "0x274dd4127a55dcb6f6c12ed38fec5007d965d2afffa8b0bc75c3dc8f3f6b2224",
            "0x0000000000000000000000000000000000000000000000000000000000000000",
            "0x00000000000000000000000099b0e95fa8f5c3b86e4d78ed715b475cfccf6e97"
          ],
          "data": "0x92de27771f92d6942691d73358b3a4673e4880de8356f8f2cf452be87e02d363",
          "blockHash": "0x92323d09548d31a457dff722f5f1f7aa213200fd6fa8ff7307577e805c0f5a6b",
          "blockNumber": "0x11efc9b",
          "transactionHash": "0x2ef993cdb462fef08120ba68cc7f406a0a20a6fe73824bfe0b81c39da7c4d9fd",
          "transactionIndex": "0x2",
          "logIndex": "0x2",
          "removed": false
        },
        {
          "address": "0x0000000000000000000000000000000000001010",
          "topics": [
            "0x4dfe1bbbcf077ddc3e01291eea2d5c70c2b422b415d95645b9adcfd678cb1d63",
            "0x0000000000000000000000000000000000000000000000000000000000001010",
            "0x00000000000000000000000099b0e95fa8f5c3b86e4d78ed715b475cfccf6e97",
            "0x00000000000000000000000009207a6efee346cb3e4a54ac18523e3715d38b3f"
          ],
          "data": "0x00000000000000000000000000000000000000000000000000055ffb9385c2000000000000000000000000000000000000000000000000015047bc379c86bb8400000000000000000000000000000000000000000000062f876cea07df817a7200000000000000000000000000000000000000000000000150425c3c0900f98400000000000000000000000000000000000000000000062f87724a0373073c72",
          "blockHash": "0x92323d09548d31a457dff722f5f1f7aa213200fd6fa8ff7307577e805c0f5a6b",
          "blockNumber": "0x11efc9b",
          "transactionHash": "0x2ef993cdb462fef08120ba68cc7f406a0a20a6fe73824bfe0b81c39da7c4d9fd",
          "transactionIndex": "0x2",
          "logIndex": "0x3",
          "removed": false
        }
      ],
      "logsBloom": "0x00000000000100000000000000000000000000000000000020000000000000000000000000000000000000000000000000008000040000000000010000000000000000000000001000000000000000800000000200000000000100000000000000080000020000000000000200000800000000000000000080000000002000000000000000000000000000000000000000004000000000000000000000020000200000000000000000000000000000000000000000000000000000000000004000000000000000000001000000000000000000000000000000100000000020000000000000000000000000010000000000000000000000000000000000100000",
      "type": "0x2",
      "transactionHash": "0x2ef993cdb462fef08120ba68cc7f406a0a20a6fe73824bfe0b81c39da7c4d9fd",
      "transactionIndex": "0x2",
      "blockHash": "0x92323d09548d31a457dff722f5f1f7aa213200fd6fa8ff7307577e805c0f5a6b",
      "blockNumber": "0x11efc9b",
      "gasUsed": "0xcb16",
      "effectiveGasPrice": "0x6c67ec30f",
      "from": "0x99b0e95fa8f5c3b86e4d78ed715b475cfccf6e97",
      "to": "0xa9012a055bd4e0edff8ce09f960291c09d5322dc",
      "contractAddress": null
    },
    {
      "status": "0x1",
      "cumulativeGasUsed": "0x1f7d0",
      "logs": [
        {
          "address": "0xa9012a055bd4e0edff8ce09f960291c09d5322dc",
          "topics": [
            "0xc9ba1b1f5a418274427c969ace813494ac92d03206cbee8cffb4ba8696f50736",
            "0x0000000000000000000000000000000000000000000000000000000000000000",
            "0x00000000000000000000000099b0e95fa8f5c3b86e4d78ed715b475cfccf6e97"
          ],
          "data": "0x65d7a28e3265b37a6474929f336521b332c1681b933f6cb9f3376673440d862a",
          "blockHash": "0xe6eabed24cb730b575218275f62379d6348fce32f8bf6c35769aec3e0eb4f0b2",
          "blockNumber": "0x11efca0",
          "transactionHash": "0xc109f3faf91352af24d6c830d02fb1cd283a49d4f2a4f7184f051fbe418a4e16",
          "transactionIndex": "0x2",
          "logIndex": "0x4",
          "removed": false
        },
        {
          "address": "0x0000000000000000000000000000000000001010",
          "topics": [
            "0x4dfe1bbbcf077ddc3e01291eea2d5c70c2b422b415d95645b9adcfd678cb1d63",
            "0x0000000000000000000000000000000000000000000000000000000000001010",
            "0x00000000000000000000000099b0e95fa8f5c3b86e4d78ed715b475cfccf6e97",
            "0x0000000000000000000000006dc2dd54f24979ec26212794c71afefed722280c"
          ],
          "data": "0x0000000000000000000000000000000000000000000000000005dd61499ac80000000000000000000000000000000000000000000000000150425c3c08f5133a00000000000000000000000000000000000000000000062ee6cafbc8a756ab6d000000000000000000000000000000000000000000000001503c7edabf5a4b3a00000000000000000000000000000000000000000000062ee6d0d929f0f1736d",
          "blockHash": "0xe6eabed24cb730b575218275f62379d6348fce32f8bf6c35769aec3e0eb4f0b2",
          "blockNumber": "0x11efca0",
          "transactionHash": "0xc109f3faf91352af24d6c830d02fb1cd283a49d4f2a4f7184f051fbe418a4e16",
          "transactionIndex": "0x2",
          "logIndex": "0x5",
          "removed": false
        }
      ],
      "logsBloom": "0x00000000000100000000000000000000000000000000000020000000000000000000000000000000000080000000000000008000040000000000000000000000000000000000000000000000000000800000000000000000000100080000000000080000020000000000000200000800000000000000000080000000000000020000000000000000000000000040000000000000000000000000000000020000200000000000000000000000000000000000000000000000000000000000004000000000000000000001000000000000000200000000000000100000000020000000000000000000000000000000000000000020000000000000000000100000",
      "type": "0x2",
      "transactionHash": "0xc109f3faf91352af24d6c830d02fb1cd283a49d4f2a4f7184f051fbe418a4e16",
      "transactionIndex": "0x2",
      "blockHash": "0xe6eabed24cb730b575218275f62379d6348fce32f8bf6c35769aec3e0eb4f0b2",
      "blockNumber": "0x11efca0",
      "gasUsed": "0xdd98",
      "effectiveGasPrice": "0x6c67ec30f",
      "from": "0x99b0e95fa8f5c3b86e4d78ed715b475cfccf6e97",
      "to": "0xa9012a055bd4e0edff8ce09f960291c09d5322dc",
      "contractAddress": null
    },
    {
      "status": "0x1",
      "cumulativeGasUsed": "0xcb16",
      "logs": [
        {
          "address": "0xa9012a055bd4e0edff8ce09f960291c09d5322dc",
          "topics": [
            "0x274dd4127a55dcb6f6c12ed38fec5007d965d2afffa8b0bc75c3dc8f3f6b2224",
            "0x0000000000000000000000000000000000000000000000000000000000000000",
            "0x00000000000000000000000099b0e95fa8f5c3b86e4d78ed715b475cfccf6e97"
          ],
          "data": "0x65d7a28e3265b37a6474929f336521b332c1681b933f6cb9f3376673440d862a",
          "blockHash": "0x7725db3ceb1093a384202b4d49e203c8bdbabaa1902b7e2cb914bc810cf20021",
          "blockNumber": "0x11efca4",
          "transactionHash": "0x75724b04b9b35e9251d6fccdc8ba30f0b9746afc1f03622ce9f9a26bc2218478",
          "transactionIndex": "0x0",
          "logIndex": "0x0",
          "removed": false
        },
        {
          "address": "0x0000000000000000000000000000000000001010",
          "topics": [
            "0x4dfe1bbbcf077ddc3e01291eea2d5c70c2b422b415d95645b9adcfd678cb1d63",
            "0x0000000000000000000000000000000000000000000000000000000000001010",
            "0x00000000000000000000000099b0e95fa8f5c3b86e4d78ed715b475cfccf6e97",
            "0x0000000000000000000000006dc2dd54f24979ec26212794c71afefed722280c"
          ],
          "data": "0x00000000000000000000000000000000000000000000000000055ffb9385c200000000000000000000000000000000000000000000000001503c7edabf4d4f5200000000000000000000000000000000000000000000062ee70dadc21023860000000000000000000000000000000000000000000000000150371edf2bc78d5200000000000000000000000000000000000000000000062ee7130dbda3a94800",
          "blockHash": "0x7725db3ceb1093a384202b4d49e203c8bdbabaa1902b7e2cb914bc810cf20021",
          "blockNumber": "0x11efca4",
          "transactionHash": "0x75724b04b9b35e9251d6fccdc8ba30f0b9746afc1f03622ce9f9a26bc2218478",
          "transactionIndex": "0x0",
          "logIndex": "0x1",
          "removed": false
        }
      ],
      "logsBloom": "0x00000000000100000000000000000000000000000000000020000000000000000000000000000000000000000000000000008000040000000000000000000000000000000000001000000000000000800000000200000000000100080000000000080000020000000000000200000800000000000000000080000000002000020000000000000000000000000040000000000000000000000000000000020000200000000000000000000000000000000000000000000000000000000000004000000000000000000001000000000000000000000000000000100000000020000000000000000000000000000000000000000000000000000000000000100000",
      "type": "0x2",
      "transactionHash": "0x75724b04b9b35e9251d6fccdc8ba30f0b9746afc1f03622ce9f9a26bc2218478",
      "transactionIndex": "0x0",
      "blockHash": "0x7725db3ceb1093a384202b4d49e203c8bdbabaa1902b7e2cb914bc810cf20021",
      "blockNumber": "0x11efca4",
      "gasUsed": "0xcb16",
      "effectiveGasPrice": "0x6c67ec30f",
      "from": "0x99b0e95fa8f5c3b86e4d78ed715b475cfccf6e97",
      "to": "0xa9012a055bd4e0edff8ce09f960291c09d5322dc",
      "contractAddress": null
    }
  ],
  "libraries": [],
  "pending": [],
  "returns": {},
  "timestamp": 1741130788,
  "chain": 80002,
  "commit": "1f76be6"
}