{
  "transactions": [
    {
      "hash": "0xb0e15fd4f5824fc386e3838d663b4460cca8d257240a4e5fc95780af7963661a",
      "transactionType": "CALL",
      "contractName": null,
      "contractAddress": "0xa9012a055bd4e0edff8ce09f960291c09d5322dc",
      "function": "transferRole(bytes32,address)",
      "arguments": [
        "0x9f2df0fed2c77648de5860a4cc508cd0818c85b8b8a1ab4ceeef8d981c8956a6",
        "0x99B0E95Fa8F5C3b86e4d78ED715B475cFCcf6E97"
      ],
      "transaction": {
        "from": "0x99b0e95fa8f5c3b86e4d78ed715b475cfccf6e97",
        "to": "0xa9012a055bd4e0edff8ce09f960291c09d5322dc",
        "gas": "0xc6b3",
        "value": "0x0",
        "input": "0x9ee12c899f2df0fed2c77648de5860a4cc508cd0818c85b8b8a1ab4ceeef8d981c8956a600000000000000000000000099b0e95fa8f5c3b86e4d78ed715b475cfccf6e97",
        "nonce": "0xc",
        "chainId": "0x61"
      },
      "additionalContracts": [],
      "isFixedGasLimit": false
    },
    {
      "hash": "0xbdc989c3fa00a7f0e3d77f64b7ac3007a6ee15ca95e8c7153675950911517bab",
      "transactionType": "CALL",
      "contractName": null,
      "contractAddress": "0xa9012a055bd4e0edff8ce09f960291c09d5322dc",
      "function": "acceptTransferRole(bytes32)",
      "arguments": [
        "0x9f2df0fed2c77648de5860a4cc508cd0818c85b8b8a1ab4ceeef8d981c8956a6"
      ],
      "transaction": {
        "from": "0x99b0e95fa8f5c3b86e4d78ed715b475cfccf6e97",
        "to": "0xa9012a055bd4e0edff8ce09f960291c09d5322dc",
        "gas": "0x11882",
        "value": "0x0",
        "input": "0x72ac04bb9f2df0fed2c77648de5860a4cc508cd0818c85b8b8a1ab4ceeef8d981c8956a6",
        "nonce": "0xd",
        "chainId": "0x61"
      },
      "additionalContracts": [],
      "isFixedGasLimit": false
    },
    {
      "hash": "0xc157ad903c31db4fe925a50af1bab29e3de9aa655afa7950fff60fb5208a254b",
      "transactionType": "CALL",
      "contractName": null,
      "contractAddress": "0xa9012a055bd4e0edff8ce09f960291c09d5322dc",
      "function": "transferRole(bytes32,address)",
      "arguments": [
        "0x3c11d16cbaffd01df69ce1c404f6340ee057498f5f00246190ea54220576a848",
        "0x99B0E95Fa8F5C3b86e4d78ED715B475cFCcf6E97"
      ],
      "transaction": {
        "from": "0x99b0e95fa8f5c3b86e4d78ed715b475cfccf6e97",
        "to": "0xa9012a055bd4e0edff8ce09f960291c09d5322dc",
        "gas": "0x13202",
        "value": "0x0",
        "input": "0x9ee12c893c11d16cbaffd01df69ce1c404f6340ee057498f5f00246190ea54220576a84800000000000000000000000099b0e95fa8f5c3b86e4d78ed715b475cfccf6e97",
        "nonce": "0xe",
        "chainId": "0x61"
      },
      "additionalContracts": [],
      "isFixedGasLimit": false
    },
    {
      "hash": "0xbb0e1be2a889e3771bbca3dece1e7f1cd994354d0a6c636d166dba8633c51667",
      "transactionType": "CALL",
      "contractName": null,
      "contractAddress": "0xa9012a055bd4e0edff8ce09f960291c09d5322dc",
      "function": "acceptTransferRole(bytes32)",
      "arguments": [
        "0x3c11d16cbaffd01df69ce1c404f6340ee057498f5f00246190ea54220576a848"
      ],
      "transaction": {
        "from": "0x99b0e95fa8f5c3b86e4d78ed715b475cfccf6e97",
        "to": "0xa9012a055bd4e0edff8ce09f960291c09d5322dc",
        "gas": "0x128f1",
        "value": "0x0",
        "input": "0x72ac04bb3c11d16cbaffd01df69ce1c404f6340ee057498f5f00246190ea54220576a848",
        "nonce": "0xf",
        "chainId": "0x61"
      },
      "additionalContracts": [],
      "isFixedGasLimit": false
    },
    {
      "hash": "0x3b1e61613a6158ba2d65460c62417d57153ae0ab9827c56fa95747b6e9a15ad3",
      "transactionType": "CALL",
      "contractName": null,
      "contractAddress": "0xa9012a055bd4e0edff8ce09f960291c09d5322dc",
      "function": "transferRole(bytes32,address)",
      "arguments": [
        "0x92de27771f92d6942691d73358b3a4673e4880de8356f8f2cf452be87e02d363",
        "0x99B0E95Fa8F5C3b86e4d78ED715B475cFCcf6E97"
      ],
      "transaction": {
        "from": "0x99b0e95fa8f5c3b86e4d78ed715b475cfccf6e97",
        "to": "0xa9012a055bd4e0edff8ce09f960291c09d5322dc",
        "gas": "0x13212",
        "value": "0x0",
        "input": "0x9ee12c8992de27771f92d6942691d73358b3a4673e4880de8356f8f2cf452be87e02d36300000000000000000000000099b0e95fa8f5c3b86e4d78ed715b475cfccf6e97",
        "nonce": "0x10",
        "chainId": "0x61"
      },
      "additionalContracts": [],
      "isFixedGasLimit": false
    },
    {
      "hash": "0xe23b8f4d963c6230367cda5679c3640235189cccaefd91ecb3f3f51506959423",
      "transactionType": "CALL",
      "contractName": null,
      "contractAddress": "0xa9012a055bd4e0edff8ce09f960291c09d5322dc",
      "function": "acceptTransferRole(bytes32)",
      "arguments": [
        "0x92de27771f92d6942691d73358b3a4673e4880de8356f8f2cf452be87e02d363"
      ],
      "transaction": {
        "from": "0x99b0e95fa8f5c3b86e4d78ed715b475cfccf6e97",
        "to": "0xa9012a055bd4e0edff8ce09f960291c09d5322dc",
        "gas": "0x11882",
        "value": "0x0",
        "input": "0x72ac04bb92de27771f92d6942691d73358b3a4673e4880de8356f8f2cf452be87e02d363",
        "nonce": "0x11",
        "chainId": "0x61"
      },
      "additionalContracts": [],
      "isFixedGasLimit": false
    },
    {
      "hash": "0x4b47c1c1a8c91832b259ed842c4103416415993cfeb2df280175fd62a775de99",
      "transactionType": "CALL",
      "contractName": null,
      "contractAddress": "0xa9012a055bd4e0edff8ce09f960291c09d5322dc",
      "function": "transferRole(bytes32,address)",
      "arguments": [
        "0x65d7a28e3265b37a6474929f336521b332c1681b933f6cb9f3376673440d862a",
        "0x99B0E95Fa8F5C3b86e4d78ED715B475cFCcf6E97"
      ],
      "transaction": {
        "from": "0x99b0e95fa8f5c3b86e4d78ed715b475cfccf6e97",
        "to": "0xa9012a055bd4e0edff8ce09f960291c09d5322dc",
        "gas": "0x13212",
        "value": "0x0",
        "input": "0x9ee12c8965d7a28e3265b37a6474929f336521b332c1681b933f6cb9f3376673440d862a00000000000000000000000099b0e95fa8f5c3b86e4d78ed715b475cfccf6e97",
        "nonce": "0x12",
        "chainId": "0x61"
      },
      "additionalContracts": [],
      "isFixedGasLimit": false
    },
    {
      "hash": "0x132345f328a1015df025c8046d1a56c3f10c7318a305de800b8e3a2b0b29efb7",
      "transactionType": "CALL",
      "contractName": null,
      "contractAddress": "0xa9012a055bd4e0edff8ce09f960291c09d5322dc",
      "function": "acceptTransferRole(bytes32)",
      "arguments": [
        "0x65d7a28e3265b37a6474929f336521b332c1681b933f6cb9f3376673440d862a"
      ],
      "transaction": {
        "from": "0x99b0e95fa8f5c3b86e4d78ed715b475cfccf6e97",
        "to": "0xa9012a055bd4e0edff8ce09f960291c09d5322dc",
        "gas": "0x11882",
        "value": "0x0",
        "input": "0x72ac04bb65d7a28e3265b37a6474929f336521b332c1681b933f6cb9f3376673440d862a",
        "nonce": "0x13",
        "chainId": "0x61"
      },
      "additionalContracts": [],
      "isFixedGasLimit": false
    }
  ],
  "receipts": [
    {
      "status": "0x1",
      "cumulativeGasUsed": "0x8fdc",
      "logs": [
        {
          "address": "0xa9012a055bd4e0edff8ce09f960291c09d5322dc",
          "topics": [
            "0xc9ba1b1f5a418274427c969ace813494ac92d03206cbee8cffb4ba8696f50736",
            "0x0000000000000000000000000000000000000000000000000000000000000000",
            "0x00000000000000000000000099b0e95fa8f5c3b86e4d78ed715b475cfccf6e97"
          ],
          "data": "0x9f2df0fed2c77648de5860a4cc508cd0818c85b8b8a1ab4ceeef8d981c8956a6",
          "blockHash": "0xa3127a1d9bc492ee50cc44ef2c39c89dd27fbd045305d56fe81717591ef57d45",
          "blockNumber": "0x2eb20ed",
          "transactionHash": "0xb0e15fd4f5824fc386e3838d663b4460cca8d257240a4e5fc95780af7963661a",
          "transactionIndex": "0x0",
          "logIndex": "0x0",
          "removed": false
        }
      ],
      "logsBloom": "0x00000000000100000000000000000000000000000000000020000000000000000000000000000000000080000000000000000000040000000000000000000000000000000000000000000000000000000000000000000000000000000000000000080000020000000000000200000800000000000000000000000000000000000000000000000000000000000000000000000000000000000000000000020000000000000000000000000000000000000000000000000000000000000000000000000000000000000000000000000000000200000000000000000000000020000000000000000000000000000000000000000020000000000000000000000000",
      "type": "0x0",
      "transactionHash": "0xb0e15fd4f5824fc386e3838d663b4460cca8d257240a4e5fc95780af7963661a",
      "transactionIndex": "0x0",
      "blockHash": "0xa3127a1d9bc492ee50cc44ef2c39c89dd27fbd045305d56fe81717591ef57d45",
      "blockNumber": "0x2eb20ed",
      "gasUsed": "0x8fdc",
      "effectiveGasPrice": "0x2540be400",
      "from": "0x99b0e95fa8f5c3b86e4d78ed715b475cfccf6e97",
      "to": "0xa9012a055bd4e0edff8ce09f960291c09d5322dc",
      "contractAddress": null
    },
    {
      "status": "0x1",
      "cumulativeGasUsed": "0x2627b",
      "logs": [
        {
          "address": "0xa9012a055bd4e0edff8ce09f960291c09d5322dc",
          "topics": [
            "0x274dd4127a55dcb6f6c12ed38fec5007d965d2afffa8b0bc75c3dc8f3f6b2224",
            "0x0000000000000000000000000000000000000000000000000000000000000000",
            "0x00000000000000000000000099b0e95fa8f5c3b86e4d78ed715b475cfccf6e97"
          ],
          "data": "0x9f2df0fed2c77648de5860a4cc508cd0818c85b8b8a1ab4ceeef8d981c8956a6",
          "blockHash": "0xb46ad4d32859bcacebef6a5d757a2e95639c31ad125978a1c61feeaea90e6de3",
          "blockNumber": "0x2eb20ef",
          "transactionHash": "0xbdc989c3fa00a7f0e3d77f64b7ac3007a6ee15ca95e8c7153675950911517bab",
          "transactionIndex": "0x1",
          "logIndex": "0x5",
          "removed": false
        }
      ],
      "logsBloom": "0x00000000000100000000000000000000000000000000000020000000000000000000000000000000000000000000000000000000040000000000000000000000000000000000001000000000000000000000000200000000000000000000000000080000020000000000000200000800000000000000000000000000002000000000000000000000000000000000000000000000000000000000000000020000000000000000000000000000000000000000000000000000000000000000000000000000000000000000000000000000000000000000000000000000000020000000000000000000000000000000000000000000000000000000000000000000",
      "type": "0x0",
      "transactionHash": "0xbdc989c3fa00a7f0e3d77f64b7ac3007a6ee15ca95e8c7153675950911517bab",
      "transactionIndex": "0x1",
      "blockHash": "0xb46ad4d32859bcacebef6a5d757a2e95639c31ad125978a1c61feeaea90e6de3",
      "blockNumber": "0x2eb20ef",
      "gasUsed": "0xcb16",
      "effectiveGasPrice": "0x2540be400",
      "from": "0x99b0e95fa8f5c3b86e4d78ed715b475cfccf6e97",
      "to": "0xa9012a055bd4e0edff8ce09f960291c09d5322dc",
      "contractAddress": null
    },
    {
      "status": "0x1",
      "cumulativeGasUsed": "0x18852",
      "logs": [
        {
          "address": "0xa9012a055bd4e0edff8ce09f960291c09d5322dc",
          "topics": [
            "0xc9ba1b1f5a418274427c969ace813494ac92d03206cbee8cffb4ba8696f50736",
            "0x0000000000000000000000000000000000000000000000000000000000000000",
            "0x00000000000000000000000099b0e95fa8f5c3b86e4d78ed715b475cfccf6e97"
          ],
          "data": "0x3c11d16cbaffd01df69ce1c404f6340ee057498f5f00246190ea54220576a848",
          "blockHash": "0x5a34b87ab538cfa2422338dbc7d8f10a84d804eaa5e28a1476bc5bfd72b2d328",
          "blockNumber": "0x2eb20f2",
          "transactionHash": "0xc157ad903c31db4fe925a50af1bab29e3de9aa655afa7950fff60fb5208a254b",
          "transactionIndex": "0x1",
          "logIndex": "0x1",
          "removed": false
        }
      ],
      "logsBloom": "0x00000000000100000000000000000000000000000000000020000000000000000000000000000000000080000000000000000000040000000000000000000000000000000000000000000000000000000000000000000000000000000000000000080000020000000000000200000800000000000000000000000000000000000000000000000000000000000000000000000000000000000000000000020000000000000000000000000000000000000000000000000000000000000000000000000000000000000000000000000000000200000000000000000000000020000000000000000000000000000000000000000020000000000000000000000000",
      "type": "0x0",
      "transactionHash": "0xc157ad903c31db4fe925a50af1bab29e3de9aa655afa7950fff60fb5208a254b",
      "transactionIndex": "0x1",
      "blockHash": "0x5a34b87ab538cfa2422338dbc7d8f10a84d804eaa5e28a1476bc5bfd72b2d328",
      "blockNumber": "0x2eb20f2",
      "gasUsed": "0xdd8c",
      "effectiveGasPrice": "0x2540be400",
      "from": "0x99b0e95fa8f5c3b86e4d78ed715b475cfccf6e97",
      "to": "0xa9012a055bd4e0edff8ce09f960291c09d5322dc",
      "contractAddress": null
    },
    {
      "status": "0x1",
      "cumulativeGasUsed": "0x2448a",
      "logs": [
        {
          "address": "0xa9012a055bd4e0edff8ce09f960291c09d5322dc",
          "topics": [
            "0x274dd4127a55dcb6f6c12ed38fec5007d965d2afffa8b0bc75c3dc8f3f6b2224",
            "0x0000000000000000000000000000000000000000000000000000000000000000",
            "0x00000000000000000000000099b0e95fa8f5c3b86e4d78ed715b475cfccf6e97"
          ],
          "data": "0x3c11d16cbaffd01df69ce1c404f6340ee057498f5f00246190ea54220576a848",
          "blockHash": "0x1b6a9009b3491cf5e695e7d2373bb4834657df84f0340c59fcf28c27431e2f91",
          "blockNumber": "0x2eb20f4",
          "transactionHash": "0xbb0e1be2a889e3771bbca3dece1e7f1cd994354d0a6c636d166dba8633c51667",
          "transactionIndex": "0x2",
          "logIndex": "0x3",
          "removed": false
        }
      ],
      "logsBloom": "0x00000000000100000000000000000000000000000000000020000000000000000000000000000000000000000000000000000000040000000000000000000000000000000000001000000000000000000000000200000000000000000000000000080000020000000000000200000800000000000000000000000000002000000000000000000000000000000000000000000000000000000000000000020000000000000000000000000000000000000000000000000000000000000000000000000000000000000000000000000000000000000000000000000000000020000000000000000000000000000000000000000000000000000000000000000000",
      "type": "0x0",
      "transactionHash": "0xbb0e1be2a889e3771bbca3dece1e7f1cd994354d0a6c636d166dba8633c51667",
      "transactionIndex": "0x2",
      "blockHash": "0x1b6a9009b3491cf5e695e7d2373bb4834657df84f0340c59fcf28c27431e2f91",
      "blockNumber": "0x2eb20f4",
      "gasUsed": "0xcb0a",
      "effectiveGasPrice": "0x2540be400",
      "from": "0x99b0e95fa8f5c3b86e4d78ed715b475cfccf6e97",
      "to": "0xa9012a055bd4e0edff8ce09f960291c09d5322dc",
      "contractAddress": null
    },
    {
      "status": "0x1",
      "cumulativeGasUsed": "0x12fa0",
      "logs": [
        {
          "address": "0xa9012a055bd4e0edff8ce09f960291c09d5322dc",
          "topics": [
            "0xc9ba1b1f5a418274427c969ace813494ac92d03206cbee8cffb4ba8696f50736",
            "0x0000000000000000000000000000000000000000000000000000000000000000",
            "0x00000000000000000000000099b0e95fa8f5c3b86e4d78ed715b475cfccf6e97"
          ],
          "data": "0x92de27771f92d6942691d73358b3a4673e4880de8356f8f2cf452be87e02d363",
          "blockHash": "0x3d677dc7e1a977c5bc719c7fc67fc30953e5d17ba7b418274f298b2a681c757f",
          "blockNumber": "0x2eb20f7",
          "transactionHash": "0x3b1e61613a6158ba2d65460c62417d57153ae0ab9827c56fa95747b6e9a15ad3",
          "transactionIndex": "0x1",
          "logIndex": "0x0",
          "removed": false
        }
      ],
      "logsBloom": "0x00000000000100000000000000000000000000000000000020000000000000000000000000000000000080000000000000000000040000000000000000000000000000000000000000000000000000000000000000000000000000000000000000080000020000000000000200000800000000000000000000000000000000000000000000000000000000000000000000000000000000000000000000020000000000000000000000000000000000000000000000000000000000000000000000000000000000000000000000000000000200000000000000000000000020000000000000000000000000000000000000000020000000000000000000000000",
      "type": "0x0",
      "transactionHash": "0x3b1e61613a6158ba2d65460c62417d57153ae0ab9827c56fa95747b6e9a15ad3",
      "transactionIndex": "0x1",
      "blockHash": "0x3d677dc7e1a977c5bc719c7fc67fc30953e5d17ba7b418274f298b2a681c757f",
      "blockNumber": "0x2eb20f7",
      "gasUsed": "0xdd98",
      "effectiveGasPrice": "0x2540be400",
      "from": "0x99b0e95fa8f5c3b86e4d78ed715b475cfccf6e97",
      "to": "0xa9012a055bd4e0edff8ce09f960291c09d5322dc",
      "contractAddress": null
    },
    {
      "status": "0x1",
      "cumulativeGasUsed": "0x34064",
      "logs": [
        {
          "address": "0xa9012a055bd4e0edff8ce09f960291c09d5322dc",
          "topics": [
            "0x274dd4127a55dcb6f6c12ed38fec5007d965d2afffa8b0bc75c3dc8f3f6b2224",
            "0x0000000000000000000000000000000000000000000000000000000000000000",
            "0x00000000000000000000000099b0e95fa8f5c3b86e4d78ed715b475cfccf6e97"
          ],
          "data": "0x92de27771f92d6942691d73358b3a4673e4880de8356f8f2cf452be87e02d363",
          "blockHash": "0x2787a08e0f45785db10205d29373b07ef63e0649f4ac38138ea4e901812dff77",
          "blockNumber": "0x2eb20fa",
          "transactionHash": "0xe23b8f4d963c6230367cda5679c3640235189cccaefd91ecb3f3f51506959423",
          "transactionIndex": "0x2",
          "logIndex": "0x6",
          "removed": false
        }
      ],
      "logsBloom": "0x00000000000100000000000000000000000000000000000020000000000000000000000000000000000000000000000000000000040000000000000000000000000000000000001000000000000000000000000200000000000000000000000000080000020000000000000200000800000000000000000000000000002000000000000000000000000000000000000000000000000000000000000000020000000000000000000000000000000000000000000000000000000000000000000000000000000000000000000000000000000000000000000000000000000020000000000000000000000000000000000000000000000000000000000000000000",
      "type": "0x0",
      "transactionHash": "0xe23b8f4d963c6230367cda5679c3640235189cccaefd91ecb3f3f51506959423",
      "transactionIndex": "0x2",
      "blockHash": "0x2787a08e0f45785db10205d29373b07ef63e0649f4ac38138ea4e901812dff77",
      "blockNumber": "0x2eb20fa",
      "gasUsed": "0xcb16",
      "effectiveGasPrice": "0x2540be400",
      "from": "0x99b0e95fa8f5c3b86e4d78ed715b475cfccf6e97",
      "to": "0xa9012a055bd4e0edff8ce09f960291c09d5322dc",
      "contractAddress": null
    },
    {
      "status": "0x1",
      "cumulativeGasUsed": "0xdd98",
      "logs": [
        {
          "address": "0xa9012a055bd4e0edff8ce09f960291c09d5322dc",
          "topics": [
            "0xc9ba1b1f5a418274427c969ace813494ac92d03206cbee8cffb4ba8696f50736",
            "0x0000000000000000000000000000000000000000000000000000000000000000",
            "0x00000000000000000000000099b0e95fa8f5c3b86e4d78ed715b475cfccf6e97"
          ],
          "data": "0x65d7a28e3265b37a6474929f336521b332c1681b933f6cb9f3376673440d862a",
          "blockHash": "0x21eb666f9827cd122c149b5309a2466f179c3e2e7f554b2371a2c42c9df9ccc2",
          "blockNumber": "0x2eb20fd",
          "transactionHash": "0x4b47c1c1a8c91832b259ed842c4103416415993cfeb2df280175fd62a775de99",
          "transactionIndex": "0x0",
          "logIndex": "0x0",
          "removed": false
        }
      ],
      "logsBloom": "0x00000000000100000000000000000000000000000000000020000000000000000000000000000000000080000000000000000000040000000000000000000000000000000000000000000000000000000000000000000000000000000000000000080000020000000000000200000800000000000000000000000000000000000000000000000000000000000000000000000000000000000000000000020000000000000000000000000000000000000000000000000000000000000000000000000000000000000000000000000000000200000000000000000000000020000000000000000000000000000000000000000020000000000000000000000000",
      "type": "0x0",
      "transactionHash": "0x4b47c1c1a8c91832b259ed842c4103416415993cfeb2df280175fd62a775de99",
      "transactionIndex": "0x0",
      "blockHash": "0x21eb666f9827cd122c149b5309a2466f179c3e2e7f554b2371a2c42c9df9ccc2",
      "blockNumber": "0x2eb20fd",
      "gasUsed": "0xdd98",
      "effectiveGasPrice": "0x2540be400",
      "from": "0x99b0e95fa8f5c3b86e4d78ed715b475cfccf6e97",
      "to": "0xa9012a055bd4e0edff8ce09f960291c09d5322dc",
      "contractAddress": null
    },
    {
      "status": "0x1",
      "cumulativeGasUsed": "0xcb16",
      "logs": [
        {
          "address": "0xa9012a055bd4e0edff8ce09f960291c09d5322dc",
          "topics": [
            "0x274dd4127a55dcb6f6c12ed38fec5007d965d2afffa8b0bc75c3dc8f3f6b2224",
            "0x0000000000000000000000000000000000000000000000000000000000000000",
            "0x00000000000000000000000099b0e95fa8f5c3b86e4d78ed715b475cfccf6e97"
          ],
          "data": "0x65d7a28e3265b37a6474929f336521b332c1681b933f6cb9f3376673440d862a",
          "blockHash": "0xbc06495e0b6845d0d73ce6b4077e24d79f27bcad5bee7405c8da82f6e4673318",
          "blockNumber": "0x2eb2100",
          "transactionHash": "0x132345f328a1015df025c8046d1a56c3f10c7318a305de800b8e3a2b0b29efb7",
          "transactionIndex": "0x0",
          "logIndex": "0x0",
          "removed": false
        }
      ],
      "logsBloom": "0x00000000000100000000000000000000000000000000000020000000000000000000000000000000000000000000000000000000040000000000000000000000000000000000001000000000000000000000000200000000000000000000000000080000020000000000000200000800000000000000000000000000002000000000000000000000000000000000000000000000000000000000000000020000000000000000000000000000000000000000000000000000000000000000000000000000000000000000000000000000000000000000000000000000000020000000000000000000000000000000000000000000000000000000000000000000",
      "type": "0x0",
      "transactionHash": "0x132345f328a1015df025c8046d1a56c3f10c7318a305de800b8e3a2b0b29efb7",
      "transactionIndex": "0x0",
      "blockHash": "0xbc06495e0b6845d0d73ce6b4077e24d79f27bcad5bee7405c8da82f6e4673318",
      "blockNumber": "0x2eb2100",
      "gasUsed": "0xcb16",
      "effectiveGasPrice": "0x2540be400",
      "from": "0x99b0e95fa8f5c3b86e4d78ed715b475cfccf6e97",
      "to": "0xa9012a055bd4e0edff8ce09f960291c09d5322dc",
      "contractAddress": null
    }
  ],
  "libraries": [],
  "pending": [],
  "returns": {},
  "timestamp": 1741614415,
  "chain": 97,
  "commit": "f1480d9"
}