{
  "transactions": [
    {
      "hash": "0x216e9b448a8713d2875a9af0f5e7659a851204360cf20fdf33b0cd21bc5958ec",
      "transactionType": "CALL",
      "contractName": null,
      "contractAddress": "0x5f5258986684b5bd551085445e011930c3ff2a13",
      "function": "upgradeAndCall(address,address,bytes)",
      "arguments": [
        "0x8B52c234C4064Ef31c90f3e42B0Aa8C75d42A5Ad",
        "0x8Ff5804bC9EB717aA4594eac9a69a79D148d8429",
        "0xc4d66de800000000000000000000000099b0e95fa8f5c3b86e4d78ed715b475cfccf6e97"
      ],
      "transaction": {
        "from": "0x99b0e95fa8f5c3b86e4d78ed715b475cfccf6e97",
        "to": "0x5f5258986684b5bd551085445e011930c3ff2a13",
        "gas": "0x22b0a",
        "value": "0x0",
        "input": "0x9623609d0000000000000000000000008b52c234c4064ef31c90f3e42b0aa8c75d42a5ad0000000000000000000000008ff5804bc9eb717aa4594eac9a69a79d148d842900000000000000000000000000000000000000000000000000000000000000600000000000000000000000000000000000000000000000000000000000000024c4d66de800000000000000000000000099b0e95fa8f5c3b86e4d78ed715b475cfccf6e9700000000000000000000000000000000000000000000000000000000",
        "nonce": "0x0",
        "chainId": "0x14a34"
      },
      "additionalContracts": [],
      "isFixedGasLimit": false
    },
    {
      "hash": "0xee9829c8b64448cfd4aadced91d7eba4f0509dcfcadbecf1b135fb14cab1134b",
      "transactionType": "CALL",
      "contractName": null,
      "contractAddress": "0x8b52c234c4064ef31c90f3e42b0aa8c75d42a5ad",
      "function": "transferRole(bytes32,address)",
      "arguments": [
        "0x9f2df0fed2c77648de5860a4cc508cd0818c85b8b8a1ab4ceeef8d981c8956a6",
        "0x99B0E95Fa8F5C3b86e4d78ED715B475cFCcf6E97"
      ],
      "transaction": {
        "from": "0x99b0e95fa8f5c3b86e4d78ed715b475cfccf6e97",
        "to": "0x8b52c234c4064ef31c90f3e42b0aa8c75d42a5ad",
        "gas": "0x13212",
        "value": "0x0",
        "input": "0x9ee12c899f2df0fed2c77648de5860a4cc508cd0818c85b8b8a1ab4ceeef8d981c8956a600000000000000000000000099b0e95fa8f5c3b86e4d78ed715b475cfccf6e97",
        "nonce": "0x1",
        "chainId": "0x14a34"
      },
      "additionalContracts": [],
      "isFixedGasLimit": false
    },
    {
      "hash": null,
      "transactionType": "CALL",
      "contractName": null,
      "contractAddress": "0x8b52c234c4064ef31c90f3e42b0aa8c75d42a5ad",
      "function": "acceptTransferRole(bytes32)",
      "arguments": [
        "0x9f2df0fed2c77648de5860a4cc508cd0818c85b8b8a1ab4ceeef8d981c8956a6"
      ],
      "transaction": {
        "from": "0x99b0e95fa8f5c3b86e4d78ed715b475cfccf6e97",
        "to": "0x8b52c234c4064ef31c90f3e42b0aa8c75d42a5ad",
        "gas": "0x11882",
        "value": "0x0",
        "input": "0x72ac04bb9f2df0fed2c77648de5860a4cc508cd0818c85b8b8a1ab4ceeef8d981c8956a6",
        "nonce": "0x2",
        "chainId": "0x14a34"
      },
      "additionalContracts": [],
      "isFixedGasLimit": false
    },
    {
      "hash": null,
      "transactionType": "CALL",
      "contractName": null,
      "contractAddress": "0x8b52c234c4064ef31c90f3e42b0aa8c75d42a5ad",
      "function": "transferRole(bytes32,address)",
      "arguments": [
        "0x3c11d16cbaffd01df69ce1c404f6340ee057498f5f00246190ea54220576a848",
        "0x99B0E95Fa8F5C3b86e4d78ED715B475cFCcf6E97"
      ],
      "transaction": {
        "from": "0x99b0e95fa8f5c3b86e4d78ed715b475cfccf6e97",
        "to": "0x8b52c234c4064ef31c90f3e42b0aa8c75d42a5ad",
        "gas": "0x13202",
        "value": "0x0",
        "input": "0x9ee12c893c11d16cbaffd01df69ce1c404f6340ee057498f5f00246190ea54220576a84800000000000000000000000099b0e95fa8f5c3b86e4d78ed715b475cfccf6e97",
        "nonce": "0x3",
        "chainId": "0x14a34"
      },
      "additionalContracts": [],
      "isFixedGasLimit": false
    },
    {
      "hash": null,
      "transactionType": "CALL",
      "contractName": null,
      "contractAddress": "0x8b52c234c4064ef31c90f3e42b0aa8c75d42a5ad",
      "function": "acceptTransferRole(bytes32)",
      "arguments": [
        "0x3c11d16cbaffd01df69ce1c404f6340ee057498f5f00246190ea54220576a848"
      ],
      "transaction": {
        "from": "0x99b0e95fa8f5c3b86e4d78ed715b475cfccf6e97",
        "to": "0x8b52c234c4064ef31c90f3e42b0aa8c75d42a5ad",
        "gas": "0x128f1",
        "value": "0x0",
        "input": "0x72ac04bb3c11d16cbaffd01df69ce1c404f6340ee057498f5f00246190ea54220576a848",
        "nonce": "0x4",
        "chainId": "0x14a34"
      },
      "additionalContracts": [],
      "isFixedGasLimit": false
    },
    {
      "hash": null,
      "transactionType": "CALL",
      "contractName": null,
      "contractAddress": "0x8b52c234c4064ef31c90f3e42b0aa8c75d42a5ad",
      "function": "transferRole(bytes32,address)",
      "arguments": [
        "0x92de27771f92d6942691d73358b3a4673e4880de8356f8f2cf452be87e02d363",
        "0x99B0E95Fa8F5C3b86e4d78ED715B475cFCcf6E97"
      ],
      "transaction": {
        "from": "0x99b0e95fa8f5c3b86e4d78ed715b475cfccf6e97",
        "to": "0x8b52c234c4064ef31c90f3e42b0aa8c75d42a5ad",
        "gas": "0x13212",
        "value": "0x0",
        "input": "0x9ee12c8992de27771f92d6942691d73358b3a4673e4880de8356f8f2cf452be87e02d36300000000000000000000000099b0e95fa8f5c3b86e4d78ed715b475cfccf6e97",
        "nonce": "0x5",
        "chainId": "0x14a34"
      },
      "additionalContracts": [],
      "isFixedGasLimit": false
    },
    {
      "hash": null,
      "transactionType": "CALL",
      "contractName": null,
      "contractAddress": "0x8b52c234c4064ef31c90f3e42b0aa8c75d42a5ad",
      "function": "acceptTransferRole(bytes32)",
      "arguments": [
        "0x92de27771f92d6942691d73358b3a4673e4880de8356f8f2cf452be87e02d363"
      ],
      "transaction": {
        "from": "0x99b0e95fa8f5c3b86e4d78ed715b475cfccf6e97",
        "to": "0x8b52c234c4064ef31c90f3e42b0aa8c75d42a5ad",
        "gas": "0x11882",
        "value": "0x0",
        "input": "0x72ac04bb92de27771f92d6942691d73358b3a4673e4880de8356f8f2cf452be87e02d363",
        "nonce": "0x6",
        "chainId": "0x14a34"
      },
      "additionalContracts": [],
      "isFixedGasLimit": false
    },
    {
      "hash": null,
      "transactionType": "CALL",
      "contractName": null,
      "contractAddress": "0x8b52c234c4064ef31c90f3e42b0aa8c75d42a5ad",
      "function": "transferRole(bytes32,address)",
      "arguments": [
        "0x65d7a28e3265b37a6474929f336521b332c1681b933f6cb9f3376673440d862a",
        "0x99B0E95Fa8F5C3b86e4d78ED715B475cFCcf6E97"
      ],
      "transaction": {
        "from": "0x99b0e95fa8f5c3b86e4d78ed715b475cfccf6e97",
        "to": "0x8b52c234c4064ef31c90f3e42b0aa8c75d42a5ad",
        "gas": "0x13212",
        "value": "0x0",
        "input": "0x9ee12c8965d7a28e3265b37a6474929f336521b332c1681b933f6cb9f3376673440d862a00000000000000000000000099b0e95fa8f5c3b86e4d78ed715b475cfccf6e97",
        "nonce": "0x7",
        "chainId": "0x14a34"
      },
      "additionalContracts": [],
      "isFixedGasLimit": false
    },
    {
      "hash": null,
      "transactionType": "CALL",
      "contractName": null,
      "contractAddress": "0x8b52c234c4064ef31c90f3e42b0aa8c75d42a5ad",
      "function": "acceptTransferRole(bytes32)",
      "arguments": [
        "0x65d7a28e3265b37a6474929f336521b332c1681b933f6cb9f3376673440d862a"
      ],
      "transaction": {
        "from": "0x99b0e95fa8f5c3b86e4d78ed715b475cfccf6e97",
        "to": "0x8b52c234c4064ef31c90f3e42b0aa8c75d42a5ad",
        "gas": "0x11882",
        "value": "0x0",
        "input": "0x72ac04bb65d7a28e3265b37a6474929f336521b332c1681b933f6cb9f3376673440d862a",
        "nonce": "0x8",
        "chainId": "0x14a34"
      },
      "additionalContracts": [],
      "isFixedGasLimit": false
    }
  ],
  "receipts": [
    {
      "status": "0x1",
      "cumulativeGasUsed": "0xbcb53",
      "logs": [
        {
          "address": "0x8b52c234c4064ef31c90f3e42b0aa8c75d42a5ad",
          "topics": [
            "0xbc7cd75a20ee27fd9adebab32041f755214dbc6bffa90cc0225b39da2e5c2d3b",
            "0x0000000000000000000000008ff5804bc9eb717aa4594eac9a69a79d148d8429"
          ],
          "data": "0x",
          "blockHash": "0x3a6ceeea871219e5b192f123ca268434c4b09ead1b3a6505b235d293a6f7eeda",
          "blockNumber": "0x15d7ed3",
          "transactionHash": "0x216e9b448a8713d2875a9af0f5e7659a851204360cf20fdf33b0cd21bc5958ec",
          "transactionIndex": "0x4",
          "logIndex": "0x14",
          "removed": false
        },
        {
          "address": "0x8b52c234c4064ef31c90f3e42b0aa8c75d42a5ad",
          "topics": [
            "0xc7f505b2f371ae2175ee4913f4499e1f2633a7b5936321eed1cdaeb6115181d2"
          ],
          "data": "0x0000000000000000000000000000000000000000000000000000000000000002",
          "blockHash": "0x3a6ceeea871219e5b192f123ca268434c4b09ead1b3a6505b235d293a6f7eeda",
          "blockNumber": "0x15d7ed3",
          "transactionHash": "0x216e9b448a8713d2875a9af0f5e7659a851204360cf20fdf33b0cd21bc5958ec",
          "transactionIndex": "0x4",
          "logIndex": "0x15",
          "removed": false
        }
      ],
      "logsBloom": "0x00400000000000000000000000000000400000000000000000000000000000000000000000000000000000000000000000000000000000000000000000000000000000000000000000000000000002000800000000000000000000000000000000000000000000000000000000000000000000000000000000000000000008000000000000000000000800000000000000000000000080100000000000004000000000000000001000000000000000000000000000000000000000000000000000000020000000000000000000000000000000000004000000000000000000000000000000000000000000000000000000000000000000000000000000000000",
      "type": "0x2",
      "transactionHash": "0x216e9b448a8713d2875a9af0f5e7659a851204360cf20fdf33b0cd21bc5958ec",
      "transactionIndex": "0x4",
      "blockHash": "0x3a6ceeea871219e5b192f123ca268434c4b09ead1b3a6505b235d293a6f7eeda",
      "blockNumber": "0x15d7ed3",
      "gasUsed": "0x191d7",
      "effectiveGasPrice": "0xf4512",
      "from": "0x99b0e95fa8f5c3b86e4d78ed715b475cfccf6e97",
      "to": "0x5f5258986684b5bd551085445e011930c3ff2a13",
      "contractAddress": null,
      "l1BaseFeeScalar": "0x44d",
      "l1BlobBaseFee": "0x1",
      "l1BlobBaseFeeScalar": "0xa118b",
      "l1Fee": "0xbbdde5ac68",
      "l1GasPrice": "0x4a8420cd49",
      "l1GasUsed": "0x8f1"
    },
    {
      "status": "0x1",
      "cumulativeGasUsed": "0x5000e5",
      "logs": [
        {
          "address": "0x8b52c234c4064ef31c90f3e42b0aa8c75d42a5ad",
          "topics": [
            "0xc9ba1b1f5a418274427c969ace813494ac92d03206cbee8cffb4ba8696f50736",
            "0x0000000000000000000000000000000000000000000000000000000000000000",
            "0x00000000000000000000000099b0e95fa8f5c3b86e4d78ed715b475cfccf6e97"
          ],
          "data": "0x9f2df0fed2c77648de5860a4cc508cd0818c85b8b8a1ab4ceeef8d981c8956a6",
          "blockHash": "0x43cfd6c1bf436f530584a9acbe566dbeae2ad2cbfea72009ca8336fb2d3301dc",
          "blockNumber": "0x15d7ed8",
          "transactionHash": "0xee9829c8b64448cfd4aadced91d7eba4f0509dcfcadbecf1b135fb14cab1134b",
          "transactionIndex": "0x29",
          "logIndex": "0x6e",
          "removed": false
        }
      ],
      "logsBloom": "0x00400000000000000000000000000000000000000000000000000000000000000000000000000000000080000000000000000000040000000000000000000000000000000000000000000000000000000000000000000000000000000000000000080000020000000000000200000800000000000000000000000000000000000000000000000000000000000000000000000000000000100000000000004000000000000000000000000000000000000000000000000000000000000000000000000000000000000000000000000000000200000000000000000000000020000000000000000000000000000000000000000020000000000000000000000000",
      "type": "0x2",
      "transactionHash": "0xee9829c8b64448cfd4aadced91d7eba4f0509dcfcadbecf1b135fb14cab1134b",
      "transactionIndex": "0x29",
      "blockHash": "0x43cfd6c1bf436f530584a9acbe566dbeae2ad2cbfea72009ca8336fb2d3301dc",
      "blockNumber": "0x15d7ed8",
      "gasUsed": "0xdd98",
      "effectiveGasPrice": "0xf4512",
      "from": "0x99b0e95fa8f5c3b86e4d78ed715b475cfccf6e97",
      "to": "0x8b52c234c4064ef31c90f3e42b0aa8c75d42a5ad",
      "contractAddress": null,
      "l1BaseFeeScalar": "0x44d",
      "l1BlobBaseFee": "0x1",
      "l1BlobBaseFeeScalar": "0xa118b",
      "l1Fee": "0x802319dc7d",
      "l1GasPrice": "0x446bb5ed6f",
      "l1GasUsed": "0x6a4"
    }
  ],
  "libraries": [],
  "pending": [],
  "returns": {},
  "timestamp": 1741577366,
  "chain": 84532,
  "commit": "fce3693"
}